:020000040800F2
:100000000000022049A00008AD0E0008AF0E000855
:10001000B10E0008B30E0008B50E00080000000085
:10002000000000000000000000000000B70E000803
:10003000B90E000800000000BB0E0008BD0E00084D
:1000400099A0000899A0000899A0000899A00008AC
:1000500099A0000899A0000899A0000899A000089C
:1000600099A0000899A0000899A0000899A000088C
:1000700099A0000899A0000899A0000899A000087C
:1000800099A0000899A0000899A0000899A000086C
:1000900099A0000899A0000899A0000899A000085C
:1000A000C50E000899A00008D50E000899A0000808
:1000B000E50E000899A0000899A0000899A0000882
:1000C00099A0000899A0000899A0000899A000082C
:1000D00099A0000899A0000899A0000899A000081C
:1000E000F50E000899A000080000000099A0000883
:1000F00099A0000899A0000899A0000899A00008FC
:1001000099A0000899A0000899A0000899A00008EB
:1001100099A0000899A0000899A0000899A00008DB
:1001200099A0000899A0000899A0000899A00008CB
:1001300099A0000899A0000899A0000899A00008BB
:1001400000000000000000000000000000000000AF
:1001500099A0000899A0000899A0000899A000089B
:1001600099A0000899A0000899A0000899A000088B
:1001700099A0000899A0000899A0000800000000BC
:1001800099A0000899A0000899A0000899A000086B
:1001900099A0000899A0000899A0000899A000085B
:1001A00099A0000899A0000899A0000899A000084B
:1001B00099A0000899A0000899A0000899A000083B
:1001C00099A0000899A0000899A0000899A000082B
:1001D00099A0000899A0000899A0000899A000081B
:1001E00099A0000899A0000899A0000899A000080B
:1001F00099A0000899A0000899A0000899A00008FB
:1002000099A0000899A0000899A0000899A00008EA
:1002100099A0000899A0000899A0000899A00008DA
:1002200099A0000899A0000899A00008000000000B
:1002300099A0000899A000080000000099A00008FB
:1002400099A0000899A0000899A0000899A00008AA
:1002500099A0000899A0000899A0000899A000089A
:1002600099A0000899A0000899A0000899A000088A
:1002700099A0000899A0000899A0000800000000BB
:1002800099A0000899A0000899A0000800000000AB
:080290000000000099A0000825
:1002A00010B5054C237833B9044B13B10448AFF3B0
:1002B00000800123237010BD7400002000000000A6
:1002C000C8AE000808B5034B1BB103490348AFF3A0
:1002D000008008BD0000000078000020C8AE0008C3
:1002E00053B94AB9002908BF00281CBF4FF0FF319D
:1002F0004FF0FF3000F072B9ADF1080C6DE904CE9B
:1003000000F006F8DDF804E0DDE9022304B07047F0
:100310002DE9F047089E04468846002B4BD18A42BF
:10032000154667D9B2FA82F24AB1C2F1200701FA42
:1003300002F320FA07F7954047EA030894404FEA92
:10034000154E230CB8FBFEF71FFA85FC0EFB178831
:1003500043EA084307FB0CF1994209D9EB1807F16E
:10036000FF3080F01B81994240F21881023F2B44FC
:100370005B1AA4B2B3FBFEF00EFB103344EA034455
:1003800000FB0CFCA44509D92C1900F1FF3380F0C7
:100390000781A44540F2048102382C4440EA07401A
:1003A000A4EB0C0400271EB1D4400023C6E900438F
:1003B0003946BDE8F0878B4209D9002E00F0EB806A
:1003C0000027C6E9000138463946BDE8F087B3FA90
:1003D00083F7002F47D18B4202D3824200F2FA808A
:1003E000841A61EB030301209846002EE0D0C6E991
:1003F0000048DDE702B9FFDEB2FA82F2002A40F0DF
:100400008F80491B4FEA154E1FFA85F80127B1FB73
:10041000FEFC230C0EFB1C1143EA014308FB0CF10C
:10042000994207D9EB180CF1FF3002D2994200F241
:10043000CD808446591AA3B2B1FBFEF00EFB101416
:1004400043EA044408FB00F8A04507D92C1900F141
:10045000FF3302D2A04500F2B6801846A4EB080490
:1004600040EA0C409FE7C7F1200CBB4022FA0CFE8B
:100470004EEA030E01FA07F420FA0CF521FA0CF308
:100480004FEA1E482543B3FBF8F92C0C08FB19333F
:100490001FFA8EFA44EA034309FB0AF49C4202FA6B
:1004A00007F200FA07F10BD91EEB030309F1FF3045
:1004B00080F087809C4240F28480A9F10209734455
:1004C0001B1BADB2B3FBF8F008FB103345EA034445
:1004D00000FB0AFAA24508D91EEB040400F1FF3321
:1004E0006BD2A24569D90238744440EA0940A0FBA6
:1004F0000289A4EB0A044C45C2464B4654D351D062
:10050000002E69D0B1EB0A0564EB030404FA0CFC7D
:10051000FD40FC404CEA0505C6E90054002747E7CA
:10052000C2F1200320FA03F7954001FA02F021FA04
:1005300003F34FEA154E3843010CB3FBFEF71FFAE5
:1005400085F80EFB173341EA034107FB08F38B42A2
:1005500004FA02F407D9691807F1FF3C2FD28B4245
:100560002DD9023F2944CB1A81B2B3FBFEF00EFB1A
:10057000103341EA034100FB08F38B4207D96918A5
:1005800000F1FF3C17D28B4215D902382944C91A11
:1005900040EA07473BE73746304609E70746E7E6C4
:1005A0001846FBE64145ABD2B8EB020A69EB0E02F6
:1005B00001381346A4E76046E9E7184695E7674621
:1005C000D1E781467CE702382C4447E7ACF1020CC6
:1005D0002B442FE7384608E73746E9E6704700BF67
:1005E00001F0FF01102A2BDB10F0070F08D010F8E4
:1005F000013B013A8B422DD010F0070F42B3F6D1E8
:10060000F0B441EA012141EA014122F007047FF000
:1006100000070023F0E80256083C85EA010586EA57
:10062000010685FA47F5A3FA87F586FA47F6A5FA93
:1006300087F68EB9EED1F0BC01F0FF0102F007029F
:1006400032B110F8013B013A83EA010313B1F8D14A
:100650000020704701387047002D06BF354603382B
:10066000073815F0010F07D1013015F4807F02BF64
:10067000013015F4C03F0130F0BC0138704700BFB5
:1006800000B58BB00023079308930993009301935F
:10069000029303930493059306931E481E4A026037
:1006A00043608360C36004220261037543750122C5
:1006B0008261037743628362C3620363436380F8AA
:1006C000383001F0C9FCD8B90AA9002341F80C3D23
:1006D000104801F091FFB0B9104B0093062301932D
:1006E0000023029340F2FF720392042204920593C6
:1006F0006946084800F07CFF40B90BB05DF804FB88
:1007000000F056FBE0E700F053FBE5E700F050FB9C
:10071000F3E700BFA8000020002002400002B0253F
:1007200010B588B0002303930493059306930793B1
:1007300002681E4B9A4201D008B010BD1C4BD3F882
:10074000D82042F02002C3F8D820D3F8D82002F0F5
:1007500020020092009AD3F8E02042F00102C3F890
:10076000E020D3F8E02002F001020192019AD3F8D0
:10077000E02042F00202C3F8E020D3F8E03003F0BA
:1007800002030293029B832303930324049403A98B
:10079000084802F0CFF80123039304940023059343
:1007A00003A9054802F0C6F8C6E700BF00200240D2
:1007B00000440258000002580004025810B10128F9
:1007C00004D07047034B00221A707047014B01227E
:1007D0001A70F6E790000020034B5860034B5860F6
:1007E000034B5860704700BF540100207001002087
:1007F000380100205D4B834200D070475C4B1B6981
:100800005B0B03F004035B490A69920802F00202E1
:1008100013430A69C2F380221343EED02DE9F0415D
:10082000554A1278002A3FD0544A5900C81844004B
:10083000101912F804C046788478C578077990F8C2
:100840000580BCF1000F44D04D4960230B60474E3A
:100850000022304605F056FE0021304606F0AEFE7E
:100860000021304607F0C2F8002C49D045496023EA
:100870000B603E4C0422204605F044FE0421204635
:1008800006F09CFE0421204607F0B0F8002F4ED160
:100890000821364806F066FDB8F1000F59D108214D
:1008A000324807F0F5F852E034485900CC1862009D
:1008B000024492F830C092F8316092F8324092F8D7
:1008C000335092F834700B445A00104490F835803D
:1008D000B7E70021254806F045FD66B128495023B9
:1008E0000B60224E0022304605F00CFE00213046FF
:1008F00007F07CF8B8E700211C4807F0C9F8B3E717
:1009000004211A4806F02EFD65B11E4950230B60E4
:10091000164C0422204605F0F5FD0421204607F080
:1009200065F8B3E70421114807F0B2F8AEE71649BD
:1009300060230B600D4C0822204605F0E3FD0821E2
:10094000204606F03BFE0821204607F04FF8BDE8A0
:10095000F0810D4950230B60044C0822204605F01D
:10096000D1FD0821204607F041F8F0E714020020ED
:10097000000002580004025890000020E0AE000879
:100980005401002070010020380100202DE9F043BF
:100990008FB0002409940A940B940C940D94894B05
:1009A000D3F8E02042F01002C3F8E020D3F8E020B2
:1009B00002F010020192019AD3F8E02042F0040202
:1009C000C3F8E020D3F8E02002F004020292029A79
:1009D000D3F8E02042F02002C3F8E020D3F8E02072
:1009E00002F020020392039AD3F8E02042F0800242
:1009F000C3F8E020D3F8E02002F080020492049AC9
:100A0000D3F8E02042F00102C3F8E020D3F8E02060
:100A100002F001020592059AD3F8E02042F00202AA
:100A2000C3F8E020D3F8E02002F002020692069A12
:100A3000D3F8E02042F04002C3F8E020D3F8E020F1
:100A400002F040020792079AD3F8E02042F0080231
:100A5000C3F8E020D3F8E03003F008030893089BC4
:100A6000594E22464021304602F030F9DFF87881B5
:100A700022464FF4A451404602F028F9534F224633
:100A80009021384602F022F94FF6FF79CDF82490F4
:100A900003250A950B9409A94D4801F04BFF4FF42B
:100AA000005309934B4B0A930B9409A9404601F05C
:100AB00041FFCDF824900A950B9409A9464801F00E
:100AC00039FF4FF00209CDF824900A950B9409A93B
:100AD000424801F02FFF40F6773309930A950B94B3
:100AE00009A9404601F026FF43F61C0309930A9525
:100AF0000B9409A93A4801F01DFF48F644330993C5
:100B00000A950B9409A9384601F014FF4DF23F7382
:100B100009930A950B9409A9304601F00BFF4FF693
:100B2000FF4309930A950B9409A92E4801F002FF8F
:100B30004023099301250A950B940C9409A930468A
:100B400001F0F8FE802309930A940B9409A930461A
:100B500001F0F0FE4FF4A45309930A950B940C9402
:100B600009A9404601F0E6FE4FF420530993CDF861
:100B700028900B940C940B230D9309A9304601F097
:100B8000D9FE902309930A950B940C9409A9384631
:100B900001F0D0FE202309930A940B9409A938464A
:100BA00001F0C8FE4FF00061084600F009FD224642
:100BB0002146282001F04CFE282001F08DFE0FB0C8
:100BC000BDE8F0830044025800180258000402589F
:100BD000001002580000111100140258001C0258A5
:100BE00000000258000C025800080258F0B5CDB0C1
:100BF0004C22002139A809F07BFA2022002131A8DB
:100C000009F076FABC22002102A809F071FA02204C
:100C100002F088F8002301932C4B9A6942F4404279
:100C20009A619B6903F440430193294BDA6A42F0CD
:100C30000102DA62DB6A03F001030193019B234B9B
:100C40009B6913F4005FFAD0224A936A23F00303EE
:100C500093620225399501233C9320273D974295C5
:100C600000244394042344933422459246954793A9
:100C700048950C2349934A944B9439A802F086F87E
:100C80003F23319303233293339408233493402634
:100C9000359636964FF4806337933896294631A8B7
:100CA00002F00AFD0C4B02930397812304930595F0
:100CB00006950795089609940A9419941F942A9406
:100CC00002A803F077F94DB0F0BD00BF004802580C
:100CD00000040058004402580210080010B5BFF389
:100CE0004F8FBFF36F8F304B0022C3F85022BFF3FA
:100CF0004F8FBFF36F8F5A6942F400325A61BFF3CE
:100D00004F8FBFF36F8F00F001FCFFF76FFFFFF70E
:100D10003DFE00F055FBFFF7B3FC00F0A1FA00F038
:100D200073F900F047F8214809F0EAF936E0A0B27B
:100D3000FFF752FD012000F029FC0134B4F5805F7B
:100D4000F5DBC82409E041F2C800001B80B2FFF7C0
:100D500043FD012000F01AFC0134B4F5805FF2DBA2
:100D60000120FFF72BFDC82406E0A0B2FFF734FDF9
:100D7000012000F00BFC0134B4F5805FF5DBC824E2
:100D800009E041F2C800001B80B2FFF725FD0120F9
:100D900000F0FCFB0134B4F5805FF2DB0020FFF7CC
:100DA0000DFDC824CAE700BF00ED00E060AF0008F9
:100DB0007047704708B51548154B03604FF4800322
:100DC00043604FF4802383601123C36000230361D9
:100DD00043614FF0806282614FF0C042C2610362A2
:100DE00043628362C3624FF0804242638363C363A2
:100DF000036443648364C36403654365836504F0EB
:100E0000ADFB00B908BDFFF7D3FFFBE78C01002065
:100E10000030014000B589B000230393049305938B
:100E2000069307930268154B9A4202D009B05DF809
:100E300004FB134BD3F8F02042F48052C3F8F020A7
:100E4000D3F8F02002F480520192019AD3F8E02006
:100E500042F00102C3F8E020D3F8E03003F00103D0
:100E60000293029B602303930223049305230793B9
:100E700003A9044801F05EFDD8E700BF003001403F
:100E8000004402580000025882B0074BD3F8F42007
:100E900042F00202C3F8F420D3F8F43003F0020366
:100EA0000193019B02B07047004402587047FEE76F
:100EB000FEE7FEE7FEE770477047704708B500F0B1
:100EC00053FB08BD08B5024804F0EEFE08BD00BFA4
:100ED0001402002008B5024804F0E6FE08BD00BF79
:100EE0001402002008B5024804F0DEFE08BD00BF71
:100EF0005402002008B54FF4005001F005FF08BD72
:100F000070B50D461646002404E0AFF3008028704B
:100F100001340135B442F8DB304670BD70B5164679
:100F2000002405E04D1C087800F0B8FA0134294689
:100F3000B442F7DB304670BD08B503460B4A126871
:100F400042B10A4A106803446A46934206D8074AE7
:100F5000136008BD054A06491160F2E709F09EF8E2
:100F60000C2303604FF0FF30F3E700BF9400002034
:100F7000280300204FF0FF3070474FF400534B60C0
:100F8000002070470120704700207047184AD2F8AF
:100F9000883043F47003C2F88830164B1A6842F068
:100FA00001021A6000221A61186813490140196091
:100FB0009A61DA611A629A62DA621A635A639A6310
:100FC000DA631A645A64196821F4802119601A6678
:100FD0000A4B1A680A4B1340B3F1005F02D2094B67
:100FE00001221A60024B4FF000629A60704700BF06
:100FF00000ED00E0004402587FEDF6EA0010005CCE
:101000000000FFFF0881005100B58DB00023089358
:1010100009930A930B930493059306930793019303
:10102000029303931D484FF0804202607E2242608B
:1010300083604FF6FE72C2600361836104F082FF39
:1010400000BB0CA94FF4805341F8103D134805F044
:1010500063FCD0B90023049305930F230693012367
:10106000079304A90D4806F0DBFB88B950230193D0
:101070000023039301A9094806F066FD58B90DB095
:101080005DF804FBFFF794FEDBE7FFF791FEE1E775
:10109000FFF78EFEEAE7FFF78BFEF0E75402002031
:1010A00070B58AB0002305930693079308930993BC
:1010B0000368424A934204D0B3F1804F36D00AB05D
:1010C00070BD3F4BD3F8F02042F00102C3F8F0208E
:1010D000D3F8F02002F001020092009AD3F8E02049
:1010E00042F00202C3F8E020D3F8E03003F002033C
:1010F0000193019B4FF48053059302230693012330
:10110000099305A92F4801F015FC0022114618206B
:1011100001F09EFB182001F0DFFB002211461A208F
:1011200001F096FB1A2001F0D7FBC8E7244BD3F857
:10113000E82042F00102C3F8E820D3F8E82002F0EA
:1011400001020292029AD3F8E02042F00202C3F8B0
:10115000E020D3F8E02002F002020392039AD3F8D1
:10116000E02042F00102C3F8E020D3F8E03003F0C1
:1011700001030493049B4FF48163059302240694B6
:10118000032608960125099505A90E4801F0D2FB12
:101190004FF400430593069400240794089609959C
:1011A00005A9094801F0C6FB224621461C2001F092
:1011B0004FFB1C2001F090FB81E700BF00000140C5
:1011C00000440258000402580000025870B588B06C
:1011D00000230393049305930693079302681C4B23
:1011E0009A4201D008B070BD1A4BD3F8E02042F00B
:1011F0000202C3F8E020D3F8E02002F002020192DC
:10120000019AD3F8E02042F00102C3F8E020D3F8BD
:10121000E03003F001030293029B46F202030393C2
:1012200002260496032506950124079403A90A487B
:1012300001F080FB4FF4E0630393049600230593D1
:101240000695079403A9054801F074FBCAE700BF9F
:1012500000000140004402580004025800000258F7
:1012600010B59EB0002419941A941B941C941D94DC
:101270001694179418941394149415940C940D9434
:101280000E940F941094119412942C22214601A8CC
:1012900008F02EFF4848494B03604460846040F6E4
:1012A000FF73C36004614461846104F04BFE002855
:1012B00066D1414804F0D8FE002864D10623199372
:1012C00010231A9319A93C4805F040FF00285DD16E
:1012D000002316931793189316A9374806F034FC89
:1012E000002856D10121139114910023159313AABC
:1012F000314806F0D3FD00284ED100220C9240F276
:10130000FF730D930E920F9210924FF4807311930E
:101310004FF4007312930CA9274804F0B3FF002880
:101320003DD140F2FF330D9304220CA9224804F072
:10133000A9FF002836D140F2FF130D9308220CA913
:101340001D4804F09FFF80BB002301930293039389
:1013500004934FF4805205924FF400520692079383
:1013600008934FF0007209920A930B9301A9124857
:1013700006F0A2FCE0B91048FFF728FF1EB010BD30
:10138000FFF716FD95E7FFF713FD97E7FFF710FD51
:101390009EE7FFF70DFDA5E7FFF70AFDADE7FFF7B5
:1013A00007FDBEE7FFF704FDC5E7FFF701FDCBE74B
:1013B000FFF7FEFCDFE700BF140200200000014041
:1013C00008B51748174B03604FF4E133436000231F
:1013D0008360C36003610C2242618361C361036265
:1013E0004362836208F03AFC70B900210C4808F0AF
:1013F0004BFD60B900210A4808F0B6FD50B9084815
:1014000008F0F8FC48B908BDFFF7D2FCEDE7FFF79C
:10141000CFFCEFE7FFF7CCFCF1E7FFF7C9FCF2E701
:10142000940200200048004000B589B000230393D7
:1014300004930593069307930268154B9A4202D0D2
:1014400009B05DF804FB134BD3F8E82042F4802286
:10145000C3F8E820D3F8E82002F480220192019A30
:10146000D3F8E02042F00802C3F8E020D3F8E030DF
:1014700003F008030293029B4FF44073039302238B
:1014800004930723079303A9034801F053FAD7E70E
:101490000048004000440258000C025800B583B0D8
:1014A00002A941F8040D4FF6FF730122034808F02A
:1014B00029FB019803B05DF804FB00BF94020020F3
:1014C000104B1B780BB90120704710B504464FF440
:1014D0007A70B0FBF3F30C4A1068B0FBF3F001F044
:1014E00013FA68B90F2C01D901200AE00022214625
:1014F0004FF0FF3001F0ACF9024B5C60002000E0DF
:10150000012010BD080000200000002010B50320BD
:1015100001F080F901F0DAFF0F498B69C3F303236F
:101520000E4AD35C03F01F03D8400D4B18608B6943
:1015300003F00F03D35C03F01F03D840094B18607E
:101540000020FFF7BDFF10B10124204610BD044666
:10155000FFF79AFCF9E700BF0044025840AF0008CB
:101560000000002004000020034B1B78034A116890
:101570000B441360704700BF080000209C0000204F
:10158000014B1868704700BF9C00002038B5044626
:10159000FFF7F6FF0546B4F1FF3F02D0044B1B787E
:1015A0001C44FFF7EDFF401BA042FAD338BD00BF3B
:1015B00008000020014B1868000C70470010005C08
:1015C00038B504460D4610F0706F06D0064B5968CA
:1015D00021EA04012943596038BD40F246210348FD
:1015E000FFF7E7FBF2E700BF0004005874AF000804
:1015F000F0B583B005460C46002301930368B34958
:10160000B34A8B4218BF934207D0B24A934204D0E8
:1016100040F65321B048FFF7CCFB6368062B18BF98
:101620000C2B2BD0122B29D0182B27D0B3F5807F71
:1016300024D0B3F5837F21D0B3F5867F1ED0B3F5D8
:10164000897F1BD0B3F58C7F18D0B3F5007F15D000
:1016500040F20622934211D0B3F5037F0ED040F240
:10166000122293420AD0B3F5067F07D0B3F5407F2C
:1016700004D040F20632934240F0AF80A368072BBB
:1016800000F2B180E36840F2FF71944A8B4218BFC8
:10169000934240F0AE802369042B18BF002B06D084
:1016A000012B04D0022B02D0032B40F0A88095F828
:1016B0003830012B00F0A98061692A68884B1B68CB
:1016C00003F04053B3F1805F00F0C880D36803F0AB
:1016D0001C031C2B00F0C680D36803F01C035B08BE
:1016E0004FF6FF7222FA03F3994200F2BD8023699C
:1016F000042B04D095F83830012B00F0BB80E26851
:10170000764B9A4200F0BC802368764A012B18BFC2
:10171000934200F0C280744A934200F0BE80734A44
:10172000934200F0BA80724A934200F0B68002F110
:1017300086621032934200F0B0806E4A934200F00D
:10174000AC8002F186624032934200F0A6806A4A81
:10175000934200F0A28002F1866202F58072934209
:1017600000F09B80654A934200F0978002F10422CA
:1017700002F54012934200F0908002F1866202F579
:101780000062934200F089805D4A934200F08580B8
:101790005C4A934200F081805B4A93427DD05B4A71
:1017A00093427AD05A4A934277D05A4A934274D09D
:1017B000594A934271D0594A93426ED0584A934243
:1017C0006BD0584A934268D0574A934265D040F64E
:1017D00069214148FFF7EDFA5FE040F654213E48A9
:1017E000FFF7E7FA4AE740F655213B48FFF7E1FAF1
:1017F00048E740F656213848FFF7DBFA4BE740F65A
:1018000057213548FFF7D5FA51E76169EB6B013392
:10181000B1FBF3F12A68324B1B6803F04053B3F17C
:10182000805F15D0D36803F01C031C2B14D0D36841
:1018300003F01C035B084FF6FF7222FA03F3994290
:101840007FF655AF40F65B212348FFF7B2FA4EE72B
:10185000D36803F01C03EDE71023EBE7D36803F034
:101860001C033CE710233AE740F65F211A48FFF7D4
:10187000A0FA3CE740F664211748FFF79AFA3EE7E2
:101880002A68124B9A4251D02A68114B9A427AD058
:101890002A68104B9A4200F0A88095F85030012B2E
:1018A00000F00B83012385F850302A68966816F003
:1018B000040600F0CD806B6D43F020036B650120C2
:1018C000002385F8503003B0F0BD00BF0020024077
:1018D0000021024000600258A8AF00080000FF4746
:1018E0000010005C02003004040060080800900C46
:1018F0001000C01040002019000180210004002ABF
:10190000002090360040C03A0080F03E00002143A5
:10191000000052470000844B0000B84F000084CB09
:10192000000052C7000021C30000B8CF2368BE49A1
:10193000BE4A8B4218BF9342A6D0BD4A9342A3D061
:10194000BC4A9342A0D002F18662103293429BD0EF
:10195000B94A934298D002F1042202F54012934210
:1019600092D002F1866202F5006293428CD0B34AB3
:10197000934289D0B24A934286D040F66F21B14853
:10198000FFF717FA80E72368A749A84A8B4218BFD8
:1019900093423FF47DAFA64A93423FF479AFA54A04
:1019A00093423FF475AF02F18662103293423FF4E6
:1019B0006FAFA14A93423FF46BAF02F1042202F5EC
:1019C000401293423FF464AF02F1866202F5006276
:1019D00093423FF45DAF9A4A93423FF459AF40F6C9
:1019E00073219848FFF7E5F952E723688E498F4A3B
:1019F0008B4218BF93423FF450AF8D4A93423FF45D
:101A00004CAF8C4A93423FF448AF02F186621032E9
:101A100093423FF442AF884A93423FF43EAF02F113
:101A2000042202F5401293423FF437AF864A9342B4
:101A30003FF433AF854A93423FF42FAF844A934239
:101A40003FF42BAF40F678217E48FFF7B2F924E748
:101A50002368C3F31301002950D1C3F38463012128
:101A60009940D3690B43D3612F6860682168303790
:101A7000030A9B0003F00C03FA5800F01F004FF01C
:101A80001F0C0CFA00FC22EA0C02C1F384618140B5
:101A90000A43FA502B689A6812F0040F37D00122DB
:101AA000996811F0080F34D001210A435AD12768F0
:101AB000A26803F114017B0E9B0003F00403C858D5
:101AC000C7F304574FF0070C0CFA07FC20EA0C0090
:101AD000BA400243CA505F4B1B6803F07043B3F136
:101AE000805F18D02A68D36813F0100F5CD1636947
:101AF000D268C2F382025200934013E093FAA3F338
:101B0000B3FA83F303F01F0301219940A9E70022F0
:101B1000C6E70021C9E763692A68D268C2F3820276
:101B200052009340216904294FD02F682068603704
:101B300057F8212002F0004200F0F840034313431D
:101B400047F82130637E012B36D82B682169627EED
:101B5000012A37D0603353F8212022F00042164387
:101B600043F821602A68936813F0010F40F0A181C7
:101B70002368E068D2F8C010C3F3130621EA060117
:101B800000F018063448F0400340C3F313030B433E
:101B9000C2F8C030E268314B9A4266D02368002B0D
:101BA000C0F2018100208BE66369D268920802F0DE
:101BB000040252009340B5E740F6A5212148FFF703
:101BC000F8F8C2E74FF00046C4E72A68136E03F046
:101BD000F8432168B3EB816F1CD02A68536E03F081
:101BE000F8432168B3EB816F19D02A68936E03F034
:101BF000F8432168B3EB816F32D02A68D36E03F0CB
:101C0000F8432168B3EB816FACD1D36E23F000436E
:101C1000D366A7E7136E23F000431366DDE7536E28
:101C200023F000435366E0E702003004040060083C
:101C30000800900C1000C0100004002A000021438E
:101C40000000844BA8AF0008002090360040C03A46
:101C50000080F03E0010005CFFFF0F000000FF4717
:101C6000936E23F000439366C7E728682368C3F3A5
:101C7000130696BB9A0E013202F01F02092A8CBF8E
:101C800000220122002A52D09EBB990E0131890602
:101C900001F0F841B6BB9A0E013202F01F07012293
:101CA000BA401143C6BB9B0E013303F01F0303EB85
:101CB00043031B050B43A16814305A0E920002F037
:101CC00004028658C3F3045307279F4026EA0706F9
:101CD00001FA03F33343835060E793FAA3F2B2FAB5
:101CE00082F2013202F01F02092A8CBF0022012277
:101CF000C8E793FAA3F1B1FA81F10131890601F045
:101D0000F841C7E793FAA3F2B2FA82F2013202F085
:101D10001F070122BA40C4E793FAA3F3B3FA83F38F
:101D2000013303F01F0303EB43031B05C2E7CEB9E6
:101D3000990E0131890601F0F841E6B99A0E013297
:101D400002F01F070122BA401143F6B99A0E013280
:101D500002F01F0202EB42031E3B1B0543F000731F
:101D60000B43A8E793FAA3F1B1FA81F10131890697
:101D700001F0F841E1E793FAA3F2B2FA82F20132FC
:101D800002F01F070122BA40DEE793FAA3F2B2FA8B
:101D900082F2013202F01F0202EB42031E3B1B05DE
:101DA00043F00073DCE72A6845494648824218BF81
:101DB0008A420CBF0121002121D1434CA06800F0D0
:101DC000E07611B33E49896811F0010F19D0012165
:101DD0003C4FBF6817F0010F15D0012739430CBFE6
:101DE0000121002100295ED038498B4218D03849A2
:101DF0008B4236D037498B4244D0002060E5364CC8
:101E0000DCE70021E4E70027E8E73449896811F0BE
:101E1000010F03D0012181F00101E3E70021FAE77E
:101E200010F4000FE3D12D4B9A4201D0002047E57A
:101E300046F40003A26822F0E0721343A360284B2B
:101E40001B689B09274AA2FB03239B095B000193A4
:101E500002E0019B013B0193019B002BF9D1002083
:101E60002EE510F0807FC5D11C4B9A4201D0002096
:101E700026E546F08073A26822F0E0721343A36067
:101E800000201DE510F4800F15D1144B9A4201D0AB
:101E9000002015E546F48003A26822F0E0721343A7
:101EA000A36000200CE56B6D43F020036B650120FF
:101EB00006E5002004E5002002E5022003E500BF5E
:101EC000002002400021024000230240000084CB99
:101ED000000052C70000B8CF0063025800600258EB
:101EE00000000020632D3E0538B5044603685049C4
:101EF000504A934218BF8B4223D14F4B9B6813F437
:101F0000403F14BF012300234BB301F043FE0546BD
:101F10006368B3F5003F1CD0B3F5403F1DD0B3F567
:101F2000803F16D0FFF746FB41F20303984256D894
:101F3000424B9D424DD92268936843F4807393606D
:101F400038BD3F4B9B6813F4403F14BF012300236F
:101F5000DAE71B0CB5FBF3F5E4E78508E2E74FF49D
:101F6000002003F06FF905466368B3F5C01F16D073
:101F70000BD9B3F5101F28D01DD8B3F5E01F22D020
:101F8000B3F5001FCED14509CCE7B3F5402F06D0FD
:101F90000AD8B3F5802F02D0B3F5002FC2D19B0C25
:101FA0005B00B5FBF3F5BDE7B3F5801FF7D0B3F5E4
:101FB000A01FB7D1F3E7B3F5201F08D0B3F5301F4A
:101FC000B0D1050AAEE70509ACE78509AAE7C5095E
:101FD000A8E72268936823F480739360B0E7194BF5
:101FE0009D420FD9184B2B44184A934210D9184BD5
:101FF0002B44184A934213D92268936843F44073E0
:1020000093609DE72268936823F44073936097E799
:102010002268936823F4407343F4807393608FE7DE
:102020002268936823F4407343F40073936087E756
:10203000002002400021024000230240002D310117
:1020400000630258105E5F00EFA1A0FF0F5E5F000B
:10205000DF4341FF1FBCBE0030B583B000230193B6
:10206000002800F0B48204460368AE49AE4A8B42B1
:1020700018BF934207D0AD4A934204D04FF4D371B6
:10208000AB48FEF796FE6368B3F5803F18BFB3F523
:10209000003F29D0B3F5403F26D02BB3B3F5802FB6
:1020A00022D0B3F5002F1FD0B3F5402F1CD0B3F5CD
:1020B000801F19D0B3F5A01F16D0B3F5C01F13D0E1
:1020C000B3F5E01F10D0B3F5001F0DD0B3F5101F0E
:1020D0000AD0B3F5201F07D0B3F5301F04D040F26B
:1020E000A7119348FEF765FEA3681A1F18BF0122C7
:1020F000002B08BF002232B1082B04D00C2B02D0D9
:10210000102B40F0AC80E368012B00F2AE80637DC1
:10211000012B00F2B080A26AB2F5806318BF0123E0
:10212000002A08BF002333B1B2F5006F03D0B2F527
:10213000406F40F0A680636AB3F5806F18BFB3F5B7
:10214000846F3AD0B3F5886F37D0B3F58C6F34D045
:10215000B3F5906F31D0B3F5946F2ED0B3F5986F7F
:102160002BD0B3F59C6F28D0B3F5A06F25D0B3F575
:10217000A46F22D0B3F5A86F1FD0B3F5AC6F1CD0FD
:10218000B3F5B06F19D0B3F5B46F16D0B3F5B86F1F
:1021900013D0B3F5BC6F10D0B3F5C06F0DD0B3F54D
:1021A000C46F0AD0B3F5C86F07D0B3F5CC6F04D0B5
:1021B000B3F5D06F01D0002B69D1E26A931E18BF2E
:1021C0000123002A08BF00231BB1012A01D0032AE2
:1021D00063D12369042B18BF082B64D1226BB2F59D
:1021E000805318BF0123002A08BF0023002B60D1B1
:1021F000237D012B63D894F83830012B65D8E36830
:102200004BB1A369013B0F2B65D8237F012B68D805
:10221000237F012B6BD0237F012B72D0636D002BAA
:1022200078D023689A6812F0005F03D09968414A19
:102230000A409A6023689A6812F0805F40F08880B4
:1022400099683D4A0A4042F080529A603B4B1B68B5
:102250009B093B4AA2FB03239B09019375E04FF4C2
:10226000D4713348FEF7A5FD4DE740F2A91130487F
:10227000FEF79FFD4BE74FF4D5712D48FEF799FD12
:1022800049E740F2AB112A48FEF793FD53E74FF4BC
:10229000D6712748FEF78DFD8FE740F2AD11244837
:1022A000FEF787FD95E74FF4D7712148FEF781FDD2
:1022B00094E740F2AF111E48FEF77BFD98E74FF41C
:1022C000D8711B48FEF775FD95E740F2B11118482B
:1022D000FEF76FFD93E740F2B5111548FEF769FD73
:1022E00093E74FF4DB711248FEF763FD90E7236A32
:1022F000013B072B8FD94FF4DD710D48FEF759FDD7
:1023000089E7637D012B89D140F2BF110848FEF7B0
:1023100050FD83E72046FEF703FA0023A36584F807
:1023200050307EE700200240002102400060025849
:10233000A8AF0008C0FFFF5FC0FFFF6F00000020D4
:10234000632D3E05019B013B0193019B002BF9D1BD
:1023500023689A6812F0805F40F09E80626D42F0C0
:1023600010026265A26D42F00102A26501259A6821
:1023700012F0040F00F092800121626D12F0100F34
:1023800040F01D81002940F01A81626D22F48172B3
:1023900042F0020262659A6812F0010F21D18D4964
:1023A0008D4A934218BF8B420CBF012300237BD17F
:1023B0008A6812F0010F73D001228749896811F0F1
:1023C000010F6FD001210A430CBF0122002242B14C
:1023D000002B74D0814963688A6822F47C1213430D
:1023E0008B60FFF7E7F841F20303984202D9A36834
:1023F000102B66D0627D236B43EA4233A2681343FD
:10240000227F43EA0243227F012A65D0626A22B119
:1024100002F47872A16A0A4313432168C868704ABB
:1024200002401343CB6023689A6812F0040F58D01F
:1024300001219A6812F0080F55D001220A431BD1DE
:10244000217DE26A42EA8131D868664A02400A4345
:10245000DA6094F83830012B47D02268136923F0F2
:10246000010313612268136923F07043616B0B430E
:1024700013612046FFF738FDE368012B00F09680DA
:102480002268136B23F00F031363636D23F00303C0
:1024900043F00103636597E0002568E700216CE7DE
:1024A00000228AE700218EE74F4A926812F0010F5E
:1024B00003D0012282F0010289E70022FAE74B49AA
:1024C00089E7617D226B42EA41321343227F43EA6E
:1024D000024343F00C0396E7226A013A43EA42437F
:1024E00094E70021A5E70022A8E7E36BB3F5806F2E
:1024F0003ED2236CB3F1200218BF0122002B08BF8B
:10250000002272B1402B0CD0602B0AD0802B08D057
:10251000A02B06D0C02B04D0E02B02D0B3F5807FD7
:102520002CD1626CB2F5007318BF0123002A08BFDA
:1025300000234BBBA36C40F20142012B18BF934216
:1025400028D1636A0BB1A36A0BB9636C43BB2168E2
:102550000A69274B1340E06B226C42EA0042606C30
:102560000243A06C0243134343F001030B6179E77C
:1025700040F279211F48FEF71CFCBAE740F27A21AD
:102580001C48FEF716FCCCE740F27B211948FEF709
:1025900010FCCFE74FF41F711648FEF70AFCD0E796
:1025A00040F282211348FEF704FCD0E721680B6B50
:1025B00023F00F03A269013A13430B6365E7636DD0
:1025C00043F0100363650125284603B030BD0125A3
:1025D000FAE700BF00200240002102400023024031
:1025E00003C0F0FFFCBFFFFF006002580063025809
:1025F0001EF800FCA8AF000830B59BB004460D469D
:1026000002687E4B9A4204D040F667017C48FEF790
:10261000D0FB2B68052B18BF032B05D9062B03D045
:10262000072B01D0092B79D12B6833B36A68B2F537
:10263000004318BF0123002A08BF002313B1B2F5DD
:10264000404F71D1AB68B3F5807218BF0122002BE7
:1026500008BF00228AB1B3F5007F0ED0B3F5407FEA
:102660000BD0B3F5806F08D0B3F5A06F05D0B3F5EC
:10267000E06F02D0B3F5006F5CD194F85030012BBD
:1026800000F0B980012384F8503023685B4A9342FC
:1026900056D000220192019A002A55D0926812F079
:1026A000040F5AD001219A6812F0040F40F095806F
:1026B000002940F092805149524A934218BF8B4200
:1026C0004DD102F500722B68002B59D0936823F48A
:1026D000404369680B4393602368484849498B42EB
:1026E00018BF834241D1836813F0010F39D0012113
:1026F000444B9B6813F0010F35D001230B430CBFF3
:1027000001230023002B72D091683F4B0B402968B6
:10271000A86801430B439360002063E040F6680122
:102720003748FEF746FB7FE740F66B013448FEF77B
:1027300040FB87E740F66C013148FEF73AFB9CE727
:1027400002F580720192A6E7636D43F02003636592
:10275000002384F85030012047E00021A3E72B4AF2
:10276000B1E70021C4E70023C8E7294B9B6813F0B9
:10277000010F03D0012383F00103C3E70023FAE72D
:10278000916821F44041916021681C4D1D488142AF
:1027900018BFA94217D1A96811F0010F11D001206B
:1027A0001849896811F0010F00D0012303430CBFC1
:1027B00001230023EBB19168134B0B409360002081
:1027C00010E01846ECE71249896811F0010F00D0BB
:1027D0000123B3FA83F35B09ECE7636D43F0200355
:1027E00063650120002384F850301BB030BD002009
:1027F000F8E70020F6E70220F7E700BF00200240DC
:10280000E0AF000800210240E0F0FFFF0063025843
:102810000060025810B50446C31E042B0DD8094AA7
:10282000D36823F4E0631B041B0C240204F4E0646B
:102830001C43054B2343D36010BD92210348FEF790
:10284000B8FAECE700ED00E00000FA051CB0000863
:1028500070B505460C4616460F2A21D80F2C24D8F1
:10286000194BDB68C3F30223C3F10702042A28BF14
:102870000422191D06291DD9033B4FF0FF3101FA2F
:1028800002F224EA02049C4001FA03F326EA03065A
:102890003443002D10DB2401E4B20C4B5C5570BDB9
:1028A000AA210B48FEF785FAD8E7AB210848FEF7C6
:1028B00080FAD5E70023E0E705F00F052401E4B234
:1028C000044B5C55EBE700BF00ED00E000E400E0E6
:1028D0001CB0000814ED00E010B5041E0ADB002C4B
:1028E00007DB04F01F02640901239340044A42F805
:1028F000243010BDBE210348FEF75BFAEFE700BFAE
:1029000000E100E01CB000080138B0F1807F0AD27D
:10291000064B5860064AF02182F823100020986088
:1029200007221A6070470120704700BF10E000E0E6
:1029300000ED00E02DE9F04F83B005460C463F4A1C
:102940003F4B904218BF984214BF4FF0010A4FF01E
:10295000000A2BD003F50063C31A18BF012302F548
:102960000062904222D00BB3364BC31A18BF01232A
:1029700002F50062904219D0C3B1334BC31A18BF9D
:10298000012302F50062904210D07BB12F4BC31A95
:1029900018BF012302F50062904207D033B12C4BDF
:1029A000984203D0BB212B48FEF703FA226893B26A
:1029B00013B1294B13401BB1BC212648FEF7F9F98E
:1029C0006368112B18BF012B1CD9022B1AD0122BB4
:1029D00018D0224A934215D002F58012934211D0AA
:1029E00002F5801293420DD0A2F5F812934209D05D
:1029F00002F58012934205D002F58012934201D075
:102A0000032B04D1A368022B06D8002661E0BD2168
:102A10001048FEF7CEF9F5E7BE210E48FEF7C9F9DA
:102A2000F3E7CE210B48FEF7C4F994E0E221094810
:102A3000FEF7BFF9BDE0092313E000BF0000025814
:102A40000004025800140258001C025800240258C6
:102A50000028025858B000080000FFFF00001111C4
:102A600000238B40034302328D4941F822308D4BC5
:102A70001A68FB4303EA0201606810F4803F01D04A
:102A800047EA0201874A1160516803EA010260685F
:102A900010F4003F01D047EA010282494A604FF03A
:102AA000B042126803EA0201606810F4801F01D08E
:102AB00047EA02014FF0B04211605268134061686A
:102AC00011F4001F01D047EA02034FF0B0425360F7
:102AD0000136276837FA06F300F0DF804FF001086F
:102AE00008FA06F818EA0707F2D06368122B18BF35
:102AF000022B40D1BAF1000F29D06B4BEB1A18BF53
:102B000001236A4A954222D00BB3694BEB1A18BFD6
:102B1000012302F50062954219D0C3B1654BEB1A4F
:102B200018BF012302F50062954210D07BB1624BC1
:102B3000EB1A18BF012302F50062954207D033B1AA
:102B40005E4B9D4203D0CD215D48FEF732F92369EB
:102B50000F2B3FF666AFF208083255F8220006F058
:102B6000070399000F238B4020EA030023698B4061
:102B7000034345F822302A684FEA460B4FF0030919
:102B800009FA0BF96FEA090909EA0202636803F01E
:102B9000030303FA0BF313432B6063685A1E112BD4
:102BA00018BF012A01D9122B15D1E368032B3FF678
:102BB0003DAFAA6809EA0202E36803FA0BF3134384
:102BC000AB606B6823EA08086368C3F30013B34083
:102BD00043EA08036B60EB6809EA0309A36803FA98
:102BE0000BF343EA0903EB60636813F0805F3FF483
:102BF0006FAF344BD3F8F42042F00202C3F8F42054
:102C0000D3F8F43003F002030193019BB208911C46
:102C1000234B53F8210006F0030399000F238B4048
:102C200020EA0300284B9D423FF41AAF03F580636E
:102C30009D4222D003F580639D4220D003F580633E
:102C40009D421ED003F580639D421CD003F5806336
:102C50009D421AD003F580639D4218D003F580632E
:102C60009D4216D003F580639D4214D003F5806326
:102C70009D423FF4E0AE0A23F3E60123F1E602238E
:102C8000EFE60323EDE60423EBE60523E9E606235E
:102C9000E7E60723E5E60823E3E603B0BDE8F08FA7
:102CA0000004005880000058000C02580008025828
:102CB00000140258001C0258002402580028025830
:102CC00058B00008004402580000025870B506468B
:102CD00015460C4629B1012D09D875B92404B461F3
:102CE00070BD40F2AD110648FEF763F8F3E74FF40C
:102CF000D7710348FEF75DF8EFE7B461F0E700BF76
:102D000058B000087047000008B5054B9B680342A7
:102D100000D108BD024B9860FFF7F4FFF9E700BF50
:102D20008000005810B50446431E012B0CD8154BEB
:102D3000DB6813F0040F0CD1124BDB6803F00703C0
:102D4000A34206D0012010BDEF210F48FEF731F855
:102D5000EDE70C4BD86820F007002043D860FEF761
:102D60000FFC0446074B5B6813F4005F07D1FEF7C6
:102D700007FC001BB0F57A7FF4D90320E3E70020BD
:102D8000E1E700BF0048025894B00008002800F0B6
:102D90008A8338B50446036813B113F03F0F28D077
:102DA000236813F0010F3DD06268B2F5803318BF7D
:102DB0000123002A08BF002313B1B2F5A02F1ED1B2
:102DC000A84A136903F03803926A102B21D0182BFC
:102DD0001BD06368B3F5803F57D0002B6BD1A14B5C
:102DE0001A6822F480321A601A6822F480221A606B
:102DF00050E04FF4B8719C48FDF7DBFFD0E740F29C
:102E000075119948FDF7D5FFDAE702F00302022AAF
:102E1000DFD1944B1B6813F4003F03D06368002B91
:102E200000F04383236813F0020F00F0A680E368EC
:102E3000092B18BF012B03D9112B01D0192B60D1FD
:102E400023697F2B63D8874A1369926A13F038038A
:102E500066D0182B61D0E368002B00F0E380814935
:102E60000A6822F0190213430B60FEF789FB05463E
:102E70007C4B1B6813F0040F40F0BC80FEF780FB16
:102E8000401B0228F4D9032068E0764A136843F413
:102E90008033136063682BB3FEF772FB0546714BFA
:102EA0001B6813F4003FBDD1FEF76AFB401B64288A
:102EB000F5D9032052E0B3F5A02F09D0694B1A6869
:102EC00022F480321A601A6822F480221A60E1E744
:102ED000644B1A6842F480221A601A6842F4803205
:102EE0001A60D7E7FEF74CFB05465E4B1B6813F4F0
:102EF000003F97D0FEF744FB401B6428F5D9032020
:102F00002CE040F2A9115848FDF753FF98E74FF421
:102F1000D5715548FDF74DFF95E712F0030F9AD193
:102F2000504B1B6813F0040F03D0E368002B00F034
:102F3000BE824C4A136823F01903E1680B43136007
:102F4000FEF71EFB0546474B1B6813F0040F06D126
:102F5000FEF716FB401B0228F5D9032038BDFEF70B
:102F600029FB41F2030398423BD83E4A536823F4BD
:102F70007C33216943EA01335360236813F0100F57
:102F800000F09080E269B2F1800318BF0123002AAB
:102F900008BF0023002B59D1236A1F2B5CD8314A6C
:102FA000136903F03803926A082B63D0182B5DD0A5
:102FB000E369002B00F0B5802A4A136843F08003D0
:102FC0001360FEF7DDFA0546264B1B6813F4807F7D
:102FD00040F08F80FEF7D4FA401B0228F4D903207A
:102FE000BCE7204A536823F0FE43216943EA0163AA
:102FF0005360C2E7FEF7DEFA41F20303984208D8B5
:10300000184A536823F47C33216943EA013353603F
:10301000B3E7144A536823F0FE43216943EA01638E
:103020005360AAE70F4A136823F001031360FEF709
:10303000A7FA05460B4B1B6813F0040F9DD0FEF753
:103040009FFA401B0228F5D9032087E74FF4FD7152
:103050000548FDF7AEFE9FE740F2FB110248FDF781
:10306000A8FE9CE700440258D0B0000802F003021A
:10307000012A9DD1954B1B6813F4807F04D0E3692E
:10308000802B01D0012069E7FEF794FA41F2030397
:10309000984225D88D4A536823F0F843216A43EAC1
:1030A00081635360236813F0080F68D06369012BB4
:1030B0004BD86369002B4ED0844A536F43F0010311
:1030C0005367FEF75DFA0546804B5B6F13F0020F06
:1030D00055D1FEF755FA401B0228F5D903203DE7EC
:1030E0007A4AD36823F07C53216A43EA0163D360B0
:1030F000D8E7FEF75FFA41F20303984208D8734A13
:10310000536823F0F843216A43EA81635360C9E7B7
:103110006E4AD36823F07C53216A43EA0163D3608B
:10312000C0E76A4A136823F080031360FEF728FAA9
:103130000546664B1B6813F4807FB3D0FEF720FA78
:10314000401B0228F5D9032008E74FF40F716048AF
:10315000FDF72FFEADE75D4A536F23F00103536780
:10316000FEF70EFA0546594B5B6F13F0020F06D0BF
:10317000FEF706FA401B0228F5D90320EEE6236885
:1031800013F0200F32D0A369012B15D8A369CBB15E
:103190004E4A136843F480531360FEF7F1F9054675
:1031A0004A4B1B6813F4005F20D1FEF7E9F9401B7E
:1031B0000228F5D90320D1E640F267214448FDF703
:1031C000F8FDE3E7414A136823F480531360FEF7E8
:1031D000D7F905463D4B1B6813F4005F06D0FEF798
:1031E000CFF9401B0228F5D90320B7E6236813F076
:1031F000040F71D0A368052B18BF012B13D8354AD3
:10320000136843F480731360FEF7BAF90546314B37
:103210001B6813F4807F0CD1FEF7B2F9401B6428C1
:10322000F5D903209AE640F291212948FDF7C1FD26
:10323000E5E7A368012B0AD00BBB244B1A6F22F0E1
:1032400001021A671A6F22F004021A6704E01F4A8B
:10325000136F43F001031367A36833B3FEF790F9CC
:1032600005461A4B1B6F13F0020F35D1FEF788F994
:10327000401B41F288339842F3D903206EE6052BB8
:1032800009D0124B1A6F22F001021A671A6F22F04E
:1032900004021A67E0E70D4B1A6F42F004021A6746
:1032A0001A6F42F001021A67D6E7FEF769F9054680
:1032B000064B1B6F13F0020F0ED0FEF761F9401B97
:1032C00041F288339842F3D9032047E6004402587C
:1032D000D0B0000800480258636A022B41D8636AE4
:1032E000002B00F0E680754A126902F03802182AB5
:1032F00000F0E180022B40F0C080A36A032B18BFCE
:10330000012B01D9022B32D1E36A013B3E2B34D889
:10331000236B043BB3F5FE7F35D8636B013B7F2BFA
:1033200037D8A36B013B7F2B39D8E36B013B7F2B55
:103330003BD8A36CB3F5005F3DD2604A136823F01D
:1033400080731360FEF71CF905465C4B1B6813F095
:10335000007F36D0FEF714F9401B0228F5D9032070
:10336000FCE540F2C3215648FDF723FDB7E74FF4D3
:1033700033715348FDF71DFDC6E740F2CD2150489B
:10338000FDF717FDC4E740F2CE214D48FDF711FDD2
:10339000C3E740F2CF214A48FDF70BFDC1E74FF4E8
:1033A00034714748FDF705FDBFE740F2D12144489D
:1033B000FDF7FFFCBDE740F2D2214148FDF7F9FCE3
:1033C000BBE73E4B996A3F4A0A40A16AE06A41EA7C
:1033D00000110A439A62226B013AC2F30802616B40
:1033E0000139490289B20A43A16B0139090401F488
:1033F000FE010A43E16B0139090601F0FE410A436F
:103400001A63DA6A22F00102DA62596B2E4A0A4024
:10341000A16C42EAC1025A63DA6A22F00C02216C02
:103420000A43DA62DA6A22F00202616C0A43DA6263
:10343000DA6A42F48032DA62DA6A42F40032DA623C
:10344000DA6A42F48022DA62DA6A42F00102DA626F
:103450001A6842F080721A60FEF792F80446174B21
:103460001B6813F0007F06D1FEF78AF8001B0228C4
:10347000F5D9032072E5002070E5104A136823F0A7
:1034800080731360FEF77CF804460C4B1B6813F046
:10349000007F06D0FEF774F8001B0228F5D9032040
:1034A0005CE500205AE501207047012056E5012027
:1034B00054E5002052E5012050E500BF00440258C9
:1034C000D0B000080CFCFFFF0700FFFF724B1B6928
:1034D00003F03803102B00F0DB80182B10D00BB159
:1034E0006E4870476C4B1B6813F0200F00F0D280C1
:1034F000694B1868C0F3C100694B23FA00F07047AC
:10350000654A916A01F00301906AC0F30510D36A1D
:1035100003F00103526BC2F3CC0203FB02F307EE8C
:10352000903AF8EE677A002800F0B580012966D05D
:10353000F9B1022900F08F8007EE100AF8EE476A11
:103540009FED586A86EE267A534B1B6BC3F3080334
:1035500006EE903AF8EE666A9FED536A67EE867A59
:1035600076EEA77AF7EE006A77EEA67A27EE277A4C
:1035700061E0494B1B6813F0200F23D046490A68CD
:10358000C2F3C102464BD34007EE103AF8EE476A49
:1035900007EE100AB8EE476A86EE867A0B6BC3F325
:1035A000080306EE903AF8EE666A9FED3F6A67EE12
:1035B000867A76EEA77AF7EE006A77EEA67A27EE9D
:1035C000277A38E007EE100AF8EE476A9FED376A6F
:1035D00086EE267A304B1B6BC3F3080306EE903A57
:1035E000F8EE666A9FED306A67EE867A76EEA77A25
:1035F000F7EE006A77EEA67A27EE277A1BE007EE51
:10360000100AF8EE476A9FED276A86EE267A224B6B
:103610001B6BC3F3080306EE903AF8EE666A9FED63
:10362000226A67EE867A76EEA77AF7EE006A77EE80
:10363000A67A27EE277A184B1B6BC3F34623013378
:1036400007EE903AF8EE677AC7EE276AFCEEE67A64
:1036500017EE900A704707EE100AF8EE476A9FEDE2
:10366000146A86EE267A0C4B1B6BC3F3080306EE36
:10367000903AF8EE666A9FED0C6A67EE867A76EE0F
:10368000A77AF7EE006A77EEA67A27EE277AD2E7D6
:1036900008487047024870470044025800093D003E
:1036A0000090D0030024744A000000390024744CB8
:1036B0000024F44A00127A00002800F05C8270B501
:1036C00004460D460368013B3E2B14D80F2D18D835
:1036D000A84B1B6803F00F03AB4218D2A54A13682E
:1036E00023F00F032B431360136803F00F03AB4267
:1036F0000DD0012070BD40F252319F48FDF759FBBB
:10370000E4E740F253319C48FDF753FBE0E72368C0
:1037100013F0040F1CD02269984B9B6903F07003CF
:103720009A4215D9B2F1400318BF0123002A08BFFD
:10373000002333B1502A04D0602A02D0702A40F00E
:10374000CF808E4A936923F0700321690B43936104
:10375000236813F0080F1CD06269884BDB6903F003
:1037600070039A4215D9B2F1400318BF0123002A11
:1037700008BF002333B1502A04D0602A02D0702A37
:1037800040F0B4807D4AD36923F0700361690B4334
:10379000D361236813F0100F1FD0A269774BDB6948
:1037A00003F4E0639A4218D9B2F5806318BF01238D
:1037B000002A08BF00234BB1B2F5A06F06D0B2F5C6
:1037C000C06F03D0B2F5E06F40F096806B4AD369CA
:1037D00023F4E063A1690B43D361236813F0200F46
:1037E0001BD0E269654B1B6A03F070039A4214D93F
:1037F000B2F1400318BF0123002A08BF00232BB1F8
:10380000502A03D0602A01D0702A7BD15B4A136A08
:1038100023F07003E1690B431362236813F0020F76
:1038200023D0E268554B9B6903F00F039A421CD9E1
:10383000B2F1080318BF0123002A08BF00236BB1AF
:10384000092A0BD00A2A09D00B2A07D00C2A05D046
:103850000D2A03D00E2A01D00F2A59D1474A936965
:1038600023F00F03E1680B439361236813F0010F0A
:1038700000F09480A368B3F5006218BF0122002B0A
:1038800008BF0022A2B1B3F5106F11D0B3F5206FBD
:103890000ED0B3F5306F0BD0B3F5406F08D0B3F551
:1038A000506F05D0B3F5606F02D0B3F5706F35D1AE
:1038B0006368032B38D8314A936923F47063A16895
:1038C0000B4393616368022B34D0032B58D0012B38
:1038D0005DD02A4A126812F0040F30D1012009E7A6
:1038E00040F26E312448FDF764FA2AE74FF45E7126
:1038F0002148FDF75EFA45E740F282311E48FDF7A8
:1039000058FA63E74FF463711B48FDF752FA7DE7FD
:1039100040F297311848FDF74CFA9FE740F29F318B
:103920001548FDF746FAC3E74FF468711248FDF7F2
:1039300040FAC0E7126812F4003F00F01E810F4900
:103940000A6922F0070213430B61FDF719FE0646D0
:103950000A4B1B6903F038036268B3EBC20F1DD03A
:10396000FDF70EFE801B41F288339842F0D9032008
:10397000C0E600BF00200052D0B00008004402584A
:103980007F4A126812F0007FD9D10120B2E67C4A4A
:10399000126812F4807FD2D10120ABE6236813F0C5
:1039A000020F23D0E268764B9B6903F00F039A4223
:1039B0001CD2B2F1080318BF0123002A08BF00235C
:1039C0006BB1092A0BD00A2A09D00B2A07D00C2A7E
:1039D00005D00D2A03D00E2A01D00F2A19D1684A2A
:1039E000936923F00F03E1680B439361654B1B68F8
:1039F00003F00F03AB4212D9624A136823F00F039E
:103A00002B431360136803F00F03AB4207D0012070
:103A100070E64FF477715C48FDF7CBF9DFE7236878
:103A200013F0040F1BD02269554B9B6903F0700300
:103A30009A4214D2B2F1400318BF0123002A08BFF2
:103A400000232BB1502A03D0602A01D0702A7AD1EA
:103A50004B4A936923F0700321690B4393612368F8
:103A600013F0080F1BD06269454BDB6903F070034C
:103A70009A4214D2B2F1400318BF0123002A08BFB2
:103A800000232BB1502A03D0602A01D0702A60D1C4
:103A90003B4AD36923F0700361690B43D361236808
:103AA00013F0100F1ED0A269354BDB6903F4E063FD
:103AB0009A4217D2B2F5806318BF0123002A08BFCB
:103AC000002343B1B2F5A06F05D0B2F5C06F02D0AC
:103AD000B2F5E06F43D12A4AD36923F4E063A169C8
:103AE0000B43D361236813F0200F1BD0E269244BF2
:103AF0001B6A03F070039A4214D2B2F1400318BF5C
:103B00000123002A08BF00232BB1502A03D0602ACA
:103B100001D0702A29D11A4A136A23F07003E1698F
:103B20000B431362FFF7D2FC154B9B69C3F30323CE
:103B3000164AD35C03F01F03D840154B18600020D1
:103B4000FDF7BEFCD6E54FF47D710F48FDF731F966
:103B50007EE740F2FE310C48FDF72BF998E74FF471
:103B600081610948FDF725F9B5E740F212410648A1
:103B7000FDF71FF9CFE7012070470120BAE500BF2C
:103B80000044025800200052D0B0000840AF0008A6
:103B90000000002008B501F0C3FC064B9B6903F050
:103BA0000F03054AD35C03F01F03D840034B186092
:103BB00008BD00BF0044025840AF000804000020C8
:103BC00008B5FFF7E7FF054BDB69C3F30213044AAF
:103BD000D35C03F01F03D84008BD00BF0044025867
:103BE00040AF000808B5FFF7D5FF054BDB69C3F30D
:103BF0000223044AD35C03F01F03D84008BD00BF72
:103C00000044025840AF000870B504460D460368F2
:103C1000013B3E2B46D86368043BB3F5FE7F47D893
:103C2000A368013B7F2B49D82369013B7F2B4BD8ED
:103C3000E368013B7F2B4DD86269B2F1400318BFA6
:103C40000123002A08BF00231BB1802A01D0C02A0B
:103C500046D1A269B2F1200318BF0123002A08BF90
:103C60000023002B42D1E369B3F5005F44D2584BE7
:103C70009B6A03F00303032B00F0A780544A1368E8
:103C800023F080631360FDF77BFC0646504B1B68F6
:103C900013F0006F36D0FDF773FC801B0228F5D9B6
:103CA000032093E040F66B214A48FDF782F8B2E723
:103CB00040F66C214748FDF77CF8B1E740F66D21EE
:103CC0004448FDF776F8AFE740F66E214148FDF72E
:103CD00070F8ADE740F66F213E48FDF76AF8ABE7B4
:103CE0004FF427613B48FDF764F8B2E740F67121D5
:103CF0003848FDF75EF8B6E740F672213548FDF723
:103D000058F8B4E7324B9A6A22F47C32216842EACE
:103D100001329A626268013AC2F30802A16801396D
:103D2000490289B20A43E1680139090401F4FE013C
:103D30000A4321690139090601F0FE410A439A63E9
:103D4000DA6A22F0C00261690A43DA62DA6A22F0B2
:103D50002002A1690A43DA62DA6A22F01002DA620A
:103D6000D96B1D4A0A40E16942EAC102DA63DA6AA4
:103D700042F01002DA62C5B91A46DB6A43F4002346
:103D8000D362134A136843F080631360FDF7F8FBB6
:103D900004460F4B1B6813F0006F14D1FDF7F0FBC6
:103DA000001B0228F5D9032010E0012D05D0084A98
:103DB000D36A43F40013D362E3E7054AD36A43F4BA
:103DC0008013D362DDE7002000E0012070BD00BF5A
:103DD0000044025808B100080700FFFF70B5044610
:103DE0000D460368013B3E2B48D86368043BB3F59E
:103DF000FE7F49D8A368013B7F2B4BD82369013B49
:103E00007F2B4DD8E368013B7F2B4FD86269B2F519
:103E1000806318BF0123002A08BF00232BB1B2F52D
:103E2000006F02D0B2F5406F46D1A269B2F50073BF
:103E300018BF0123002A08BF0023002B42D1E369E9
:103E4000B3F5005F44D2584B9B6A03F00303032B86
:103E500000F0A780544A136823F080531360FDF7E5
:103E60008FFB0646504B1B6813F0005F36D0FDF702
:103E700087FB801B0228F5D9032093E040F6D3216D
:103E80004A48FCF796FFB0E740F6D4214748FCF7D4
:103E900090FFAFE740F6D5214448FCF78AFFADE735
:103EA00040F6D6214148FCF784FFABE740F6D72126
:103EB0003E48FCF77EFFA9E740F6D8213B48FCF7D7
:103EC00078FFB2E740F6D9213848FCF772FFB6E731
:103ED00040F6DA213548FCF76CFFB4E7324B9A6ABA
:103EE00022F07C72216842EA01529A626268013AC9
:103EF000C2F30802A1680139490289B20A43E168A4
:103F00000139090401F4FE010A4321690139090656
:103F100001F0FE410A431A64DA6A22F440626169E0
:103F20000A43DA62DA6A22F40072A1690A43DA62A9
:103F3000DA6A22F48072DA62596C1D4A0A40E16939
:103F400042EAC1025A64DA6A42F48072DA62C5B99E
:103F50001A46DB6A43F48003D362134A136843F0C2
:103F600080531360FDF70CFB04460F4B1B6813F0E6
:103F7000005F14D1FDF704FB001B0228F5D90320D4
:103F800010E0012D05D0084AD36A43F08073D36254
:103F9000E3E7054AD36A43F40003D362DDE7002078
:103FA00000E0012070BD00BF0044025808B10008C5
:103FB0000700FFFFF8B50446036813F0006F2BD02D
:103FC000436EB3F5801F18D007D9B3F5001F1DD07D
:103FD000B3F5401F2ED1002506E05BBB934AD36AA0
:103FE00043F40033D3620025904A136D23F4401349
:103FF000616E0B431365002610E002210430FFF7C9
:1040000003FE0546002DEFD02E4607E002212430A6
:10401000FFF7E4FE0546F5E700263546236813F46E
:10402000807F17D0636D042B32D8DFE803F00624BD
:104030002A0B0B0001263546F0E77C4AD36A43F48D
:104040000033D3623DBB794A136D23F00703616DE2
:104050000B431365236813F4007F33D0A36D802BCB
:1040600044D01AD80BB3402B1CD10021201DFFF7E0
:10407000CBFD05461EE00021201DFFF7C5FD0546CE
:10408000E0E7002104F12400FFF7A8FE0546D9E788
:1040900001263546DEE72E46DCE7C02B0AD0B3F515
:1040A000807F07D0012635460CE0604AD36A43F48E
:1040B0000033D3620DBB5D4A136D23F4E073A16D31
:1040C0000B431365236813F4806F2FD0D4F8A4300A
:1040D000B3F5800F3ED012D8D3B1B3F5001F14D181
:1040E0000021201DFFF790FD054616E0002104F198
:1040F0002400FFF773FE0546DCE72E46E2E7B3F542
:10410000C00F0AD0B3F5000F07D0012635460DE0E9
:10411000464AD36A43F40033D36215BB434A936DD6
:1041200023F46003D4F8A4100B439365236813F4BD
:10413000006F2FD0D4F8A830B3F1007F37D012D859
:10414000D3B1B3F1807F14D10021201DFFF75CFDB6
:10415000054616E0002104F12400FFF73FFE054666
:10416000DBE72E46E2E7B3F1407F0AD0B3F1806F80
:1041700007D0012635460DE02C4AD36A43F40033BC
:10418000D362DDB9294A936D23F0E063D4F8A81017
:104190000B439365236813F0007F2AD0A36C102B88
:1041A00012D00DD9202B1DD0302B12D009E00021C8
:1041B00004F12400FFF712FE0546E2E72E46E9E788
:1041C0003BB10126354614E0184AD36A43F4003364
:1041D000D3626DB9154AD36C23F03003A16C0B4345
:1041E000D36406E00221201DFFF70EFD0546F0E72F
:1041F0002E46236813F4805F27D0E36DB3F5005F8C
:104200003ED009D8A3B1B3F5805F0BD10021201DAA
:10421000FFF7FAFC054610E0B3F5405F0DD0B3F5AB
:10422000804F0AD0012635460FE000BF00440258F7
:104230005D4AD36A43F40033D36245BB5A4A136DD7
:1042400023F4E043E16D0B431365236813F4005F2F
:1042500033D0236EB3F5003F27D01AD83BB1B3F566
:10426000803F1FD10121201DFFF7CEFC05461DBB5D
:104270004D4A136D23F4E023216E0B4313651CE0BC
:10428000002104F12400FFF7A9FD0546D5E72E46DD
:10429000DBE7B3F5802FEAD0B3F5A02FE7D0B3F575
:1042A000403FE4D00126354607E0012104F1240017
:1042B000FFF794FD0546DAE72E46236813F4804F96
:1042C0002CD0D4F8AC30B3F1005F1FD012D83BB182
:1042D000B3F1805F17D10121201DFFF795FC054642
:1042E000DDB9314A936D23F0E043D4F8AC100B43B1
:1042F000936513E0B3F1804FF2D0B3F1A04FEFD04C
:10430000B3F1405FECD00126354607E0012104F10E
:104310002400FFF763FD0546E2E72E46236813F409
:10432000004F1FD0E36EB3F1805F06D0B3F1005FA2
:1043300011D03BB10126354614E01B4AD36A43F441
:104340000033D3626DB9184A136D23F04053E16E08
:104350000B43136506E00121201DFFF755FC0546C0
:10436000F0E72E46236813F0807F20D0636C032B88
:1043700017D8DFE803F0070210070B4AD36A43F4AB
:104380000033D36295B9084AD36C23F00303616C00
:104390000B43D3640BE00221201DFFF735FC0546DB
:1043A000F0E70126354602E0004402582E46236815
:1043B00013F4800F00F07881D4F8B030B3F5807F2B
:1043C00018BFB3F5007F00F00D81B3F50C5F00F06E
:1043D0000981B3F54C5F00F00581B3F5864F00F01D
:1043E0000181B3F5A64F00F0FD80B3F5C64F00F094
:1043F000F980B3F5E64F00F0F580B3F5034F00F018
:10440000F180B3F5134F00F0ED80B3F5234F00F0CA
:10441000E980B3F5334F00F0E580B3F5434F00F08A
:10442000E180B3F5534F00F0DD80B3F5634F00F04A
:10443000D980B3F5734F00F0D580B24A934200F0B3
:10444000D18002F58052934200F0CC8002F5805278
:10445000934200F0C78002F58052934200F0C28080
:1044600002F58052934200F0BD8002F580529342E3
:1044700000F0B88002F58052934200F0B38002F55C
:104480008052934200F0AE8002F58052934200F0D9
:10449000A98002F58052934200F0A48002F5805278
:1044A000934200F09F8002F58052934200F09A8080
:1044B00002F58052934200F0958002F580529342BB
:1044C00000F0908002F58052934200F08B8002F55C
:1044D0008052934200F0868002F58052934200F0B1
:1044E000818002F5805293427CD002F58052934243
:1044F00078D002F58052934274D002F580529342F4
:1045000070D002F5805293426CD002F580529342F3
:1045100068D002F58052934264D002F580529342F3
:1045200060D002F5805293425CD002F580529342F3
:1045300058D002F58052934254D002F580529342F3
:1045400050D002F5805293424CD002F580529342F3
:1045500048D002F58052934244D002F580529342F3
:1045600040D002F5805293423CD002F580529342F3
:1045700038D002F58052934234D002F580529342F3
:1045800030D002F5805293422CD002F580529342F3
:1045900028D002F58052934224D002F580529342F3
:1045A00020D002F5805293421CD002F580529342F3
:1045B00018D002F58052934214D002F580529342F3
:1045C00010D002F5805293420CD002F580529342F3
:1045D00008D002F58052934204D04FF42F714A481C
:1045E000FCF7E7FB494A136843F480731360FCF758
:1045F000C7FF0746454B1B6813F4807F05D1FCF7C6
:10460000BFFFC01B6428F5D90325002D4BD1404BBB
:104610001B6FD4F8B020534013F4407F0CD03C4BB8
:104620001A6F22F44072196F41F480311967196FC3
:1046300021F4803119671A67D4F8B030B3F5807F60
:1046400016D0002D4ED1D4F8B03003F44072B2F53C
:10465000407F1ED02E4A136923F47C5313612C49EA
:104660000B6FD4F8B020C2F30B0213430B671BE0AF
:10467000FCF786FF0746264B1B6F13F0020FE0D1B5
:10468000FCF77EFFC01B41F288339842F3D9032523
:10469000D7E71F48026922F47C521E4901EA13132E
:1046A00013430361DBE72E46236813F0010F3ED06E
:1046B000A36F282B37D8DFE803F01C3636363636A2
:1046C000363617363636363636362F3636363636B0
:1046D00036361C363636363636361C3636363636AE
:1046E00036361C002E46DFE70121201DFFF78CFA2D
:1046F0000546DDB9064A536D23F03803A16F0B431D
:10470000536514E00003010008B100080048025896
:1047100000440258CFFFFF00012104F12400FFF7FD
:104720005DFB0546E5E70126354600E02E46236899
:1047300013F0020F20D0636F052B19D8DFE803F0C8
:104740000803110808080121201DFFF75DFA05463E
:104750008DB9AD4A536D23F00703616F0B43536569
:104760000AE0012104F12400FFF738FB0546EFE7DA
:104770000126354600E02E46236813F0040F22D0B0
:10478000D4F89030052B1AD8DFE803F0080312089C
:1047900008080121201DFFF737FA054695B99A4A06
:1047A000936D23F00703D4F890100B4393650AE050
:1047B000012104F12400FFF711FB0546EEE7012675
:1047C000354600E02E46236813F0200F2CD0D4F895
:1047D0008C30B3F1005F1FD012D83BB1B3F1805FD2
:1047E00017D10021201DFFF70FFA0546DDB9864AD3
:1047F000536D23F0E043D4F88C100B43536513E062
:10480000B3F1804FF2D0B3F1A04FEFD0B3F1405FDE
:10481000ECD00126354607E0022104F12400FFF721
:10482000DDFA0546E2E72E46236813F0400F2CD050
:10483000D4F89830B3F5006F1FD012D83BB1B3F560
:10484000806F17D10021201DFFF7DEF90546DDB985
:104850006D4A936D23F4E053D4F898100B4393659D
:1048600013E0B3F5805FF2D0B3F5A05FEFD0B3F5FE
:10487000406FECD00126354607E0022104F1240008
:10488000FFF7ACFA0546E2E72E46236813F0800FE7
:104890002CD0D4F89C30B3F5804F1FD012D83BB148
:1048A000B3F5005F17D10021201DFFF7ADF90546D4
:1048B000DDB9554A936D23F46043D4F89C100B4343
:1048C000936513E0B3F5004FF2D0B3F5204FEFD06E
:1048D000B3F5C04FECD00126354607E0022104F1C4
:1048E0002400FFF77BFA0546E2E72E46236813F023
:1048F000080F16D0D4F88030B3F5805F18BFB3F539
:10490000005F03D013B1B3F5405F35D1D4F88030E8
:10491000B3F5805F36D03C494A6D22F440521343D0
:104920004B65236813F0100F16D0D4F89430B3F50C
:10493000807F18BFB3F5007F03D013B1B3F5405F9C
:1049400029D1D4F89430B3F5807F2AD02E498A6DCE
:1049500022F4407213438B65236813F4002F40D078
:10496000D4F8A030B3F5803F33D0B3F5003F26D064
:1049700003B30126354634E040F23A412348FCF7C0
:1049800018FAC3E7022104F12400FFF727FA0028F0
:10499000C7D00126C5E740F24F411C48FCF709FA91
:1049A000CFE7022104F12400FFF718FA0028D3D042
:1049B0000126D1E70021201DFFF726F905467DB924
:1049C000114A936D23F44033D4F8A0100B43936540
:1049D00007E0022104F12400FFF700FA0546EEE7A4
:1049E0002E46236813F4802F29D0D4F88430B3F5F1
:1049F000001F1CD0B3F5401F0FD0B3F5801F07D0A8
:104A0000012635461BE000BF0044025808B10008EB
:104A1000844AD36A43F40033D3627DB9814A536D2B
:104A200023F44013D4F884100B43536507E00121AD
:104A300004F12400FFF7D2F90546EEE72E4623687D
:104A400013F4803F23D0E26CB2F5803318BF01230A
:104A5000002A08BF00233BB9E36C5BB1B3F5803F8C
:104A600029D00126354612E040F2B7416E48FCF7E6
:104A7000A0F9F1E76B4AD36A43F40033D36205BB74
:104A8000684AD36C23F48033E16C0B43D36423680E
:104A900013F0005F17D1236813F4003F2DD0E36FAC
:104AA000B3F5807F1BD017D9B3F5007F1CD0B3F5C9
:104AB000407F12D118E00221201DFFF7A5F805461E
:104AC000DDE72E46E3E7022104F12400FFF786F933
:104AD0000028E0D00126DEE733B101260DE0514A7F
:104AE000D36A43F40033D362002D66D14D4A536D2F
:104AF00023F44073E16F0B435365236813F4801F65
:104B000010D0226F12F1004318BF0123002A08BF02
:104B10000023002B53D1434A136D23F00043216F30
:104B20000B431365236813F0805F12D0D4F8B420D0
:104B3000B2F5804318BF0123002A08BF0023002BD1
:104B400043D1384A136923F48043D4F8B4100B439B
:104B50001361236813F4001F10D0A26E12F17F437B
:104B600018BF0123002A08BF0023002B33D12D4A90
:104B7000136D23F08073A16E0B431365236813F04C
:104B8000804F13D0D4F8B820B2F5004318BF0123EA
:104B9000002A08BF002323BB224B1A6922F40042DB
:104BA0001A611A69D4F8B8100A431A612368002BF5
:104BB0001DDB06B101263046F8BD2E469DE740F2CA
:104BC00016511948FCF7F5F8A5E74FF4A46116480B
:104BD000FCF7EFF8B5E740F22A511348FCF7E9F883
:104BE000C5E740F234511048FCF7E3F8D4E7226DF2
:104BF00012F1704318BF0123002A08BF002313B12C
:104C0000B2F1005F07D1074AD36C23F04053216D06
:104C10000B43D364CDE740F23E510348FCF7C9F89B
:104C2000F1E700BF0044025808B1000808B5FEF7DC
:104C3000B1FF054B1B6AC3F30213044AD35C03F0B4
:104C40001F03D84008BD00BF0044025840AF000811
:104C500010B478498C6A8A6AC2F30532CB6A03F0D1
:104C60001003C96BC1F3CC0103FB01F3002A00F070
:104C7000DB8004F0030407EE903AF8EE677A012C2B
:104C800066D0FCB1022C00F0B28007EE102AB8EE1C
:104C9000477A9FED696AC6EE076A664B9B6BC3F362
:104CA000080307EE103AB8EE477A9FED646A67EEA4
:104CB000867A77EE277AB7EE007A77EE877A66EE15
:104CC000A76A61E05B4B1B6813F0200F23D0594C9F
:104CD0002168C1F3C1015A4BCB4007EE103AB8EE40
:104CE000477A06EE902AB8EE666AC7EE066AA36BAC
:104CF000C3F3080307EE103AB8EE477A9FED4F6A08
:104D000067EE867A77EE277AB7EE007A77EE877AC3
:104D100066EEA76A38E007EE102AB8EE477A9FEDF4
:104D2000496AC6EE076A434B9B6BC3F3080307EE61
:104D3000103AB8EE477A9FED416A67EE867A77EED1
:104D4000277AB7EE007A77EE877A66EEA76A1BE0DD
:104D500007EE102AB8EE477A9FED376AC6EE076A6B
:104D6000344B9B6BC3F3080307EE103AB8EE477A57
:104D70009FED326A67EE867A77EE277AB7EE007A91
:104D800077EE877A66EEA76A2A4A936BC3F34623C7
:104D900007EE103AB8EE477AB7EE006A37EE067AB9
:104DA000C6EE877AFCEEE77AC0ED007A936BC3F328
:104DB000064307EE103AB8EE477A37EE067AC6EEAB
:104DC000877AFCEEE77AC0ED017A936BC3F3066352
:104DD00007EE903AF8EE677A77EE867A86EEA77A53
:104DE000BCEEC77A80ED027A5DF8044B704707EE9F
:104DF000102AB8EE477A9FED146AC6EE076A0D4B8B
:104E00009B6BC3F3080307EE103AB8EE477A9FEDA9
:104E10000B6A67EE867A77EE277AB7EE007A77EE3E
:104E2000877A66EEA76AAFE700230360436083607A
:104E3000DAE700BF004402580024744A0000003939
:104E40000090D0030024744C0024F44A10B4784934
:104E50008C6A8A6AC2F30552CB6A03F48073496C88
:104E6000C1F3CC0103FB01F3002A00F0DB8004F066
:104E7000030407EE903AF8EE677A012C66D0FCB195
:104E8000022C00F0B28007EE102AB8EE477A9FEDB0
:104E9000696AC6EE076A664B1B6CC3F3080307EE2C
:104EA000103AB8EE477A9FED646A67EE867A77EE3D
:104EB000277AB7EE007A77EE877A66EEA76A61E026
:104EC0005B4B1B6813F0200F23D0594C2168C1F3B2
:104ED000C1015A4BCB4007EE103AB8EE477A06EEC6
:104EE000902AB8EE666AC7EE066A236CC3F308031D
:104EF00007EE103AB8EE477A9FED4F6A67EE867A72
:104F000077EE277AB7EE007A77EE877A66EEA76AB1
:104F100038E007EE102AB8EE477A9FED496AC6EEF0
:104F2000076A434B1B6CC3F3080307EE103AB8EE55
:104F3000477A9FED416A67EE867A77EE277AB7EE79
:104F4000007A77EE877A66EEA76A1BE007EE102AF2
:104F5000B8EE477A9FED376AC6EE076A344B1B6C92
:104F6000C3F3080307EE103AB8EE477A9FED326AB2
:104F700067EE867A77EE277AB7EE007A77EE877A51
:104F800066EEA76A2A4A136CC3F3462307EE103A6B
:104F9000B8EE477AB7EE006A37EE067AC6EE877A41
:104FA000FCEEE77AC0ED007A136CC3F3064307EE1C
:104FB000103AB8EE477A37EE067AC6EE877AFCEEFC
:104FC000E77AC0ED017A136CC3F3066307EE903AFB
:104FD000F8EE677A77EE867A86EEA77ABCEEC77A25
:104FE00080ED027A5DF8044B704707EE102AB8EEA8
:104FF000477A9FED146AC6EE076A0D4B1B6CC3F32C
:10500000080307EE103AB8EE477A9FED0B6A67EE99
:10501000867A77EE277AB7EE007A77EE877A66EEB1
:10502000A76AAFE70023036043608360DAE700BF4D
:10503000004402580024744A000000390090D00354
:105040000024744C0024F44A10B478498C6A8A6AAB
:10505000C2F30512CB6A03F00103496BC1F3CC0123
:1050600003FB01F3002A00F0DB8004F0030407EEE9
:10507000903AF8EE677A012C66D0FCB1022C00F071
:10508000B28007EE102AB8EE477A9FED696AC6EE45
:10509000076A664B1B6BC3F3080307EE103AB8EEC2
:1050A000477A9FED646A67EE867A77EE277AB7EEE5
:1050B000007A77EE877A66EEA76A61E05B4B1B6841
:1050C00013F0200F23D0594C2168C1F3C1015A4B72
:1050D000CB4007EE103AB8EE477A06EE902AB8EECB
:1050E000666AC7EE066A236BC3F3080307EE103A3D
:1050F000B8EE477A9FED4F6A67EE867A77EE277AA9
:10510000B7EE007A77EE877A66EEA76A38E007EEA8
:10511000102AB8EE477A9FED496AC6EE076A434BFC
:105120001B6BC3F3080307EE103AB8EE477A9FED06
:10513000416A67EE867A77EE277AB7EE007A77EEE5
:10514000877A66EEA76A1BE007EE102AB8EE477A68
:105150009FED376AC6EE076A344B1B6BC3F3080337
:1051600007EE103AB8EE477A9FED326A67EE867A1C
:1051700077EE277AB7EE007A77EE877A66EEA76A3F
:105180002A4A136BC3F3462307EE103AB8EE477A68
:10519000B7EE006A37EE067AC6EE877AFCEEE77A5B
:1051A000C0ED007A136BC3F3064307EE103AB8EE76
:1051B000477A37EE067AC6EE877AFCEEE77AC0EDDC
:1051C000017A136BC3F3066307EE903AF8EE677A41
:1051D00077EE867A86EEA77ABCEEC77A80ED027A01
:1051E0005DF8044B704707EE102AB8EE477A9FED42
:1051F000146AC6EE076A0D4B1B6BC3F3080307EE78
:10520000103AB8EE477A9FED0B6A67EE867A77EE32
:10521000277AB7EE007A77EE877A66EEA76AAFE76D
:105220000023036043608360DAE700BF0044025854
:105230000024744A000000390090D0030024744C0C
:105240000024F44A00B58BB0B0F5807F15D0B0F5DE
:10525000007F40D0B0F5806F70D0B0F5006F00F0E7
:10526000A380B0F5805F00F0D580B0F5002F00F08E
:10527000038100200BB05DF804FBA24B1B6D03F013
:105280000703042B00F21E81DFE803F0050A0F0379
:1052900014009D48EEE707A8FFF7D6FE0898E9E757
:1052A00004A8FFF7D5FC0498E4E701A8FFF7CEFDBA
:1052B0000198DFE7934BDB6C13F0405300F004815F
:1052C000B3F1805F00F00281B3F1005F01D00020F4
:1052D000D0E78E48CEE78B4B1B6D03F4E073802B39
:1052E00025D008D8F3B1402B40F0F28004A8FFF796
:1052F000AFFC0498BEE7C02B12D0B3F5807F40F01E
:10530000E780804BDB6C13F0405300F0E380B3F197
:10531000805F00F0E180B3F1005F0DD00020A9E7CD
:105320007948A7E707A8FFF78FFE0898A2E701A82A
:10533000FFF78CFD01989DE774489BE7714B9B6DCF
:1053400003F46003B3F5800F27D009D803B3B3F596
:10535000001F40F0C38004A8FFF77AFC049889E797
:10536000B3F5C00F12D0B3F5000F40F0B780654B16
:10537000DB6C13F0405300F0B380B3F1805F00F0BA
:10538000B180B3F1005F0DD0002073E75E4871E794
:1053900007A8FFF759FE08986CE701A8FFF756FD2C
:1053A000019867E7594865E7564B9B6D03F0E0634A
:1053B000B3F1007F27D009D803B3B3F1807F40F069
:1053C000938004A8FFF744FC049853E7B3F1407FAF
:1053D00012D0B3F1806F40F087804A4BDB6C13F042
:1053E000405300F08380B3F1805F00F08180B3F11F
:1053F000005F0DD000203DE743483BE707A8FFF7DB
:1054000023FE089836E701A8FFF720FD019831E751
:105410003E482FE73B4B1B6D03F4E043B3F5005FC1
:1054200023D008D8E3B1B3F5805F63D104A8FFF7B8
:105430000FFC04981EE7B3F5405F0FD0B3F5804F23
:1054400058D1304BDB6C13F0405355D0B3F1805F33
:1054500054D0B3F1005F0DD000200BE72A4809E7D4
:1054600007A8FFF7F1FD089804E701A8FFF7EEFC95
:105470000198FFE62548FDE6224B9B6D03F440337F
:10548000B3F5803F0AD0B3F5003F0CD00BB100203C
:10549000F0E604A8FFF7DCFB0498EBE601A8FFF7B1
:1054A000D5FC0398E6E6174BDB6C13F0405327D08E
:1054B000B3F1805F30D0B3F1005F01D00020D9E6B6
:1054C0001248D7E60020D5E61148D3E61148D1E6C8
:1054D0000020CFE60E48CDE60E48CBE60020C9E618
:1054E0000B48C7E60B48C5E60020C3E60848C1E6FE
:1054F0000848BFE60020BDE60548BBE60548B9E61A
:105500000348B7E6004402580080BB0000127A004E
:105510000090D00300093D000048ABE600093D00C3
:1055200008B5FDF7D3FF064B9B69C3F30323054A78
:10553000D35C03F01F03D840034B186008BD00BFC5
:105540000044025840AF000800000020C36B5B0914
:10555000C0680830C00803FB00007047002800F056
:10556000A48170B504460368B049B14A8B4218BFA4
:10557000934212D002F5806293420ED002F5784237
:1055800093420AD002F5E052934206D0A94A9342D0
:1055900003D0F621A848FBF70CFC6268B2F5800343
:1055A00018BF0123002A08BF0023002B40F02481EC
:1055B000A268B2F5802318BF0123002A08BF002388
:1055C00033B1B2F5C02F03D0B2F5003F40F01981DE
:1055D000E368033B1C2B00F21981E36BB3F120025B
:1055E00018BF0122002B08BF002222B3402B22D07B
:1055F000602B20D0802B1ED0A02B1CD0C02B1AD00B
:10560000E02B18D0B3F5807F15D0B3F5907F12D082
:10561000B3F5A07F0FD0B3F5B07F0CD0B3F5C07F4A
:1056200009D0B3F5D07F06D0B3F5E07F03D0B3F552
:10563000F07F40F0F080A369B3F1806F18BF002BBA
:1056400003D0B3F1005F40F0EB80636BB3F1804FA8
:1056500018BF002B40F0F480E36913F1704218BFCB
:105660000122002B08BF002292B1B3F1005F0FD0DE
:10567000B3F1405F0CD0B3F1804F09D0B3F1A04F2C
:1056800006D0B3F1C04F03D0B3F1E04F40F0DD805E
:10569000226AB2F5000318BF0123002A08BF0023C5
:1056A000002B40F0D780626AB2F5002318BF0123B7
:1056B000002A08BF0023002B40F0D180636AABB9F9
:1056C000226912F17E4318BF0123002A08BF00237C
:1056D000002B40F0C980626912F17F4318BF01239B
:1056E000002A08BF0023002B40F0C4800023A362DF
:1056F00025684E4B4E4E9D4218BFB54214BF012641
:10570000002607D0A3F574439D4203D0E3680F2B16
:1057100000F2CD802046FFF719FF2EB1474B9D4286
:1057200002D0082800F2C580404A414B9D4218BF74
:10573000954203D003F580639D4202D1102800F208
:10574000BA8094F88130002B00F09A80022384F80C
:1057500081302268136823F001031360A369B3F159
:10576000806F00F09380E369A26A1343E26B1343F6
:10577000E16822680B439360636B626A1343A26B18
:105780001343A26913432269134362691343226AD4
:10579000134362681343E26C1343A2681343A26C81
:1057A0001343A16D22680B43D36063686BB9226811
:1057B000936823F4C05343F40063936022689368B2
:1057C00023F4C06343F4806393602268136D23F075
:1057D00001031365636813F4800F06D02268D36851
:1057E00023F00043616D0B43D3600020C4F88400B4
:1057F000012384F8813070BDF7210F48FBF7D9FAF7
:10580000D6E6F8210C48FBF7D4FAE1E6F9210A487C
:10581000FBF7CFFAE1E6FA210748FBF7CAFA0AE7F5
:10582000FB210548FBF7C5FA0FE700BF0030014038
:10583000003800400014005844B10008003C00400B
:10584000FC211E48FBF7B5FA06E7FD211B48FBF7D4
:10585000B0FA1DE7FE211948FBF7ABFA23E7FF2159
:105860001648FBF7A6FA29E74FF481711348FBF7B6
:10587000A0FA30E740F203111048FBF79AFA35E737
:1058800084F880302046FBF7C5FA5FE76368B3F51C
:10589000800F7FF468AFA36B002B7FF464AF2268A6
:1058A000136843F4805313605DE7012070470120C3
:1058B000A1E701209FE701209DE700BF44B1000858
:1058C00070B4036A23F480330362036A4268446D50
:1058D00024F070040D682C4323F400338D6843EAF0
:1058E0000543104E104DA84218BFB0420DD005F52B
:1058F0008045A84214BF0025012506F58046B04228
:1059000003D015B9094DA84204D122F480324D6963
:1059100042EA0522426044654A688265036270BCBF
:10592000704700BF000001400004014000480140F2
:1059300070B4036A23F480130362036A4468426DFF
:1059400022F4E0420D6842EA052223F400138D6838
:1059500043EA05530F4E104DA84218BFB0420DD078
:1059600005F58045A84214BF0025012506F58046AF
:10597000B04203D015B9094DA84204D124F4003433
:105980004D6944EA8524446042654A68C265036201
:1059900070BC704700000140000401400048014015
:1059A00010B4036A046A24F001040462846924F0D8
:1059B000F00444EA021223F00A030B4382610362FB
:1059C0005DF8044B704710B4036A23F010030362C0
:1059D0008469036A24F4704444EA023223F0A00389
:1059E00043EA0113826103625DF8044B70470000D3
:1059F0008268034B1340194341F0070181607047EF
:105A00008FFFCFFF2DE9F84304460D46036A23F0CC
:105A100001030362066A47688269364B13400A68CD
:105A200042EA030926F002038E681E43324A334BD2
:105A3000984218BF90420CBF4FF001084FF0000889
:105A40000DD003F58043984214BF0023012302F5D3
:105A50008042904203D013B9294B98420ED1EA6894
:105A6000B2F1080318BF0123002A08BF002373BB4B
:105A700026F00806EB681E4326F00406B8F1000F76
:105A80000BD1204B9C4214BF002301231E4A944299
:105A900003D013B91A4B9C4211D1AB69B3F5007F07
:105AA00018BF002B19D16B69B3F5807F18BF002B8D
:105AB00019D127F440776B693B43AF691F43676097
:105AC000C4F818906B6863632662BDE8F88341F6FA
:105AD00002010E48FBF76DF9CAE741F60F010B48CA
