:020000040800F2
:100000000000022039B500088D0D00088F0D000892
:10001000910D0008930D0008950D000800000000E8
:10002000000000000000000000000000970D000824
:10003000990D0008000000009B0D00089D0D0008B0
:1000400089B5000889B5000889B5000889B5000898
:1000500089B5000889B5000889B5000889B5000888
:1000600089B5000889B5000889B50008A50D000804
:1000700089B5000889B5000889B5000889B5000868
:1000800089B5000889B5000889B5000889B5000858
:1000900089B5000889B5000889B5000889B5000848
:1000A000B50D000889B50008C50D000889B5000820
:1000B000D50D000889B5000889B5000889B5000884
:1000C00089B5000889B5000889B50008E50D000864
:1000D00089B5000889B5000889B5000889B5000808
:1000E000F50D000889B500080000000089B500087A
:1000F00089B5000889B5000889B5000889B50008E8
:1001000089B5000889B5000889B5000889B50008D7
:1001100089B5000889B50008010E000889B50008F6
:1001200089B5000889B5000889B5000889B50008B7
:1001300089B5000889B5000889B5000889B50008A7
:1001400000000000000000000000000000000000AF
:1001500089B5000889B5000889B5000889B5000887
:1001600089B5000889B5000889B5000889B5000877
:1001700089B5000889B5000889B5000800000000AD
:1001800089B5000889B5000889B5000889B5000857
:1001900089B5000889B5000889B5000889B5000847
:1001A00089B5000889B5000889B5000889B5000837
:1001B00089B5000889B5000889B5000889B5000827
:1001C00089B5000889B5000889B5000889B5000817
:1001D00089B5000889B5000889B5000889B5000807
:1001E00089B5000889B5000889B5000889B50008F7
:1001F00089B5000889B5000889B5000889B50008E7
:1002000089B5000889B5000889B5000889B50008D6
:1002100089B5000889B5000889B5000889B50008C6
:1002200089B5000889B5000889B5000800000000FC
:1002300089B5000889B500080000000089B50008EC
:1002400089B5000889B5000889B5000889B5000896
:1002500089B5000889B5000889B5000889B5000886
:1002600089B5000889B5000889B5000889B5000876
:1002700089B5000889B5000889B5000800000000AC
:1002800089B5000889B5000889B50008000000009C
:080290000000000089B5000820
:1002A00010B5054C237833B9044B13B10448AFF3B0
:1002B00000800123237010BDC0000020000000005A
:1002C000B8C3000808B5034B1BB103490348AFF39B
:1002D000008008BD00000000C4000020B8C3000872
:1002E00053B94AB9002908BF00281CBF4FF0FF319D
:1002F0004FF0FF3000F072B9ADF1080C6DE904CE9B
:1003000000F006F8DDF804E0DDE9022304B07047F0
:100310002DE9F047089E04468846002B4BD18A42BF
:10032000154667D9B2FA82F24AB1C2F1200701FA42
:1003300002F320FA07F7954047EA030894404FEA92
:10034000154E230CB8FBFEF71FFA85FC0EFB178831
:1003500043EA084307FB0CF1994209D9EB1807F16E
:10036000FF3080F01B81994240F21881023F2B44FC
:100370005B1AA4B2B3FBFEF00EFB103344EA034455
:1003800000FB0CFCA44509D92C1900F1FF3380F0C7
:100390000781A44540F2048102382C4440EA07401A
:1003A000A4EB0C0400271EB1D4400023C6E900438F
:1003B0003946BDE8F0878B4209D9002E00F0EB806A
:1003C0000027C6E9000138463946BDE8F087B3FA90
:1003D00083F7002F47D18B4202D3824200F2FA808A
:1003E000841A61EB030301209846002EE0D0C6E991
:1003F0000048DDE702B9FFDEB2FA82F2002A40F0DF
:100400008F80491B4FEA154E1FFA85F80127B1FB73
:10041000FEFC230C0EFB1C1143EA014308FB0CF10C
:10042000994207D9EB180CF1FF3002D2994200F241
:10043000CD808446591AA3B2B1FBFEF00EFB101416
:1004400043EA044408FB00F8A04507D92C1900F141
:10045000FF3302D2A04500F2B6801846A4EB080490
:1004600040EA0C409FE7C7F1200CBB4022FA0CFE8B
:100470004EEA030E01FA07F420FA0CF521FA0CF308
:100480004FEA1E482543B3FBF8F92C0C08FB19333F
:100490001FFA8EFA44EA034309FB0AF49C4202FA6B
:1004A00007F200FA07F10BD91EEB030309F1FF3045
:1004B00080F087809C4240F28480A9F10209734455
:1004C0001B1BADB2B3FBF8F008FB103345EA034445
:1004D00000FB0AFAA24508D91EEB040400F1FF3321
:1004E0006BD2A24569D90238744440EA0940A0FBA6
:1004F0000289A4EB0A044C45C2464B4654D351D062
:10050000002E69D0B1EB0A0564EB030404FA0CFC7D
:10051000FD40FC404CEA0505C6E90054002747E7CA
:10052000C2F1200320FA03F7954001FA02F021FA04
:1005300003F34FEA154E3843010CB3FBFEF71FFAE5
:1005400085F80EFB173341EA034107FB08F38B42A2
:1005500004FA02F407D9691807F1FF3C2FD28B4245
:100560002DD9023F2944CB1A81B2B3FBFEF00EFB1A
:10057000103341EA034100FB08F38B4207D96918A5
:1005800000F1FF3C17D28B4215D902382944C91A11
:1005900040EA07473BE73746304609E70746E7E6C4
:1005A0001846FBE64145ABD2B8EB020A69EB0E02F6
:1005B00001381346A4E76046E9E7184695E7674621
:1005C000D1E781467CE702382C4447E7ACF1020CC6
:1005D0002B442FE7384608E73746E9E6704700BF67
:1005E00001F0FF01102A2BDB10F0070F08D010F8E4
:1005F000013B013A8B422DD010F0070F42B3F6D1E8
:10060000F0B441EA012141EA014122F007047FF000
:1006100000070023F0E80256083C85EA010586EA57
:10062000010685FA47F5A3FA87F586FA47F6A5FA93
:1006300087F68EB9EED1F0BC01F0FF0102F007029F
:1006400032B110F8013B013A83EA010313B1F8D14A
:100650000020704701387047002D06BF354603382B
:10066000073815F0010F07D1013015F4807F02BF64
:10067000013015F4C03F0130F0BC0138704700BFB5
:1006800000B58BB00023079308930993009301935F
:10069000029303930493059306931E481E4A026037
:1006A00043608360C36004220261037543750122C5
:1006B0008261037743628362C3620363436380F8AA
:1006C000383001F061FCD8B90AA9002341F80C3D8B
:1006D000104801F029FFB0B9104B00930623019395
:1006E0000023029340F2FF720392042204920593C6
:1006F0006946084800F014FF40B90BB05DF804FBF0
:1007000000F098FAE0E700F095FAE5E700F092FAD9
:10071000F3E700BF30010020002002400002B025B6
:1007200010B588B0002303930493059306930793B1
:1007300002681E4B9A4201D008B010BD1C4BD3F882
:10074000D82042F02002C3F8D820D3F8D82002F0F5
:1007500020020092009AD3F8E02042F00102C3F890
:10076000E020D3F8E02002F001020192019AD3F8D0
:10077000E02042F00202C3F8E020D3F8E03003F0BA
:1007800002030293029B832303930324049403A98B
:10079000084803F0B5F8012303930494002305935C
:1007A00003A9054803F0ACF8C6E700BF00200240EB
:1007B00000440258000002580004025800B583B0FB
:1007C0000B4BD3F8D82042F00102C3F8D820D3F85D
:1007D000D83003F001030193019B002211460B2046
:1007E00001F0CEFF0B2002F00FF803B05DF804FB20
:1007F000004402582DE9F0438FB0002409940A9474
:100800000B940C940D94894BD3F8E02042F0100225
:10081000C3F8E020D3F8E02002F010020192019A20
:10082000D3F8E02042F00402C3F8E020D3F8E0203F
:1008300002F004020292029AD3F8E02042F0200271
:10084000C3F8E020D3F8E02002F020020392039ADC
:10085000D3F8E02042F08002C3F8E020D3F8E02093
:1008600002F080020492049AD3F8E02042F00102E0
:10087000C3F8E020D3F8E02002F001020592059AC7
:10088000D3F8E02042F00202C3F8E020D3F8E020E1
:1008900002F002020692069AD3F8E02042F04002EB
:1008A000C3F8E020D3F8E02002F040020792079A54
:1008B000D3F8E02042F00802C3F8E020D3F8E0309B
:1008C00003F008030893089B594E22464021304606
:1008D00003F0E2F9DFF8788122464FF4A051404658
:1008E00003F0DAF9534F2246E021384603F0D4F9F9
:1008F0004FF6FF79CDF8249003250A950B9409A9AA
:100900004D4802F0FDFF4FF4005309934B4B0A93FF
:100910000B9409A9404602F0F3FFCDF824900A9504
:100920000B9409A9464802F0EBFF4FF00209CDF8FD
:1009300024900A950B9409A9424802F0E1FF40F681
:10094000F73309930A950B9409A9404602F0D8FFA2
:1009500041F61C0309930A950B9409A93A4802F041
:10096000CFFF49F6043309930A950B9409A9384639
:1009700002F0C6FF4DF23F7309930A950B9409A943
:10098000304602F0BDFF4FF6FF4309930A950B94E2
:1009900009A92E4802F0B4FF4023099301250A95C6
:1009A0000B940C9409A9304602F0AAFF8023099306
:1009B0000A940B9409A9304602F0A2FF4FF4A05309
:1009C00009930A950B940C9409A9404602F098FFEC
:1009D0004FF420530993CDF828900B940C940B23DB
:1009E0000D9309A9304602F08BFF102309930A9456
:1009F0000B9409A9384602F083FFE02309930A9576
:100A00000B940C9409A9384602F07AFF4FF000616C
:100A1000084600F06DFD22462146282001F0B0FE78
:100A2000282001F0F1FE0FB0BDE8F0830044025829
:100A3000001802580004025800100258000011115A
:100A400000140258001C025800000258000C025802
:100A5000000802582DE9F041CCB04C22002139A801
:100A60000AF0BEFD2022002131A80AF0B9FDBC2207
:100A7000002102A80AF0B4FD022003F039F9002396
:100A800001932F4B9A6942F440429A619B6903F4A7
:100A9000404301932B4BDA6A42F00102DA62DB6ACF
:100AA00003F001030193019B254B9B6913F4005F45
:100AB000FAD0254A936A23F00303936202253995FD
:100AC00001273C9720263D964295002443944FF001
:100AD0000408CDF8108132234593469547954895F3
:100AE0000C2349934A944B9439A803F035F93F23DA
:100AF0003193032332933394082334934023359363
:100B000036934FF4806237923893294631A803F028
:100B1000B9FD0E4B0293CDF80C800A230493059780
:100B200006950795C023089309960A9419941F9473
:100B30002A9402A804F024FA4CB0BDE8F08100BF6A
:100B400000480258000400580044025802100800EF
:100B500010B5BFF34F8FBFF36F8F344B0022C3F834
:100B60005022BFF34F8FBFF36F8F5A6942F40032A8
:100B70005A61BFF34F8FBFF36F8F00F05FFCFFF739
:100B800069FFFFF737FEFFF719FE00F0AFFBFFF735
:100B900077FD00F021FB00F0BFF900F04DF800F008
:100BA00007FA23480AF024FD0AF042FB0AF076FB1C
:100BB00036E0A0B20AF0B8FB012000F07FFC283438
:100BC000B4F5805FF5DBC82409E041F2C800001BE2
:100BD00080B20AF0A9FB012000F070FC2834B4F5C3
:100BE000805FF2DB01200AF091FBC82406E0A0B28E
:100BF0000AF09AFB012000F061FC2834B4F5805F14
:100C0000F5DBC82409E041F2C800001B80B20AF0FD
:100C10008BFB012000F052FC2834B4F5805FF2DB3E
:100C200000200AF073FBC824CAE700BF00ED00E013
:100C3000F8C300087047704708B51548154B0360A6
:100C40004FF4800343604FF4802383601823C36014
:100C50004FF000730361002343614FF080628261B3
:100C60004FF0C042C261036243628362C362436366
:100C70008363C363036443648364C364036543653C
:100C8000836505F045FD00B908BDFFF7D3FFFBE71D
:100C9000940100200030014010B588B00023039378
:100CA000049305930693079302682A4B9A4201D056
:100CB00008B010BD0446284BD3F8F02042F480520F
:100CC000C3F8F020D3F8F02002F480520192019A88
:100CD000D3F8E02042F00102C3F8E020D3F8E0307E
:100CE00003F001030293029B602303930223049306
:100CF000032306930523079303A9184802F000FE77
:100D00001748184B03602523436000238360C360AA
:100D10004FF4806202614FF4805242614FF480428E
:100D200082614FF48072C2614FF4403202624362CA
:100D300001F0D4FE58B90A4BE3679C6300221146C8
:100D4000232001F01DFD232001F05EFDB0E7FFF739
:100D500071FFF0E7003001400044025800000258E3
:100D60001C0200201000024082B0074BD3F8F42090
:100D700042F00202C3F8F420D3F8F43003F0020387
:100D80000193019B02B07047004402587047FEE790
:100D9000FEE7FEE7FEE770477047704708B500F0D2
:100DA0007BFB08BD08B5024802F00EFA08BD00BF83
:100DB0001C02002008B5024806F00AFB08BD00BF6F
:100DC000D402002008B5024806F002FB08BD00BFAF
:100DD000D402002008B5024806F0FAFA08BD00BFA8
:100DE0001403002008B5024805F06EFF08BD00BFDF
:100DF0009401002008B54FF4005002F06BFF08BDCD
:100E000008B5024806F0E4FA08BD00BF94020020CD
:100E100070B50D461646002404E0AFF3008028703C
:100E200001340135B442F8DB304670BD70B516466A
:100E3000002405E04D1C087800F0C8FA013429466A
:100E4000B442F7DB304670BD08B503460B4A126862
:100E500042B10A4A106803446A46934206D8074AD8
:100E6000136008BD054A06491160F2E70AF08EFBDF
:100E70000C2303604FF0FF30F3E700BFDC000020DD
:100E8000680400204FF0FF3070474FF400534B6070
:100E9000002070470120704700207047184AD2F8A0
:100EA000883043F47003C2F88830164B1A6842F059
:100EB00001021A6000221A61186813490140196082
:100EC0009A61DA611A629A62DA621A635A639A6301
:100ED000DA631A645A64196821F4802119601A6669
:100EE0000A4B1A680A4B1340B3F1005F02D2094B58
:100EF00001221A60024B4FF000629A60704700BFF7
:100F000000ED00E0004402587FEDF6EA0010005CBE
:100F10000000FFFF0881005100B58DB00023089349
:100F200009930A930B9304930593069307930193F4
:100F3000029303931D484FF0804202607E2242607C
:100F400083604FF6FE72C2600361836106F08EFB20
:100F500000BB0CA94FF4805341F8103D134807F033
:100F60006FF8D0B90023049305930F230693012350
:100F7000079304A90D4807F07FFD88B9502301931A
:100F80000023039301A9094807F046FF58B90DB0A3
:100F90005DF804FBFFF74EFEDBE7FFF74BFEE1E7F2
:100FA000FFF748FEEAE7FFF745FEF0E714030020ED
:100FB00000B585B000230193029303930E480F4AB6
:100FC00002604FF6FF7242608360C260836106F088
:100FD0004DFB50B900230193039301A9064807F084
:100FE0001BFF28B905B05DF804FBFFF723FEF1E70E
:100FF000FFF720FEF6E700BF94020020001000403B
:101000000268134B9A4200D0704700B583B0114B71
:10101000D3F8F02042F00102C3F8F020D3F8F0300A
:1010200003F001030193019B00221146182001F0F7
:10103000A7FB182001F0E8FB002211461A2001F05E
:101040009FFB1A2001F0E0FB03B05DF804FB00BF3A
:10105000000001400044025870B58AB00023059397
:1010600006930793089309930368B3F1804F04D064
:10107000304A934248D00AB070BD2F4BD3F8E820D5
:1010800042F00102C3F8E820D3F8E82002F00102A0
:101090000192019AD3F8E02042F00202C3F8E02066
:1010A000D3F8E02002F002020292029AD3F8E02084
:1010B00042F00102C3F8E020D3F8E03003F001036E
:1010C0000393039B4FF48163059302240694032644
:1010D00008960125099505A9184802F011FC4FF45E
:1010E000004305930694002407940896099505A9E2
:1010F000134802F005FC224621461C2001F040FB6B
:101100001C2001F081FBB6E70B4BD3F8E82042F03E
:101110001002C3F8E820D3F8E83003F0100304937A
:10112000049B00221146362001F02AFB362001F0F4
:101130006BFBA0E700100040004402580004025876
:101140000000025870B588B0002303930493059300
:101150000693079302681C4B9A4201D008B070BDF9
:101160001A4BD3F8E02042F00202C3F8E020D3F893
:10117000E02002F002020192019AD3F8E02042F04E
:101180000102C3F8E020D3F8E03003F0010302933A
:10119000029B46F20203039302260496032506955A
:1011A0000124079403A90A4802F0AAFB4FF4E06364
:1011B00003930496002305930695079403A9054815
:1011C00002F09EFBCAE700BF000001400044025845
:1011D000000402580000025810B596B00024139481
:1011E000149415940C940D940E940F9410941194DF
:1011F00012942C22214601A80AF0F2F939483A4B00
:1012000003600A234360846040F6FF73C360046197
:101210004461846106F0BCFA002851D10023139385
:101220001493159313A92F4807F0F6FD00284AD10F
:1012300000220C9240F2FF730D930E920F921092C7
:101240004FF4807311934FF4007312930CA9254847
:1012500006F0ACFB002839D140F2FF330D93042295
:101260000CA9204806F0A2FB002832D140F2FF135F
:101270000D9308220CA91B4806F098FB60BB4FF4A5
:10128000006301934FF480630293002303931222BF
:10129000049205934FF400520692079308934FF07F
:1012A000007209920A934FF480430B9301A90D48F1
:1012B00007F06AFE98B90B48FFF744FF16B010BD5F
:1012C000FFF7B8FCAAE7FFF7B5FCB1E7FFF7B2FC00
:1012D000C2E7FFF7AFFCC9E7FFF7ACFCCFE7FFF7CA
:1012E000A9FCE8E7D40200200000014008B5174837
:1012F000174B0360174B436000238360C360036197
:101300000C2242618361C36103624362836209F01C
:1013100061FD70B900210D4809F072FE60B900212D
:101320000A4809F0DDFE50B9084809F01FFE48B927
:1013300008BDFFF77FFCEDE7FFF77CFCEFE7FFF769
:1013400079FCF1E7FFF776FCF2E700BF54030020D9
:101350000048004080841E0000B589B0002303933C
:1013600004930593069307930268154B9A4202D0A3
:1013700009B05DF804FB134BD3F8E82042F4802257
:10138000C3F8E820D3F8E82002F480220192019A01
:10139000D3F8E02042F00802C3F8E020D3F8E030B0
:1013A00003F008030293029B4FF44073039302235C
:1013B00004930723079303A9034802F0A1FAD7E790
:1013C0000048004000440258000C025800B583B0A9
:1013D00002A941F8040D4FF6FF730122034809F0FA
:1013E0004DFC019803B05DF804FB00BF54030020DE
:1013F000104B1B780BB90120704710B504464FF411
:101400007A70B0FBF3F30C4A1068B0FBF3F001F014
:1014100013FA68B90F2C01D901200AE000222146F5
:101420004FF0FF3001F0ACF9024B5C60002000E0AF
:10143000012010BD080000200000002010B503208E
:1014400001F080F903F028F80F498B69C3F30323F7
:101450000E4AD35C03F01F03D8400D4B18608B6914
:1014600003F00F03D35C03F01F03D840094B18604F
:101470000020FFF7BDFF10B10124204610BD044637
:10148000FFF772FCF9E700BF00440258D0C3000820
:101490000000002004000020034B1B78034A116861
:1014A0000B441360704700BF08000020E4000020D8
:1014B000014B1868704700BFE400002038B50446AF
:1014C000FFF7F6FF0546B4F1FF3F02D0044B1B784F
:1014D0001C44FFF7EDFF401BA042FAD338BD00BF0C
:1014E00008000020014B1868000C70470010005CD9
:1014F00038B504460D4610F0706F06D0064B59689B
:1015000021EA04012943596038BD40F246210348CD
:10151000FFF791FBF2E700BF000400580CC400087D
:10152000F0B583B005460C46002301930368B34928
:10153000B34A8B4218BF934207D0B24A934204D0B9
:1015400040F65321B048FFF776FB6368062B18BFBF
:101550000C2B2BD0122B29D0182B27D0B3F5807F42
:1015600024D0B3F5837F21D0B3F5867F1ED0B3F5A9
:10157000897F1BD0B3F58C7F18D0B3F5007F15D0D1
:1015800040F20622934211D0B3F5037F0ED040F211
:10159000122293420AD0B3F5067F07D0B3F5407FFD
:1015A00004D040F20632934240F0AF80A368072B8C
:1015B00000F2B180E36840F2FF71944A8B4218BF99
:1015C000934240F0AE802369042B18BF002B06D055
:1015D000012B04D0022B02D0032B40F0A88095F8F9
:1015E0003830012B00F0A98061692A68884B1B689C
:1015F00003F04053B3F1805F00F0C880D36803F07C
:101600001C031C2B00F0C680D36803F01C035B088E
:101610004FF6FF7222FA03F3994200F2BD8023696C
:10162000042B04D095F83830012B00F0BB80E26821
:10163000764B9A4200F0BC802368764A012B18BF93
:10164000934200F0C280744A934200F0BE80734A15
:10165000934200F0BA80724A934200F0B68002F1E1
:1016600086621032934200F0B0806E4A934200F0DE
:10167000AC8002F186624032934200F0A6806A4A52
:10168000934200F0A28002F1866202F580729342DA
:1016900000F09B80654A934200F0978002F104229B
:1016A00002F54012934200F0908002F1866202F54A
:1016B0000062934200F089805D4A934200F0858089
:1016C0005C4A934200F081805B4A93427DD05B4A42
:1016D00093427AD05A4A934277D05A4A934274D06E
:1016E000594A934271D0594A93426ED0584A934214
:1016F0006BD0584A934268D0574A934265D040F61F
:1017000069214148FFF797FA5FE040F654213E48CF
:10171000FFF791FA4AE740F655213B48FFF78BFA6D
:1017200048E740F656213848FFF785FA4BE740F680
:1017300057213548FFF77FFA51E76169EB6B0133B9
:10174000B1FBF3F12A68324B1B6803F04053B3F14D
:10175000805F15D0D36803F01C031C2B14D0D36812
:1017600003F01C035B084FF6FF7222FA03F3994261
:101770007FF655AF40F65B212348FFF75CFA4EE752
:10178000D36803F01C03EDE71023EBE7D36803F005
:101790001C033CE710233AE740F65F211A48FFF7A5
:1017A0004AFA3CE740F664211748FFF744FA3EE75F
:1017B0002A68124B9A4251D02A68114B9A427AD029
:1017C0002A68104B9A4200F0A88095F85030012BFF
:1017D00000F00B83012385F850302A68966816F0D4
:1017E000040600F0CD806B6D43F020036B65012093
:1017F000002385F8503003B0F0BD00BF0020024048
:10180000002102400060025840C400080000FF4769
:101810000010005C02003004040060080800900C16
:101820001000C01040002019000180210004002A8F
:10183000002090360040C03A0080F03E0000214376
:10184000000052470000844B0000B84F000084CBDA
:10185000000052C7000021C30000B8CF2368BE4972
:10186000BE4A8B4218BF9342A6D0BD4A9342A3D032
:10187000BC4A9342A0D002F18662103293429BD0C0
:10188000B94A934298D002F1042202F540129342E1
:1018900092D002F1866202F5006293428CD0B34A84
:1018A000934289D0B24A934286D040F66F21B14824
:1018B000FFF7C1F980E72368A749A84A8B4218BF00
:1018C00093423FF47DAFA64A93423FF479AFA54AD5
:1018D00093423FF475AF02F18662103293423FF4B7
:1018E0006FAFA14A93423FF46BAF02F1042202F5BD
:1018F000401293423FF464AF02F1866202F5006247
:1019000093423FF45DAF9A4A93423FF459AF40F699
:1019100073219848FFF78FF952E723688E498F4A61
:101920008B4218BF93423FF450AF8D4A93423FF42D
:101930004CAF8C4A93423FF448AF02F186621032BA
:1019400093423FF442AF884A93423FF43EAF02F1E4
:10195000042202F5401293423FF437AF864A934285
:101960003FF433AF854A93423FF42FAF844A93420A
:101970003FF42BAF40F678217E48FFF75CF924E76F
:101980002368C3F31301002950D1C3F384630121F9
:101990009940D3690B43D3612F6860682168303761
:1019A000030A9B0003F00C03FA5800F01F004FF0ED
:1019B0001F0C0CFA00FC22EA0C02C1F38461814086
:1019C0000A43FA502B689A6812F0040F37D00122AC
:1019D000996811F0080F34D001210A435AD12768C1
:1019E000A26803F114017B0E9B0003F00403C858A6
:1019F000C7F304574FF0070C0CFA07FC20EA0C0061
:101A0000BA400243CA505F4B1B6803F07043B3F106
:101A1000805F18D02A68D36813F0100F5CD1636917
:101A2000D268C2F382025200934013E093FAA3F308
:101A3000B3FA83F303F01F0301219940A9E70022C1
:101A4000C6E70021C9E763692A68D268C2F3820247
:101A500052009340216904294FD02F6820686037D5
:101A600057F8212002F0004200F0F84003431343EE
:101A700047F82130637E012B36D82B682169627EBE
:101A8000012A37D0603353F8212022F00042164358
:101A900043F821602A68936813F0010F40F0A18198
:101AA0002368E068D2F8C010C3F3130621EA0601E8
:101AB00000F018063448F0400340C3F313030B430F
:101AC000C2F8C030E268314B9A4266D02368002BDE
:101AD000C0F2018100208BE66369D268920802F0AF
:101AE000040252009340B5E740F6A5212148FFF7D4
:101AF000A2F8C2E74FF00046C4E72A68136E03F06D
:101B0000F8432168B3EB816F1CD02A68536E03F051
:101B1000F8432168B3EB816F19D02A68936E03F004
:101B2000F8432168B3EB816F32D02A68D36E03F09B
:101B3000F8432168B3EB816FACD1D36E23F000433F
:101B4000D366A7E7136E23F000431366DDE7536EF9
:101B500023F000435366E0E702003004040060080D
:101B60000800900C1000C0100004002A000021435F
:101B70000000844B40C40008002090360040C03A6A
:101B80000080F03E0010005CFFFF0F000000FF47E8
:101B9000936E23F000439366C7E728682368C3F376
:101BA000130696BB9A0E013202F01F02092A8CBF5F
:101BB00000220122002A52D09EBB990E01318906D3
:101BC00001F0F841B6BB9A0E013202F01F07012264
:101BD000BA401143C6BB9B0E013303F01F0303EB56
:101BE00043031B050B43A16814305A0E920002F008
:101BF00004028658C3F3045307279F4026EA0706CA
:101C000001FA03F33343835060E793FAA3F2B2FA85
:101C100082F2013202F01F02092A8CBF0022012247
:101C2000C8E793FAA3F1B1FA81F10131890601F015
:101C3000F841C7E793FAA3F2B2FA82F2013202F056
:101C40001F070122BA40C4E793FAA3F3B3FA83F360
:101C5000013303F01F0303EB43031B05C2E7CEB9B7
:101C6000990E0131890601F0F841E6B99A0E013268
:101C700002F01F070122BA401143F6B99A0E013251
:101C800002F01F0202EB42031E3B1B0543F00073F0
:101C90000B43A8E793FAA3F1B1FA81F10131890668
:101CA00001F0F841E1E793FAA3F2B2FA82F20132CD
:101CB00002F01F070122BA40DEE793FAA3F2B2FA5C
:101CC00082F2013202F01F0202EB42031E3B1B05AF
:101CD00043F00073DCE72A6845494648824218BF52
:101CE0008A420CBF0121002121D1434CA06800F0A1
:101CF000E07611B33E49896811F0010F19D0012136
:101D00003C4FBF6817F0010F15D0012739430CBFB6
:101D10000121002100295ED038498B4218D0384972
:101D20008B4236D037498B4244D0002060E5364C98
:101D3000DCE70021E4E70027E8E73449896811F08F
:101D4000010F03D0012181F00101E3E70021FAE74F
:101D500010F4000FE3D12D4B9A4201D0002047E54B
:101D600046F40003A26822F0E0721343A360284BFC
:101D70001B689B09274AA2FB03239B095B00019375
:101D800002E0019B013B0193019B002BF9D1002054
:101D90002EE510F0807FC5D11C4B9A4201D0002067
:101DA00026E546F08073A26822F0E0721343A36038
:101DB00000201DE510F4800F15D1144B9A4201D07C
:101DC000002015E546F48003A26822F0E072134378
:101DD000A36000200CE56B6D43F020036B650120D0
:101DE00006E5002004E5002002E5022003E500BF2F
:101DF000002002400021024000230240000084CB6A
:101E0000000052C70000B8CF0063025800600258BB
:101E100000000020632D3E0538B504460368504994
:101E2000504A934218BF8B4223D14F4B9B6813F407
:101E3000403F14BF012300234BB302F091FE05463F
:101E40006368B3F5003F1CD0B3F5403F1DD0B3F538
:101E5000803F16D0FFF746FB41F20303984256D865
:101E6000424B9D424DD92268936843F4807393603E
:101E700038BD3F4B9B6813F4403F14BF0123002340
:101E8000DAE71B0CB5FBF3F5E4E78508E2E74FF46E
:101E9000002004F0BDF905466368B3F5C01F16D0F5
:101EA0000BD9B3F5101F28D01DD8B3F5E01F22D0F1
:101EB000B3F5001FCED14509CCE7B3F5402F06D0CE
:101EC0000AD8B3F5802F02D0B3F5002FC2D19B0CF6
:101ED0005B00B5FBF3F5BDE7B3F5801FF7D0B3F5B5
:101EE000A01FB7D1F3E7B3F5201F08D0B3F5301F1B
:101EF000B0D1050AAEE70509ACE78509AAE7C5092F
:101F0000A8E72268936823F480739360B0E7194BC5
:101F10009D420FD9184B2B44184A934210D9184BA5
:101F20002B44184A934213D92268936843F44073B0
:101F300093609DE72268936823F44073936097E76A
:101F40002268936823F4407343F4807393608FE7AF
:101F50002268936823F4407343F40073936087E727
:101F6000002002400021024000230240002D3101E8
:101F700000630258105E5F00EFA1A0FF0F5E5F00DC
:101F8000DF4341FF1FBCBE0030B583B00023019387
:101F9000002800F0B48204460368AE49AE4A8B4282
:101FA00018BF934207D0AD4A934204D04FF4D37187
:101FB000AB48FEF740FE6368B3F5803F18BFB3F54A
:101FC000003F29D0B3F5403F26D02BB3B3F5802F87
:101FD00022D0B3F5002F1FD0B3F5402F1CD0B3F59E
:101FE000801F19D0B3F5A01F16D0B3F5C01F13D0B2
:101FF000B3F5E01F10D0B3F5001F0DD0B3F5101FDF
:102000000AD0B3F5201F07D0B3F5301F04D040F23B
:10201000A7119348FEF70FFEA3681A1F18BF0122ED
:10202000002B08BF002232B1082B04D00C2B02D0A9
:10203000102B40F0AC80E368012B00F2AE80637D92
:10204000012B00F2B080A26AB2F5806318BF0123B1
:10205000002A08BF002333B1B2F5006F03D0B2F5F8
:10206000406F40F0A680636AB3F5806F18BFB3F588
:10207000846F3AD0B3F5886F37D0B3F58C6F34D016
:10208000B3F5906F31D0B3F5946F2ED0B3F5986F50
:102090002BD0B3F59C6F28D0B3F5A06F25D0B3F546
:1020A000A46F22D0B3F5A86F1FD0B3F5AC6F1CD0CE
:1020B000B3F5B06F19D0B3F5B46F16D0B3F5B86FF0
:1020C00013D0B3F5BC6F10D0B3F5C06F0DD0B3F51E
:1020D000C46F0AD0B3F5C86F07D0B3F5CC6F04D086
:1020E000B3F5D06F01D0002B69D1E26A931E18BFFF
:1020F0000123002A08BF00231BB1012A01D0032AB3
:1021000063D12369042B18BF082B64D1226BB2F56D
:10211000805318BF0123002A08BF0023002B60D181
:10212000237D012B63D894F83830012B65D8E36800
:102130004BB1A369013B0F2B65D8237F012B68D8D6
:10214000237F012B6BD0237F012B72D0636D002B7B
:1021500078D023689A6812F0005F03D09968414AEA
:102160000A409A6023689A6812F0805F40F0888085
:1021700099683D4A0A4042F080529A603B4B1B6886
:102180009B093B4AA2FB03239B09019375E04FF493
:10219000D4713348FEF74FFD4DE740F2A9113048A6
:1021A000FEF749FD4BE74FF4D5712D48FEF743FD8F
:1021B00049E740F2AB112A48FEF73DFD53E74FF4E3
:1021C000D6712748FEF737FD8FE740F2AD1124485E
:1021D000FEF731FD95E74FF4D7712148FEF72BFD4F
:1021E00094E740F2AF111E48FEF725FD98E74FF443
:1021F000D8711B48FEF71FFD95E740F2B111184852
:10220000FEF719FD93E740F2B5111548FEF713FDEF
:1022100093E74FF4DB711248FEF70DFD90E7236A58
:10222000013B072B8FD94FF4DD710D48FEF703FDFD
:1022300089E7637D012B89D140F2BF110848FEF781
:10224000FAFC83E72046FEF76BFA0023A36584F8C7
:1022500050307EE70020024000210240006002581A
:1022600040C40008C0FFFF5FC0FFFF6F00000020F8
:10227000632D3E05019B013B0193019B002BF9D18E
:1022800023689A6812F0805F40F09E80626D42F091
:1022900010026265A26D42F00102A26501259A68F2
:1022A00012F0040F00F092800121626D12F0100F05
:1022B00040F01D81002940F01A81626D22F4817284
:1022C00042F0020262659A6812F0010F21D18D4935
:1022D0008D4A934218BF8B420CBF012300237BD150
:1022E0008A6812F0010F73D001228749896811F0C2
:1022F000010F6FD001210A430CBF0122002242B11D
:10230000002B74D0814963688A6822F47C121343DD
:102310008B60FFF7E7F841F20303984202D9A36804
:10232000102B66D0627D236B43EA4233A2681343CD
:10233000227F43EA0243227F012A65D0626A22B1EA
:1023400002F47872A16A0A4313432168C868704A8C
:1023500002401343CB6023689A6812F0040F58D0F0
:1023600001219A6812F0080F55D001220A431BD1AF
:10237000217DE26A42EA8131D868664A02400A4316
:10238000DA6094F83830012B47D02268136923F0C3
:10239000010313612268136923F07043616B0B43DF
:1023A00013612046FFF738FDE368012B00F09680AB
:1023B0002268136B23F00F031363636D23F0030391
:1023C00043F00103636597E0002568E700216CE7AF
:1023D00000228AE700218EE74F4A926812F0010F2F
:1023E00003D0012282F0010289E70022FAE74B497B
:1023F00089E7617D226B42EA41321343227F43EA3F
:10240000024343F00C0396E7226A013A43EA42434F
:1024100094E70021A5E70022A8E7E36BB3F5806FFE
:102420003ED2236CB3F1200218BF0122002B08BF5B
:10243000002272B1402B0CD0602B0AD0802B08D028
:10244000A02B06D0C02B04D0E02B02D0B3F5807FA8
:102450002CD1626CB2F5007318BF0123002A08BFAB
:1024600000234BBBA36C40F20142012B18BF9342E7
:1024700028D1636A0BB1A36A0BB9636C43BB2168B3
:102480000A69274B1340E06B226C42EA0042606C01
:102490000243A06C0243134343F001030B6179E74D
:1024A00040F279211F48FEF7C6FBBAE740F27A21D5
:1024B0001C48FEF7C0FBCCE740F27B211948FEF731
:1024C000BAFBCFE74FF41F711648FEF7B4FBD0E715
:1024D00040F282211348FEF7AEFBD0E721680B6B78
:1024E00023F00F03A269013A13430B6365E7636DA1
:1024F00043F0100363650125284603B030BD012574
:10250000FAE700BF00200240002102400023024001
:1025100003C0F0FFFCBFFFFF0060025800630258D9
:102520001EF800FC40C4000830B59BB004460D46C0
:1025300002687E4B9A4204D040F667017C48FEF761
:102540007AFB2B68052B18BF032B05D9062B03D06C
:10255000072B01D0092B79D12B6833B36A68B2F508
:10256000004318BF0123002A08BF002313B1B2F5AE
:10257000404F71D1AB68B3F5807218BF0122002BB8
:1025800008BF00228AB1B3F5007F0ED0B3F5407FBB
:102590000BD0B3F5806F08D0B3F5A06F05D0B3F5BD
:1025A000E06F02D0B3F5006F5CD194F85030012B8E
:1025B00000F0B980012384F8503023685B4A9342CD
:1025C00056D000220192019A002A55D0926812F04A
:1025D000040F5AD001219A6812F0040F40F0958040
:1025E000002940F092805149524A934218BF8B42D1
:1025F0004DD102F500722B68002B59D0936823F45B
:10260000404369680B4393602368484849498B42BB
:1026100018BF834241D1836813F0010F39D00121E3
:10262000444B9B6813F0010F35D001230B430CBFC3
:1026300001230023002B72D091683F4B0B40296887
:10264000A86801430B439360002063E040F66801F3
:102650003748FEF7F0FA7FE740F66B013448FEF7A3
:10266000EAFA87E740F66C013148FEF7E4FA9CE7A6
:1026700002F580720192A6E7636D43F02003636563
:10268000002384F85030012047E00021A3E72B4AC3
:10269000B1E70021C4E70023C8E7294B9B6813F08A
:1026A000010F03D0012383F00103C3E70023FAE7FE
:1026B000916821F44041916021681C4D1D48814280
:1026C00018BFA94217D1A96811F0010F11D001203C
:1026D0001849896811F0010F00D0012303430CBF92
:1026E00001230023EBB19168134B0B409360002052
:1026F00010E01846ECE71249896811F0010F00D08C
:102700000123B3FA83F35B09ECE7636D43F0200325
:1027100063650120002384F850301BB030BD0020D9
:10272000F8E70020F6E70220F7E700BF00200240AC
:1027300078C4000800210240E0F0FFFF0063025867
:102740000060025810B50446C31E042B0DD8094A78
:10275000D36823F4E0631B041B0C240204F4E0643C
:102760001C43054B2343D36010BD92210348FEF761
:1027700062FAECE700ED00E00000FA05B4C40008DE
:1027800070B505460C4616460F2A21D80F2C24D8C2
:10279000194BDB68C3F30223C3F10702042A28BFE5
:1027A0000422191D06291DD9033B4FF0FF3101FA00
:1027B00002F224EA02049C4001FA03F326EA03062B
:1027C0003443002D10DB2401E4B20C4B5C5570BD8A
:1027D000AA210B48FEF72FFAD8E7AB210848FEF7ED
:1027E0002AFAD5E70023E0E705F00F052401E4B25B
:1027F000044B5C55EBE700BF00ED00E000E400E0B7
:10280000B4C4000814ED00E010B5041E0ADB002C6F
:1028100007DB04F01F02640901239340044A42F8D5
:10282000243010BDBE210348FEF705FAEFE700BFD4
:1028300000E100E0B4C400080138B0F1807F0AD2A2
:10284000064B5860064AF02182F823100020986059
:1028500007221A6070470120704700BF10E000E0B7
:1028600000ED00E002682849284B9A4218BF8A42CE
:102870002FD018339A422CD018339A4229D01833CB
:102880009A4226D018339A4223D018339A4220D045
:1028900018339A421DD003F556739A4219D0183353
:1028A0009A4216D018339A4213D018339A4210D055
:1028B00018339A420DD018339A420AD018339A42EC
:1028C00007D018339A4204D022F0FF028265806D4F
:1028D000704710B4D3B2103B0D49A1FB03131B0981
:1028E00003F007010B4C615CC165032B06D80A4B52
:1028F00013408365806D5DF8044B7047064B1340B1
:1029000004338365F6E700BF100002402800024050
:10291000ABAAAAAAE0C3000800FCFFFF83699BB929
:10292000836A012B0AD01BB1022B01D00020704713
:10293000C36A13F0807F2ED100207047C36AB3F1C1
:10294000C07F2AD000207047B3F5005F06D0836AAD
:10295000022B2AD9032B16D000207047836A032B41
:1029600003D8DFE803F01C041C0A00207047C36A88
:1029700013F0807F15D100207047C36AB3F1C07F88
:1029800011D000207047C36A13F0807F01D001206E
:1029900070470020704701207047012070470120D8
:1029A00070470120704701207047012070470000E8
:1029B00003682249224A934218BF8B4228D014321E
:1029C000934225D01432934222D0143293421FD026
:1029D000143293421CD01432934219D014329342D1
:1029E00016D0DAB2103A1749A1FB021212091649A1
:1029F0001944A8291FD9154B13449B000366144B97
:102A0000436602F01F02012303FA02F28266704756
:102A1000DBB2083B0F4AA2FB03231B090E4A1A44F0
:102A2000920002660D4A426603F01F03012202FA79
:102A300003F3836670470832DDE700BF085402588D
:102A40001C540258ABAAAAAAF0FBFDBF00820010DA
:102A500080080240CDCCCCCC00960016805802589D
:102A600001794A1E072A2CD830B40368154D164C3C
:102A7000A34218BFAB4218D01434A34215D014346B
:102A8000A34212D01434A3420FD01434A3420CD06A
:102A90001434A34209D01434A34206D00B4B0B4488
:102AA0009B00C3660A4B036705E00A4B0B449B007F
:102AB000C366094B0367012303FA02F2426730BC85
:102AC00070477047085402581C5402583F82001047
:102AD000400902403F9600164059025870B504461E
:102AE000FEF7E6FC002C00F06D82054623688F4956
:102AF0008F4A8B4218BF934246D01832934243D03C
:102B00001832934240D0183293423DD0183293424B
:102B10003AD01832934237D01832934234D002F56B
:102B20005672934230D0183293422DD018329342CD
:102B30002AD01832934227D01832934224D0183228
:102B4000934221D0183293421ED0183293421BD0A8
:102B5000784A934218D01432934215D014329342DB
:102B600012D0143293420FD0143293420CD014324C
:102B7000934209D01432934206D01432934203D0C8
:102B8000D4216D48FEF757F8A268B2F1400318BF90
:102B90000123002A08BF002313B1802A40F0A2803D
:102BA000E368B3F5007F18BF002B40F0A0802369D5
:102BB000B3F5806F18BF002B40F09E806269B2F5BC
:102BC000006318BF0123002A08BF00231BB1B2F520
:102BD000805F40F09680A269B2F5005318BF0123D0
:102BE000002A08BF00231BB1B2F5804F40F08E8051
:102BF000E369B3F5807218BF0122002B08BF0022E1
:102C000042B1202B06D0B3F5802F03D0B3F5402F6F
:102C100040F08180226AB2F5803318BF0123002A78
:102C200008BF00232BB1B2F5003F02D0B2F5403F00
:102C300076D123683D493E4A934218BF8B4200F04B
:102C40008180183293427DD0183293427AD0183264
:102C5000934277D01832934274D01832934271D095
:102C6000183293426ED002F5567293426AD01832EF
:102C7000934267D01832934264D01832934261D0A5
:102C8000183293425ED0183293425BD0183293428E
:102C900058D01832934255D02649284A934218BF3B
:102CA0008B4200F03D81264A934200F03981143274
:102CB000934200F035811432934200F03181143296
:102CC000934200F02D811432934200F02981143296
:102CD000934200F0258140236365032384F8353057
:102CE0000120C8E0D5211448FDF7A5FF58E7D621FB
:102CF0001148FDF7A0FF5AE7D7210F48FDF79BFFCA
:102D00005CE7D8210C48FDF796FF64E7D9210A4813
:102D1000FDF791FF6CE7DA210748FDF78CFF79E7B3
:102D2000DB210548FDF787FF83E700BF1000024065
:102D30002800024008540258F0C400081C540258ED
:102D4000305402586368732B68D8626A131F18BF27
:102D50000123002A08BF0023002B64D1636A03B358
:102D6000A36A032B64D8E26AB2F5000318BF0123FB
:102D7000002A08BF00232BB1B2F1807F02D0B2F14C
:102D8000C07F5AD1226BB2F5001318BF0123002A6D
:102D900008BF00232BB1B2F5800F02D0B2F5C00FEF
:102DA00050D1002384F83430022384F8353023686E
:102DB0008549864A934218BF8B4248D018329342C5
:102DC00045D01832934242D0183293423FD0183245
:102DD00093423CD01832934239D01832934236D0C5
:102DE00002F55672934232D0183293422FD01832E5
:102DF00093422CD01832934229D01832934226D0D5
:102E00001832934223D01832934220D01832934282
:102E10001DD01A6822F001021A601CE0DF216C4804
:102E2000FDF709FF91E7E0216948FDF704FF95E709
:102E3000E5216748FDF7FFFE95E7E6216448FDF7C9
:102E4000FAFE9FE7E7216248FDF7F5FEA9E71A6859
:102E500022F001021A6023681A6812F0010F0BD0E9
:102E6000FEF726FB401B0528F5D9202363650323C5
:102E700084F83530012070BD1A6856481040A168AA
:102E8000E2680A4321690A4361690A43A1690A4366
:102E9000E1690A43216A0A430243616A042934D082
:102EA0001A602668756925F00705636A1D43042BBF
:102EB00007D1A36A1D43E36A1BB12046FFF72EFD2D
:102EC00040BB75612046FFF7CDFCE36D03F01F02A8
:102ED0003F23934083602046FFF76AFDA368802B61
:102EE00063D0236E22791A60636EA26E5A606368A3
:102EF000013B072B5CD90023E3662367636700204F
:102F00006065012384F83530B5E7E16A206B014341
:102F10000A43C5E740236365012084F83500AAE72A
:102F20006368112B10D8002384F83430022384F80E
:102F3000353021680B68284A1A40A368402B0CD012
:102F4000802B07D0002309E040F249112048FDF70B
:102F500072FEE8E74FF4804300E01023E06843EAA4
:102F6000D003206943EAD003606943EAD003A06933
:102F700043EAD003E06943EAD003206A43EA10132E
:102F800013430B602268154B1344154AA2FB03231D
:102F90001B099B00E3652046FFF764FCE36D03F02B
:102FA0001F0201239340436095E70023636098E785
:102FB0002046FFF755FDE36E00221A60236F626F13
:102FC0005A609CE7012056E71000024028000240AA
:102FD000F0C400083F8010FE0F00FEFFF8ABFDA715
:102FE000CDCCCCCC002800F0E48008B5024690F8A7
:102FF0003530DBB2022B03D080234365012008BDAE
:1030000003686E486E498B4218BF83420CBF012192
:10301000002100F08E803030834200F08A8018302A
:10302000834200F086801830834200F0828018309E
:1030300083427ED0183083427BD01830834278D0D0
:1030400000F55670834274D01830834271D0183026
:1030500083426ED0183083426BD01830834268D0E0
:103060001830834265D01830834262D018308342D2
:103070005FD0196821F00E0119601368A0F5956002
:103080004F498B4218BF83422AD04E498B4227D0EA
:1030900018318B4224D018318B4221D018318B4209
:1030A0001ED018318B421BD018318B4218D001F53D
:1030B00056718B4214D018318B4211D018318B428B
:1030C0000ED018318B420BD018318B4208D01831FA
:1030D0008B4205D018318B4202D018318B4263D11C
:1030E000196821F001011960116E0B6823F48073D7
:1030F0000B60906DD36D03F01F0101238B40436083
:10310000536E916E5960D36E33B1196821F480719A
:103110001960136F516F5960002382F83430012316
:1031200082F83530136D002B45D0104698470020AB
:1031300065E7042082F8350081BB224A93422DD0F6
:10314000183293422AD01832934227D01832934231
:1031500024D01832934221D0183293421ED002F567
:10316000567293421AD01832934217D018329342B3
:1031700014D01832934211D0183293420ED0183224
:1031800093420BD01832934208D01832934205D0A4
:103190001A6822F001021A60002030E71A6822F053
:1031A00001021A6000202AE7196821F00101196064
:1031B0009AE701207047002021E700BF100002407D
:1031C0002800024040000240F0B583B004460023CE
:1031D0000193A24B1D68A24BA3FB0535AD0A876D79
:1031E0003E68D7F800C003689E499F48834218BFD5
:1031F0008B420CBF0120002061D09C4A93425ED0DC
:10320000183293425BD01832934258D0183293420E
:1032100055D01832934252D0183293424FD002F513
:10322000567293424BD01832934248D01832934290
:1032300045D01832934242D0183293423FD01832D0
:1032400093423CD01832934239D01832934236D050
:103250008749884A934218BF8B4212D0864A9342CC
:103260000FD0143293420CD01432934209D014324E
:10327000934206D01432934203D01432934240F06A
:1032800062821A68E16D01F01F010420884010EA93
:103290000C0F00F0A88212F0040F00F0A4827860F6
:1032A00012F4004F00F05B8212F4803F40F0518234
:1032B000A36C002B00F047822046984743E2E26D62
:1032C00002F01F0108228A40324241D070BB674A97
:1032D00093422BD01832934228D01832934225D0F3
:1032E0001832934222D0183293421FD018329342A0
:1032F0001CD002F55672934218D01832934215D062
:103300001832934212D0183293420FD0183293429F
:103310000CD01832934209D01832934206D018329A
:10332000934203D01A68C2F3C00202E01A68C2F3E3
:1033300080026AB11A6822F004021A60E36D03F099
:103340001F0208239340BB60636D43F00103636574
:10335000E26D02F01F0226FA02F313F0010F37D0DC
:103360002368404840498B4218BF83422CD0183113
:103370008B4229D018318B4226D018318B4223D072
:1033800018318B4220D018318B421DD018318B421E
:103390001AD001F556718B4216D018318B4213D0DA
:1033A00018318B4210D018318B420DD018318B421E
:1033B0000AD018318B4207D018318B4204D0183113
:1033C0008B4201D01B6803E05B6913F0800F3BD197
:1033D000E36D03F01F03042202FA03F3334251D0DA
:1033E0002268204820498A4218BF824246D01831BC
:1033F0008A4243D018318A4240D018318A423DD0A7
:1034000018318A423AD018318A4237D018318A426C
:1034100034D001F556718A4230D018318A422DD00D
:1034200018318A422AD018318A4227D018318A426C
:1034300024D018318A4221D018318A421ED0183146
:103440008A421BD013681DE0012303FA02F2BA601E
:10345000636D43F002036365BAE700BF000000201C
:10346000B5814E1B1000024028000240400002407F
:10347000085402581C54025830540258126812F072
:10348000020F3DD1E36D03F01F03102202FA03F394
:1034900033425FD022689B489B498A4218BF8242D0
:1034A00034D018318A4231D018318A422ED01831A6
:1034B0008A422BD018318A4228D018318A4225D02E
:1034C00018318A4222D001F556718A421ED0183135
:1034D0008A421BD018318A4218D018318A4215D03E
:1034E00018318A4212D018318A420FD018318A42DC
:1034F0000CD018318A4209D01268C2F3800208E069
:10350000BB60636D43F004036365BBE71268C2F3FD
:10351000C002FAB1BB6023681A6812F4802F0DD084
:103520001B6813F4002F04D1236C9BB120469847ED
:1035300010E0A36C73B1204698470BE01A6812F4B0
:10354000807F03D11A6822F008021A60236C0BB145
:1035500020469847E36D03F01F03202202FA03F38D
:10356000334200F08E802268664867498A4218BF5D
:1035700082422ED018318A422BD018318A4228D06C
:1035800018318A4225D018318A4222D018318A4215
:103590001FD018318A421CD001F556718A4218D0CA
:1035A00018318A4215D018318A4212D018318A4215
:1035B0000FD018318A420CD018318A4209D0183104
:1035C0008A4206D018318A4203D01268C2F3400200
:1035D00002E01268C2F30012002A52D0BB6094F8D5
:1035E0003530DBB2042B0ED023681A6812F4802F1A
:1035F00035D01B6813F4002F2CD1636C002B40D006
:10360000204698473DE02268136823F016031360B4
:103610002268536923F080035361236CB3B122689D
:10362000136823F008031360E36D03F01F023F23C8
:103630009340BB60002384F83430012384F8353094
:10364000236D002B7FD0204698477CE0A36C002B95
:10365000E5D1E9E7E36BA3B12046984711E01A688A
:1036600012F4807F09D11A6822F010021A60002338
:1036700084F83430012384F83530E36B0BB12046F5
:103680009847636D002B5ED0636D13F0010F56D029
:10369000042384F8353023681A491B4A934218BF23
:1036A0008B4233D01832934230D0183293422DD00F
:1036B000183293422AD01832934227D018329342BC
:1036C00024D01832934221D002F5567293421DD075
:1036D000183293421AD01832934217D018329342BC
:1036E00014D01832934211D0183293420ED01832AF
:1036F00093420BD01832934208D01A6822F001028C
:103700001A6007E010000240280002401A6822F008
:1037100001021A60019B01330193AB4204D8236874
:103720001B6813F0010FF5D1002384F834302368AF
:103730001B6813F0010F08D0032384F83530E36CC5
:103740000BB12046984703B0F0BD012384F8353013
:10375000F5E7236C002BF6D020469847F3E712F0EC
:10376000200F35D123686449644A934218BF8B42C5
:103770002AD01832934227D01832934224D01832DC
:10378000934221D0183293421ED0183293421BD05C
:103790001832934218D002F55672934214D0183260
:1037A000934211D0183293420ED0183293420BD06C
:1037B0001832934208D01832934205D018329342FF
:1037C00002D01832934209D11A6822F008021A6016
:1037D000236C002BB7D020469847B4E71A6822F034
:1037E00004021A60F4E70220884010EA0C0F60D04F
:1037F00012F0020F5DD0786012F4004F0ED012F478
:10380000803F05D1636C002B9DD0204698479AE7F6
:10381000E36B002B97D02046984794E712F0200FD7
:103820003BD123683449354A934218BF8B422AD092
:103830001832934227D01832934224D01832934240
:1038400021D0183293421ED0183293421BD0183226
:10385000934218D002F55672934214D01832934214
:1038600011D0183293420ED0183293420BD0183236
:10387000934208D01832934205D01832934202D0B6
:103880001832934210D11A6822F014021A600023F1
:1038900084F83430012384F83530E36B002B3FF497
:1038A00052AF204698474EE71A6822F00A021A6083
:1038B000EDE7082000FA01F111EA0C0F3FF443AFE5
:1038C00012F0080F3FF43FAF1A6822F00E021A60A0
:1038D000E36D03F01F03012202FA03F37B606265CC
:1038E000002384F8343084F83520E36C002B3FF457
:1038F0002AAF2046984726E71000024028000240E1
:103900002DE9F04F83B005460C463F4A3F4B9042AD
:1039100018BF984214BF4FF0010A4FF0000A2BD095
:1039200003F50063C31A18BF012302F50062904239
:1039300022D00BB3364BC31A18BF012302F5006225
:10394000904219D0C3B1334BC31A18BF012302F5FB
:103950000062904210D07BB12F4BC31A18BF0123D5
:1039600002F50062904207D033B12C4B984203D04D
:10397000BB212B48FDF75FF9226893B213B1294BA5
:1039800013401BB1BC212648FDF755F96368112B84
:1039900018BF012B1CD9022B1AD0122B18D0224A87
:1039A000934215D002F58012934211D002F5801295
:1039B00093420DD0A2F5F812934209D002F580127D
:1039C000934205D002F58012934201D0032B04D11B
:1039D000A368022B06D8002661E0BD211048FDF740
:1039E0002AF9F5E7BE210E48FDF725F9F3E7CE21C8
:1039F0000B48FDF720F994E0E2210948FDF71BF997
:103A0000BDE0092313E000BF000002580004025883
:103A100000140258001C02580024025800280258C2
:103A200028C500080000FFFF0000111100238B4093
:103A3000034302328D4941F822308D4B1A68FB4313
:103A400003EA0201606810F4803F01D047EA0201F6
:103A5000874A1160516803EA0102606810F4003F70
:103A600001D047EA010282494A604FF0B042126831
:103A700003EA0201606810F4801F01D047EA0201E6
:103A80004FF0B042116052681340616811F4001F9A
:103A900001D047EA02034FF0B04253600136276875
:103AA00037FA06F300F0DF804FF0010808FA06F855
:103AB00018EA0707F2D06368122B18BF022B40D117
:103AC000BAF1000F29D06B4BEB1A18BF01236A4AD9
:103AD000954222D00BB3694BEB1A18BF012302F5B4
:103AE0000062954219D0C3B1654BEB1A18BF012390
:103AF00002F50062954210D07BB1624BEB1A18BF01
:103B0000012302F50062954207D033B15E4B9D421E
:103B100003D0CD215D48FDF78EF823690F2B3FF6CA
:103B200066AFF208083255F8220006F00703990044
:103B30000F238B4020EA030023698B40034345F8A1
:103B400022302A684FEA460B4FF0030909FA0BF9B5
:103B50006FEA090909EA0202636803F0030303FA42
:103B60000BF313432B6063685A1E112B18BF012AF5
:103B700001D9122B15D1E368032B3FF63DAFAA689C
:103B800009EA0202E36803FA0BF31343AB606B68C4
:103B900023EA08086368C3F30013B34043EA080349
:103BA0006B60EB6809EA0309A36803FA0BF343EAC5
:103BB0000903EB60636813F0805F3FF46FAF344B31
:103BC000D3F8F42042F00202C3F8F420D3F8F43022
:103BD00003F002030193019BB208911C234B53F89D
:103BE000210006F0030399000F238B4020EA030015
:103BF000284B9D423FF41AAF03F580639D4222D0CB
:103C000003F580639D4220D003F580639D421ED062
:103C100003F580639D421CD003F580639D421AD05A
:103C200003F580639D4218D003F580639D4216D052
:103C300003F580639D4214D003F580639D423FF4F9
:103C4000E0AE0A23F3E60123F1E60223EFE60323C5
:103C5000EDE60423EBE60523E9E60623E7E6072382
:103C6000E5E60823E3E603B0BDE8F08F0004005862
:103C700080000058000C0258000802580014025836
:103C8000001C0258002402580028025828C50008C9
:103C9000004402580000025870B5064615460C460E
:103CA00029B1012D09D875B92404B46170BD40F261
:103CB000AD110648FCF7BFFFF3E74FF4D771034897
:103CC000FCF7B9FFEFE7B461F0E700BF28C50008D3
:103CD0007047000008B5054B9B68034200D108BD42
:103CE000024B9860FFF7F4FFF9E700BF800000582F
:103CF00010B50446431E012B0CD8154BDB6813F09E
:103D0000040F0CD1124BDB6803F00703A34206D06B
:103D1000012010BDEF210F48FCF78DFFEDE70C4BA4
:103D2000D86820F007002043D860FDF7C1FB0446A7
:103D3000074B5B6813F4005F07D1FDF7B9FB001B6D
:103D4000B0F57A7FF4D90320E3E70020E1E700BF74
:103D50000048025864C50008002800F08A8338B57E
:103D60000446036813B113F03F0F28D0236813F003
:103D7000010F3DD06268B2F5803318BF0123002ADD
:103D800008BF002313B1B2F5A02F1ED1A84A1369B2
:103D900003F03803926A102B21D0182B1BD06368D4
:103DA000B3F5803F57D0002B6BD1A14B1A6822F49A
:103DB00080321A601A6822F480221A6050E04FF4B0
:103DC000B8719C48FCF737FFD0E740F2751199486D
:103DD000FCF731FFDAE702F00302022ADFD1944B4D
:103DE0001B6813F4003F03D06368002B00F043838B
:103DF000236813F0020F00F0A680E368092B18BFB8
:103E0000012B03D9112B01D0192B60D123697F2BF2
:103E100063D8874A1369926A13F0380366D0182B67
:103E200061D0E368002B00F0E38081490A6822F04A
:103E3000190213430B60FDF73BFB05467C4B1B68E7
:103E400013F0040F40F0BC80FDF732FB401B02284A
:103E5000F4D9032068E0764A136843F48033136092
:103E600063682BB3FDF724FB0546714B1B6813F405
:103E7000003FBDD1FDF71CFB401B6428F5D9032092
:103E800052E0B3F5A02F09D0694B1A6822F48032B2
:103E90001A601A6822F480221A60E1E7644B1A68FB
:103EA00042F480221A601A6842F480321A60D7E71E
:103EB000FDF7FEFA05465E4B1B6813F4003F97D0F2
:103EC000FDF7F6FA401B6428F5D903202CE040F2F8
:103ED000A9115848FCF7AFFE98E74FF4D571554843
:103EE000FCF7A9FE95E712F0030F9AD1504B1B681F
:103EF00013F0040F03D0E368002B00F0BE824C4A9D
:103F0000136823F01903E1680B431360FDF7D0FA3F
:103F10000546474B1B6813F0040F06D1FDF7C8FA9E
:103F2000401B0228F5D9032038BDFDF7DBFA41F22A
:103F3000030398423BD83E4A536823F47C332169FB
:103F400043EA01335360236813F0100F00F09080B0
:103F5000E269B2F1800318BF0123002A08BF0023E1
:103F6000002B59D1236A1F2B5CD8314A136903F007
:103F70003803926A082B63D0182B5DD0E369002BBD
:103F800000F0B5802A4A136843F080031360FDF700
:103F90008FFA0546264B1B6813F4807F40F08F8014
:103FA000FDF786FA401B0228F4D90320BCE7204A1B
:103FB000536823F0FE43216943EA01635360C2E77B
:103FC000FDF790FA41F20303984208D8184A536863
:103FD00023F47C33216943EA01335360B3E7144A85
:103FE000536823F0FE43216943EA01635360AAE763
:103FF0000F4A136823F001031360FDF759FA0546D1
:104000000B4B1B6813F0040F9DD0FDF751FA401BBA
:104010000228F5D9032087E74FF4FD710548FCF726
:104020000AFE9FE740F2FB110248FCF704FE9CE702
:1040300000440258A0C5000802F00302012A9DD1E5
:10404000954B1B6813F4807F04D0E369802B01D06B
:10405000012069E7FDF746FA41F20303984225D8AB
:104060008D4A536823F0F843216A43EA8163536021
:10407000236813F0080F68D06369012B4BD863697C
:10408000002B4ED0844A536F43F001035367FDF772
:104090000FFA0546804B5B6F13F0020F55D1FDF709
:1040A00007FA401B0228F5D903203DE77A4AD36876
:1040B00023F07C53216A43EA0163D360D8E7FDF71C
:1040C00011FA41F20303984208D8734A536823F067
:1040D000F843216A43EA81635360C9E76E4AD368B3
:1040E00023F07C53216A43EA0163D360C0E76A4A44
:1040F000136823F080031360FDF7DAF90546664B79
:104100001B6813F4807FB3D0FDF7D2F9401B02285F
:10411000F5D9032008E74FF40F716048FCF78BFDD9
:10412000ADE75D4A536F23F001035367FDF7C0F914
:104130000546594B5B6F13F0020F06D0FDF7B8F937
:10414000401B0228F5D90320EEE6236813F0200F68
:1041500032D0A369012B15D8A369CBB14E4A13689D
:1041600043F480531360FDF7A3F905464A4B1B68DF
:1041700013F4005F20D1FDF79BF9401B0228F5D90D
:104180000320D1E640F267214448FCF754FDE3E701
:10419000414A136823F480531360FDF789F90546FB
:1041A0003D4B1B6813F4005F06D0FDF781F9401BFF
:1041B0000228F5D90320B7E6236813F0040F71D065
:1041C000A368052B18BF012B13D8354A136843F495
:1041D00080731360FDF76CF90546314B1B6813F4CF
:1041E000807F0CD1FDF764F9401B6428F5D90320CA
:1041F0009AE640F291212948FCF71DFDE5E7A36806
:10420000012B0AD00BBB244B1A6F22F001021A6754
:104210001A6F22F004021A6704E01F4A136F43F07A
:1042200001031367A36833B3FDF742F905461A4B40
:104230001B6F13F0020F35D1FDF73AF9401B41F225
:1042400088339842F3D903206EE6052B09D0124B30
:104250001A6F22F001021A671A6F22F004021A671D
:10426000E0E70D4B1A6F42F004021A671A6F42F032
:1042700001021A67D6E7FDF71BF90546064B1B6FCF
:1042800013F0020F0ED0FDF713F9401B41F28833F3
:104290009842F3D9032047E600440258A0C500081D
:1042A00000480258636A022B41D8636A002B00F071
:1042B000E680754A126902F03802182A00F0E1809F
:1042C000022B40F0C080A36A032B18BF012B01D939
:1042D000022B32D1E36A013B3E2B34D8236B043BE3
:1042E000B3F5FE7F35D8636B013B7F2B37D8A36BCB
:1042F000013B7F2B39D8E36B013B7F2B3BD8A36C71
:10430000B3F5005F3DD2604A136823F080731360F9
:10431000FDF7CEF805465C4B1B6813F0007F36D0E6
:10432000FDF7C6F8401B0228F5D90320FCE540F252
:10433000C3215648FCF77FFCB7E74FF4337153486D
:10434000FCF779FCC6E740F2CD215048FCF773FC3E
:10435000C4E740F2CE214D48FCF76DFCC3E740F2C4
:10436000CF214A48FCF767FCC1E74FF43471474856
:10437000FCF761FCBFE740F2D1214448FCF75BFC4D
:10438000BDE740F2D2214148FCF755FCBBE73E4B6C
:10439000996A3F4A0A40A16AE06A41EA00110A4369
:1043A0009A62226B013AC2F30802616B0139490239
:1043B00089B20A43A16B0139090401F4FE010A43E1
:1043C000E16B0139090601F0FE410A431A63DA6A1A
:1043D00022F00102DA62596B2E4A0A40A16C42EACD
:1043E000C1025A63DA6A22F00C02216C0A43DA62D3
:1043F000DA6A22F00202616C0A43DA62DA6A42F493
:104400008032DA62DA6A42F40032DA62DA6A42F45C
:104410008022DA62DA6A42F00102DA621A6842F055
:1044200080721A60FDF744F80446174B1B6813F0BE
:10443000007F06D1FDF73CF8001B0228F5D90320C8
:1044400072E5002070E5104A136823F08073136052
:10445000FDF72EF804460C4B1B6813F0007F06D0C6
:10446000FDF726F8001B0228F5D903205CE50020A3
:104470005AE501207047012056E5012054E500204F
:1044800052E5012050E500BF00440258A0C50008D5
:104490000CFCFFFF0700FFFF724B1B6903F03803A2
:1044A000102B00F0DB80182B10D00BB16E4870473A
:1044B0006C4B1B6813F0200F00F0D280694B18681A
:1044C000C0F3C100694B23FA00F07047654A916A56
:1044D00001F00301906AC0F30510D36A03F00103F1
:1044E000526BC2F3CC0203FB02F307EE903AF8EEF4
:1044F000677A002800F0B580012966D0F9B1022959
:1045000000F08F8007EE100AF8EE476A9FED586AB8
:1045100086EE267A534B1B6BC3F3080306EE903AE4
:10452000F8EE666A9FED536A67EE867A76EEA77AB2
:10453000F7EE006A77EEA67A27EE277A61E0494B1C
:104540001B6813F0200F23D046490A68C2F3C1024A
:10455000464BD34007EE103AF8EE476A07EE100AD2
:10456000B8EE476A86EE867A0B6BC3F3080306EE55
:10457000903AF8EE666A9FED3F6A67EE867A76EECD
:10458000A77AF7EE006A77EEA67A27EE277A38E068
:1045900007EE100AF8EE476A9FED376A86EE267A34
:1045A000304B1B6BC3F3080306EE903AF8EE666AD5
:1045B0009FED306A67EE867A76EEA77AF7EE006AAC
:1045C00077EEA67A27EE277A1BE007EE100AF8EEC0
:1045D000476A9FED276A86EE267A224B1B6BC3F350
:1045E000080306EE903AF8EE666A9FED226A67EEDF
:1045F000867A76EEA77AF7EE006A77EEA67A27EE4D
:10460000277A184B1B6BC3F34623013307EE903A0E
:10461000F8EE677AC7EE276AFCEEE67A17EE900AA4
:10462000704707EE100AF8EE476A9FED146A86EEAF
:10463000267A0C4B1B6BC3F3080306EE903AF8EE98
:10464000666A9FED0C6A67EE867A76EEA77AF7EED9
:10465000006A77EEA67A27EE277AD2E708487047F5
:10466000024870470044025800093D000090D00302
:104670000024744A000000390024744C0024F44AD9
:1046800000127A00002800F05C8270B504460D46E6
:104690000368013B3E2B14D80F2D18D8A84B1B687C
:1046A00003F00F03AB4218D2A54A136823F00F039F
:1046B0002B431360136803F00F03AB420DD00120AE
:1046C00070BD40F252319F48FCF7B5FAE4E740F282
:1046D00053319C48FCF7AFFAE0E7236813F0040F6E
:1046E0001CD02269984B9B6903F070039A4215D93C
:1046F000B2F1400318BF0123002A08BF002333B1E1
:10470000502A04D0602A02D0702A40F0CF808E4A0E
:10471000936923F0700321690B439361236813F0BD
:10472000080F1CD06269884BDB6903F070039A4262
:1047300015D9B2F1400318BF0123002A08BF002396
:1047400033B1502A04D0602A02D0702A40F0B480DD
:104750007D4AD36923F0700361690B43D3612368F9
:1047600013F0100F1FD0A269774BDB6903F4E063ED
:104770009A4218D9B2F5806318BF0123002A08BFF6
:1047800000234BB1B2F5A06F06D0B2F5C06F03D0D5
:10479000B2F5E06F40F096806B4AD36923F4E06392
:1047A000A1690B43D361236813F0200F1BD0E2698A
:1047B000654B1B6A03F070039A4214D9B2F14003AF
:1047C00018BF0123002A08BF00232BB1502A03D0B1
:1047D000602A01D0702A7BD15B4A136A23F07003F0
:1047E000E1690B431362236813F0020F23D0E268E0
:1047F000554B9B6903F00F039A421CD9B2F1080391
:1048000018BF0123002A08BF00236BB1092A0BD06F
:104810000A2A09D00B2A07D00C2A05D00D2A03D06A
:104820000E2A01D00F2A59D1474A936923F00F036A
:10483000E1680B439361236813F0010F00F094804B
:10484000A368B3F5006218BF0122002B08BF002245
:10485000A2B1B3F5106F11D0B3F5206F0ED0B3F540
:10486000306F0BD0B3F5406F08D0B3F5506F05D063
:10487000B3F5606F02D0B3F5706F35D16368032B69
:1048800038D8314A936923F47063A1680B4393616C
:104890006368022B34D0032B58D0012B5DD02A4AF9
:1048A000126812F0040F30D1012009E740F26E3196
:1048B0002448FCF7C0F92AE74FF45E712148FCF761
:1048C000BAF945E740F282311E48FCF7B4F963E7D4
:1048D0004FF463711B48FCF7AEF97DE740F2973166
:1048E0001848FCF7A8F99FE740F29F311548FCF7FC
:1048F000A2F9C3E74FF468711248FCF79CF9C0E7CE
:10490000126812F4003F00F01E810F490A6922F07C
:10491000070213430B61FCF7CBFD06460A4B1B69EC
:1049200003F038036268B3EBC20F1DD0FCF7C0FD83
:10493000801B41F288339842F0D90320C0E600BFC3
:1049400000200052A0C50008004402587F4A1268A7
:1049500012F0007FD9D10120B2E67C4A126812F42D
:10496000807FD2D10120ABE6236813F0020F23D061
:10497000E268764B9B6903F00F039A421CD2B2F1B6
:10498000080318BF0123002A08BF00236BB1092ABE
:104990000BD00A2A09D00B2A07D00C2A05D00D2AE1
:1049A00003D00E2A01D00F2A19D1684A936923F047
:1049B0000F03E1680B439361654B1B6803F00F0322
:1049C000AB4212D9624A136823F00F032B431360E2
:1049D000136803F00F03AB4207D0012070E64FF4D9
:1049E00077715C48FCF727F9DFE7236813F0040FC1
:1049F0001BD02269554B9B6903F070039A4214D275
:104A0000B2F1400318BF0123002A08BF00232BB1D5
:104A1000502A03D0602A01D0702A7AD14B4A936978
:104A200023F0700321690B439361236813F0080F8F
:104A30001BD06269454BDB6903F070039A4214D2C4
:104A4000B2F1400318BF0123002A08BF00232BB195
:104A5000502A03D0602A01D0702A60D13B4AD36922
:104A600023F0700361690B43D361236813F0100FC7
:104A70001ED0A269354BDB6903F4E0639A4217D27A
:104A8000B2F5806318BF0123002A08BF002343B199
:104A9000B2F5A06F05D0B2F5C06F02D0B2F5E06FED
:104AA00043D12A4AD36923F4E063A1690B43D3615C
:104AB000236813F0200F1BD0E269244B1B6A03F01C
:104AC00070039A4214D2B2F1400318BF0123002AA6
:104AD00008BF00232BB1502A03D0602A01D0702ACE
:104AE00029D11A4A136A23F07003E1690B43136258
:104AF000FFF7D2FC154B9B69C3F30323164AD35C23
:104B000003F01F03D840154B18600020FCF770FC21
:104B1000D6E54FF47D710F48FCF78DF87EE740F243
:104B2000FE310C48FCF787F898E74FF4816109489B
:104B3000FCF781F8B5E740F212410648FCF77BF834
:104B4000CFE7012070470120BAE500BF00440258BA
:104B500000200052A0C50008D0C3000800000020BB
:104B600008B501F0C3FC064B9B6903F00F03054A2F
:104B7000D35C03F01F03D840034B186008BD00BF8F
:104B800000440258D0C300080400002008B5FFF715
:104B9000E7FF054BDB69C3F30213044AD35C03F060
:104BA0001F03D84008BD00BF00440258D0C300080E
:104BB00008B5FFF7D5FF054BDB69C3F30223044AB1
:104BC000D35C03F01F03D84008BD00BF0044025867
:104BD000D0C3000870B504460D460368013B3E2B68
:104BE00046D86368043BB3F5FE7F47D8A368013B12
:104BF0007F2B49D82369013B7F2B4BD8E368013BCE
:104C00007F2B4DD86269B2F1400318BF0123002AFF
:104C100008BF00231BB1802A01D0C02A46D1A26957
:104C2000B2F1200318BF0123002A08BF0023002B84
:104C300042D1E369B3F5005F44D2584B9B6A03F05D
:104C40000303032B00F0A780544A136823F080630A
:104C50001360FCF72DFC0646504B1B6813F0006FE9
:104C600036D0FCF725FC801B0228F5D9032093E001
:104C700040F66B214A48FBF7DEFFB2E740F66C21B5
:104C80004748FBF7D8FFB1E740F66D214448FBF7F2
:104C9000D2FFAFE740F66E214148FBF7CCFFADE70E
:104CA00040F66F213E48FBF7C6FFABE74FF42761A4
:104CB0003B48FBF7C0FFB2E740F671213848FBF7ED
:104CC000BAFFB6E740F672213548FBF7B4FFB4E708
:104CD000324B9A6A22F47C32216842EA01329A62AB
:104CE0006268013AC2F30802A1680139490289B237
:104CF0000A43E1680139090401F4FE010A4321690C
:104D00000139090601F0FE410A439A63DA6A22F08A
:104D1000C00261690A43DA62DA6A22F02002A169FC
:104D20000A43DA62DA6A22F01002DA62D96B1D4AAB
:104D30000A40E16942EAC102DA63DA6A42F010022B
:104D4000DA62C5B91A46DB6A43F40023D362134A18
:104D5000136843F080631360FCF7AAFB04460F4B13
:104D60001B6813F0006F14D1FCF7A2FB001B022894
:104D7000F5D9032010E0012D05D0084AD36A43F489
:104D80000013D362E3E7054AD36A43F48013D36286
:104D9000DDE7002000E0012070BD00BF00440258A4
:104DA000D8C500080700FFFF70B504460D4603682C
:104DB000013B3E2B48D86368043BB3F5FE7F49D8DE
:104DC000A368013B7F2B4BD82369013B7F2B4DD838
:104DD000E368013B7F2B4FD86269B2F5806318BF4F
:104DE0000123002A08BF00232BB1B2F5006F02D0C7
:104DF000B2F5406F46D1A269B2F5007318BF012326
:104E0000002A08BF0023002B42D1E369B3F5005FFD
:104E100044D2584B9B6A03F00303032B00F0A78096
:104E2000544A136823F080531360FCF741FB064695
:104E3000504B1B6813F0005F36D0FCF739FB801B2A
:104E40000228F5D9032093E040F6D3214A48FBF726
:104E5000F2FEB0E740F6D4214748FBF7ECFEAFE79F
:104E600040F6D5214448FBF7E6FEADE740F6D621F3
:104E70004148FBF7E0FEABE740F6D7213E48FBF7A1
:104E8000DAFEA9E740F6D8213B48FBF7D4FEB2E7AB
:104E900040F6D9213848FBF7CEFEB6E740F6DA21D6
:104EA0003548FBF7C8FEB4E7324B9A6A22F07C72B1
:104EB000216842EA01529A626268013AC2F308022A
:104EC000A1680139490289B20A43E168013909043C
:104ED00001F4FE010A4321690139090601F0FE418E
:104EE0000A431A64DA6A22F4406261690A43DA62A8
:104EF000DA6A22F40072A1690A43DA62DA6A22F4F9
:104F00008072DA62596C1D4A0A40E16942EAC102C4
:104F10005A64DA6A42F48072DA62C5B91A46DB6A08
:104F200043F48003D362134A136843F08053136041
:104F3000FCF7BEFA04460F4B1B6813F0005F14D158
:104F4000FCF7B6FA001B0228F5D9032010E0012D6A
:104F500005D0084AD36A43F08073D362E3E7054A79
:104F6000D36A43F40003D362DDE7002000E00120B0
:104F700070BD00BF00440258D8C500080700FFFFFD
:104F8000F8B50446036813F0006F2BD0436EB3F5F9
:104F9000801F18D007D9B3F5001F1DD0B3F5401FEF
:104FA0002ED1002506E05BBB934AD36A43F400335D
:104FB000D3620025904A136D23F44013616E0B43B6
:104FC0001365002610E002210430FFF703FE0546BA
:104FD000002DEFD02E4607E002212430FFF7E4FE3B
:104FE0000546F5E700263546236813F4807F17D081
:104FF000636D042B32D8DFE803F006242A0B0B0084
:1050000001263546F0E77C4AD36A43F40033D36285
:105010003DBB794A136D23F00703616D0B431365A4
:10502000236813F4007F33D0A36D802B44D01AD8AB
:105030000BB3402B1CD10021201DFFF7CBFD0546F3
:105040001EE00021201DFFF7C5FD0546E0E7002119
:1050500004F12400FFF7A8FE0546D9E701263546EE
:10506000DEE72E46DCE7C02B0AD0B3F5807F07D001
:10507000012635460CE0604AD36A43F40033D3621C
:105080000DBB5D4A136D23F4E073A16D0B431365F3
:10509000236813F4806F2FD0D4F8A430B3F5800FB9
:1050A0003ED012D8D3B1B3F5001F14D10021201D7A
:1050B000FFF790FD054616E0002104F12400FFF7FC
:1050C00073FE0546DCE72E46E2E7B3F5C00F0AD0D3
:1050D000B3F5000F07D0012635460DE0464AD36AE6
:1050E00043F40033D36215BB434A936D23F460034A
:1050F000D4F8A4100B439365236813F4006F2FD0EA
:10510000D4F8A830B3F1007F37D012D8D3B1B3F1BF
:10511000807F14D10021201DFFF75CFD054616E0BD
:10512000002104F12400FFF73FFE0546DBE72E4691
:10513000E2E7B3F1407F0AD0B3F1806F07D00126D8
:1051400035460DE02C4AD36A43F40033D362DDB90F
:10515000294A936D23F0E063D4F8A8100B439365BC
:10516000236813F0007F2AD0A36C102B12D00DD926
:10517000202B1DD0302B12D009E0002104F1240097
:10518000FFF712FE0546E2E72E46E9E73BB10126AE
:10519000354614E0184AD36A43F40033D3626DB93C
:1051A000154AD36C23F03003A16C0B43D36406E0A3
:1051B0000221201DFFF70EFD0546F0E72E4623686D
:1051C00013F4805F27D0E36DB3F5005F3ED009D8BC
:1051D000A3B1B3F5805F0BD10021201DFFF7FAFCCE
:1051E000054610E0B3F5405F0DD0B3F5804F0AD00F
:1051F000012635460FE000BF004402585D4AD36ADD
:1052000043F40033D36245BB5A4A136D23F4E043A1
:10521000E16D0B431365236813F4005F33D0236EF5
:10522000B3F5003F27D01AD83BB1B3F5803F1FD16B
:105230000121201DFFF7CEFC05461DBB4D4A136D15
:1052400023F4E023216E0B4313651CE0002104F1DD
:105250002400FFF7A9FD0546D5E72E46DBE7B3F5A9
:10526000802FEAD0B3F5A02FE7D0B3F5403FE4D0CC
:105270000126354607E0012104F12400FFF794FDE3
:105280000546DAE72E46236813F4804F2CD0D4F875
:10529000AC30B3F1005F1FD012D83BB1B3F1805FE7
:1052A00017D10121201DFFF795FC0546DDB9314AD4
:1052B000936D23F0E043D4F8AC100B43936513E0F7
:1052C000B3F1804FF2D0B3F1A04FEFD0B3F1405F14
:1052D000ECD00126354607E0012104F12400FFF758
:1052E00063FD0546E2E72E46236813F4004F1FD006
:1052F000E36EB3F1805F06D0B3F1005F11D03BB134
:105300000126354614E01B4AD36A43F40033D362C6
:105310006DB9184A136D23F04053E16E0B431365CA
:1053200006E00121201DFFF755FC0546F0E72E465B
:10533000236813F0807F20D0636C032B17D8DFE83D
:1053400003F0070210070B4AD36A43F40033D36219
:1053500095B9084AD36C23F00303616C0B43D36403
:105360000BE00221201DFFF735FC0546F0E7012682
:10537000354602E0004402582E46236813F4800F9D
:1053800000F07881D4F8B030B3F5807F18BFB3F562
:10539000007F00F00D81B3F50C5F00F00981B3F5DB
:1053A0004C5F00F00581B3F5864F00F00181B3F545
:1053B000A64F00F0FD80B3F5C64F00F0F980B3F5BD
:1053C000E64F00F0F580B3F5034F00F0F180B3F540
:1053D000134F00F0ED80B3F5234F00F0E980B3F5F3
:1053E000334F00F0E580B3F5434F00F0E180B3F5B3
:1053F000534F00F0DD80B3F5634F00F0D980B3F573
:10540000734F00F0D580B24A934200F0D18002F58C
:105410008052934200F0CC8002F58052934200F01B
:10542000C78002F58052934200F0C28002F580529C
:10543000934200F0BD8002F58052934200F0B880A4
:1054400002F58052934200F0B38002F580529342FD
:1054500000F0AE8002F58052934200F0A98002F580
:105460008052934200F0A48002F58052934200F0F3
:105470009F8002F58052934200F09A8002F580529C
:10548000934200F0958002F58052934200F09080A4
:1054900002F58052934200F08B8002F580529342D5
:1054A00000F0868002F58052934200F0818002F580
:1054B000805293427CD002F58052934278D002F51C
:1054C0008052934274D002F58052934270D002F51C
:1054D000805293426CD002F58052934268D002F51C
:1054E0008052934264D002F58052934260D002F51C
:1054F000805293425CD002F58052934258D002F51C
:105500008052934254D002F58052934250D002F51B
:10551000805293424CD002F58052934248D002F51B
:105520008052934244D002F58052934240D002F51B
:10553000805293423CD002F58052934238D002F51B
:105540008052934234D002F58052934230D002F51B
:10555000805293422CD002F58052934228D002F51B
:105560008052934224D002F58052934220D002F51B
:10557000805293421CD002F58052934218D002F51B
:105580008052934214D002F58052934210D002F51B
:10559000805293420CD002F58052934208D002F51B
:1055A0008052934204D04FF42F714A48FBF743FBDB
:1055B000494A136843F480731360FBF779FF074689
:1055C000454B1B6813F4807F05D1FBF771FFC01BAF
:1055D0006428F5D90325002D4BD1404B1B6FD4F81F
:1055E000B020534013F4407F0CD03C4B1A6F22F490
:1055F0004072196F41F480311967196F21F48031BD
:1056000019671A67D4F8B030B3F5807F16D0002D33
:105610004ED1D4F8B03003F44072B2F5407F1ED0C2
:105620002E4A136923F47C5313612C490B6FD4F871
:10563000B020C2F30B0213430B671BE0FBF738FFEC
:105640000746264B1B6F13F0020FE0D1FBF730FF2C
:10565000C01B41F288339842F3D90325D7E71F488E
:10566000026922F47C521E4901EA131313430361B9
:10567000DBE72E46236813F0010F3ED0A36F282BE3
:1056800037D8DFE803F01C3636363636363617366E
:105690003636363636362F363636363636361C36CB
:1056A0003636363636361C363636363636361C0004
:1056B0002E46DFE70121201DFFF78CFA0546DDB9F4
:1056C000064A536D23F03803A16F0B43536514E072
:1056D00000030100D8C500080048025800440258E1
:1056E000CFFFFF00012104F12400FFF75DFB054619
:1056F000E5E70126354600E02E46236813F0020F49
:1057000020D0636F052B19D8DFE803F008031108D8
:1057100008080121201DFFF75DFA05468DB9AD4A45
:10572000536D23F00703616F0B4353650AE00121BA
:1057300004F12400FFF738FB0546EFE70126354664
:1057400000E02E46236813F0040F22D0D4F89030E6
:10575000052B1AD8DFE803F0080312080808012116
:10576000201DFFF737FA054695B99A4A936D23F045
:105770000703D4F890100B4393650AE0012104F16C
:105780002400FFF711FB0546EEE70126354600E051
:105790002E46236813F0200F2CD0D4F88C30B3F1B0
:1057A000005F1FD012D83BB1B3F1805F17D1002149
:1057B000201DFFF70FFA0546DDB9864A536D23F029
:1057C000E043D4F88C100B43536513E0B3F1804FE2
:1057D000F2D0B3F1A04FEFD0B3F1405FECD001268F
:1057E000354607E0022104F12400FFF7DDFA054603
:1057F000E2E72E46236813F0400F2CD0D4F89830FF
:10580000B3F5006F1FD012D83BB1B3F5806F17D13D
:105810000021201DFFF7DEF90546DDB96D4A936DC5
:1058200023F4E053D4F898100B43936513E0B3F5D9
:10583000805FF2D0B3F5A05FEFD0B3F5406FECD04E
:105840000126354607E0022104F12400FFF7ACFAF7
:105850000546E2E72E46236813F0800F2CD0D4F8DB
:105860009C30B3F5804F1FD012D83BB1B3F5005F29
:1058700017D10021201DFFF7ADF90546DDB9554AC6
:10588000936D23F46043D4F89C100B43936513E0AD
:10589000B3F5004FF2D0B3F5204FEFD0B3F5C04FC2
:1058A000ECD00126354607E0022104F12400FFF781
:1058B0007BFA0546E2E72E46236813F0080F16D060
:1058C000D4F88030B3F5805F18BFB3F5005F03D024
:1058D00013B1B3F5405F35D1D4F88030B3F5805FB4
:1058E00036D03C494A6D22F4405213434B6523683D
:1058F00013F0100F16D0D4F89430B3F5807F18BF92
:10590000B3F5007F03D013B1B3F5405F29D1D4F8CC
:105910009430B3F5807F2AD02E498A6D22F44072EC
:1059200013438B65236813F4002F40D0D4F8A030C4
:10593000B3F5803F33D0B3F5003F26D003B3012643
:10594000354634E040F23A412348FBF774F9C3E7A7
:10595000022104F12400FFF727FA0028C7D001260E
:10596000C5E740F24F411C48FBF765F9CFE702213C
:1059700004F12400FFF718FA0028D3D00126D1E75C
:105980000021201DFFF726F905467DB9114A936DC8
:1059900023F44033D4F8A0100B43936507E00221B1
:1059A00004F12400FFF700FA0546EEE72E462368CF
:1059B00013F4802F29D0D4F88430B3F5001F1CD005
:1059C000B3F5401F0FD0B3F5801F07D00126354631
:1059D0001BE000BF00440258D8C50008844AD36ABF
:1059E00043F40033D3627DB9814A536D23F44013ED
:1059F000D4F884100B43536507E0012104F124001F
:105A0000FFF7D2F90546EEE72E46236813F4803FF0
:105A100023D0E26CB2F5803318BF0123002A08BFFF
:105A200000233BB9E36C5BB1B3F5803F29D001267D
:105A3000354612E040F2B7416E48FBF7FCF8F1E75B
:105A40006B4AD36A43F40033D36205BB684AD36C14
:105A500023F48033E16C0B43D364236813F0005FBD
:105A600017D1236813F4003F2DD0E36FB3F5807F87
:105A70001BD017D9B3F5007F1CD0B3F5407F12D1EE
:105A800018E00221201DFFF7A5F80546DDE72E46A8
:105A9000E3E7022104F12400FFF786F90028E0D0B3
:105AA0000126DEE733B101260DE0514AD36A43F403
:105AB0000033D362002D66D14D4A536D23F44073F9
:105AC000E16F0B435365236813F4801F10D0226FDE
:105AD00012F1004318BF0123002A08BF0023002B46
