:020000040800F2
:100000000000022071820008B50C0008B70C00083F
:10001000B90C0008BB0C0008BD0C00080000000073
:10002000000000000000000000000000BF0C0008FD
:10003000C10C000800000000C30C0008C50C00083B
:10004000C1820008C1820008C1820008C182000884
:10005000C1820008C1820008C1820008C182000874
:10006000C1820008C1820008C1820008CD0C0008CE
:10007000C1820008C1820008C1820008C182000854
:10008000C1820008C1820008C1820008C182000844
:10009000C1820008C1820008C1820008C182000834
:1000A000DD0C0008C1820008ED0C0008C1820008C8
:1000B000FD0C0008C1820008C1820008C18200084E
:1000C000C1820008C1820008C18200080D0D00082D
:1000D000C1820008C1820008C1820008C1820008F4
:1000E0001D0D0008C182000800000000C182000848
:1000F000C1820008C1820008C1820008C1820008D4
:10010000C1820008C1820008C1820008C1820008C3
:10011000C1820008C1820008290D0008C1820008C0
:10012000C1820008C1820008C1820008C1820008A3
:10013000C1820008C1820008C1820008C182000893
:1001400000000000000000000000000000000000AF
:10015000C1820008C1820008C1820008C182000873
:10016000C1820008C1820008C1820008C182000863
:10017000C1820008C1820008C1820008000000009E
:10018000C1820008C1820008C1820008C182000843
:10019000C1820008C1820008C1820008C182000833
:1001A000C1820008C1820008C1820008C182000823
:1001B000C1820008C1820008C1820008C182000813
:1001C000C1820008C1820008C1820008C182000803
:1001D000C1820008C1820008C1820008C1820008F3
:1001E000C1820008C1820008C1820008C1820008E3
:1001F000C1820008C1820008C1820008C1820008D3
:10020000C1820008C1820008C1820008C1820008C2
:10021000C1820008C1820008C1820008C1820008B2
:10022000C1820008C1820008C182000800000000ED
:10023000C1820008C182000800000000C1820008DD
:10024000C1820008C1820008C1820008C182000882
:10025000C1820008C1820008C1820008C182000872
:10026000C1820008C1820008C1820008C182000862
:10027000C1820008C1820008C1820008000000009D
:10028000C1820008C1820008C1820008000000008D
:0802900000000000C18200081B
:1002A00010B5054C237833B9044B13B10448AFF3B0
:1002B00000800123237010BDE0000020000000003A
:1002C000F090000808B5034B1BB103490348AFF396
:1002D000008008BD00000000E4000020F09000084D
:1002E00053B94AB9002908BF00281CBF4FF0FF319D
:1002F0004FF0FF3000F072B9ADF1080C6DE904CE9B
:1003000000F006F8DDF804E0DDE9022304B07047F0
:100310002DE9F047089E04468846002B4BD18A42BF
:10032000154667D9B2FA82F24AB1C2F1200701FA42
:1003300002F320FA07F7954047EA030894404FEA92
:10034000154E230CB8FBFEF71FFA85FC0EFB178831
:1003500043EA084307FB0CF1994209D9EB1807F16E
:10036000FF3080F01B81994240F21881023F2B44FC
:100370005B1AA4B2B3FBFEF00EFB103344EA034455
:1003800000FB0CFCA44509D92C1900F1FF3380F0C7
:100390000781A44540F2048102382C4440EA07401A
:1003A000A4EB0C0400271EB1D4400023C6E900438F
:1003B0003946BDE8F0878B4209D9002E00F0EB806A
:1003C0000027C6E9000138463946BDE8F087B3FA90
:1003D00083F7002F47D18B4202D3824200F2FA808A
:1003E000841A61EB030301209846002EE0D0C6E991
:1003F0000048DDE702B9FFDEB2FA82F2002A40F0DF
:100400008F80491B4FEA154E1FFA85F80127B1FB73
:10041000FEFC230C0EFB1C1143EA014308FB0CF10C
:10042000994207D9EB180CF1FF3002D2994200F241
:10043000CD808446591AA3B2B1FBFEF00EFB101416
:1004400043EA044408FB00F8A04507D92C1900F141
:10045000FF3302D2A04500F2B6801846A4EB080490
:1004600040EA0C409FE7C7F1200CBB4022FA0CFE8B
:100470004EEA030E01FA07F420FA0CF521FA0CF308
:100480004FEA1E482543B3FBF8F92C0C08FB19333F
:100490001FFA8EFA44EA034309FB0AF49C4202FA6B
:1004A00007F200FA07F10BD91EEB030309F1FF3045
:1004B00080F087809C4240F28480A9F10209734455
:1004C0001B1BADB2B3FBF8F008FB103345EA034445
:1004D00000FB0AFAA24508D91EEB040400F1FF3321
:1004E0006BD2A24569D90238744440EA0940A0FBA6
:1004F0000289A4EB0A044C45C2464B4654D351D062
:10050000002E69D0B1EB0A0564EB030404FA0CFC7D
:10051000FD40FC404CEA0505C6E90054002747E7CA
:10052000C2F1200320FA03F7954001FA02F021FA04
:1005300003F34FEA154E3843010CB3FBFEF71FFAE5
:1005400085F80EFB173341EA034107FB08F38B42A2
:1005500004FA02F407D9691807F1FF3C2FD28B4245
:100560002DD9023F2944CB1A81B2B3FBFEF00EFB1A
:10057000103341EA034100FB08F38B4207D96918A5
:1005800000F1FF3C17D28B4215D902382944C91A11
:1005900040EA07473BE73746304609E70746E7E6C4
:1005A0001846FBE64145ABD2B8EB020A69EB0E02F6
:1005B00001381346A4E76046E9E7184695E7674621
:1005C000D1E781467CE702382C4447E7ACF1020CC6
:1005D0002B442FE7384608E73746E9E6704700BF67
:1005E00001F0FF01102A2BDB10F0070F08D010F8E4
:1005F000013B013A8B422DD010F0070F42B3F6D1E8
:10060000F0B441EA012141EA014122F007047FF000
:1006100000070023F0E80256083C85EA010586EA57
:10062000010685FA47F5A3FA87F586FA47F6A5FA93
:1006300087F68EB9EED1F0BC01F0FF0102F007029F
:1006400032B110F8013B013A83EA010313B1F8D14A
:100650000020704701387047002D06BF354603382B
:10066000073815F0010F07D1013015F4807F02BF64
:10067000013015F4C03F0130F0BC0138704700BFB5
:1006800000B58BB00023079308930993009301935F
:10069000029303930493059306931E481E4A026037
:1006A00043608360C36004220261037543750122C5
:1006B0008261037743628362C3620363436380F8AA
:1006C000383001F09DF9D8B90AA9002341F80C3D52
:1006D000104801F0D1FAB0B9104B009306230193F2
:1006E0000023029340F2FF720392042204920593C6
:1006F0006946084800F082FE40B90BB05DF804FB83
:1007000000F02CFAE0E700F029FAE5E700F026FA1D
:10071000F3E700BF50010020002002400002B02596
:1007200010B588B0002303930493059306930793B1
:1007300002681E4B9A4201D008B010BD1C4BD3F882
:10074000D82042F02002C3F8D820D3F8D82002F0F5
:1007500020020092009AD3F8E02042F00102C3F890
:10076000E020D3F8E02002F001020192019AD3F8D0
:10077000E02042F00202C3F8E020D3F8E03003F0BA
:1007800002030293029B832303930324049403A98B
:10079000084802F0C1FA012303930494002305934F
:1007A00003A9054802F0B8FAC6E700BF00200240DE
:1007B00000440258000002580004025800B583B0FB
:1007C0000B4BD3F8D82042F00102C3F8D820D3F85D
:1007D000D83003F001030193019B002211460B2046
:1007E00001F018FB0B2001F047FB03B05DF804FBA0
:1007F000004402582DE9F0418CB00024079408947D
:1008000009940A940B94584BD3F8E02042F0040268
:10081000C3F8E020D3F8E02002F004020192019A2C
:10082000D3F8E02042F08002C3F8E020D3F8E020C3
:1008300002F080020292029AD3F8E02042F0010214
:10084000C3F8E020D3F8E02002F001020392039AFB
:10085000D3F8E02042F00202C3F8E020D3F8E02011
:1008600002F002020492049AD3F8E02042F0080257
:10087000C3F8E020D3F8E02002F008020592059AC0
:10088000D3F8E02042F04002C3F8E020D3F8E03093
:1008900003F040030693069B344D22464021284630
:1008A00002F02CFBDFF8D08022464FF4A0514046E6
:1008B00002F024FB2E4E2246E021304602F01EFBC1
:1008C0004FF4005307932B4B0893099407A9404614
:1008D00002F022FA402307930127089709940A940B
:1008E00007A9284602F018FA802307930894099470
:1008F00007A9284602F010FA4FF4A053079308976F
:1009000009940A9407A9404602F006FA4FF42053CE
:1009100007930223089309940A940B230B9307A9C6
:10092000284602F0F9F9102307930894099407A9BF
:10093000304602F0F1F9E0230793089709940A94EE
:1009400007A9304602F0E8F94FF00061084600F0D0
:100950004BFD22462146282001F05CFA282001F0B8
:100960008BFA0CB0BDE8F081004402580018025820
:100970000004025800001111000802582DE9F0414E
:10098000CCB04C22002139A807F0C6FC202200215F
:1009900031A807F0C1FCBC22002102A807F0BCFC72
:1009A000022002F0C1FA002301932F4B9A6942F40E
:1009B00040429A619B6903F4404301932B4BDA6AEE
:1009C00042F00102DA62DB6A03F001030193019B4A
:1009D000254B9B6913F4005FFAD0254A936A23F0F4
:1009E000030393620225399501273C9720263D9603
:1009F0004295002443944FF00408CDF8108132232F
:100A000045934695479548950C2349934A944B94B2
:100A100039A802F0B1FA3F23319303233293339480
:100A2000082334934023359336934FF480623792F2
:100A30003893294631A802F06DFE0E4B0293CDF893
:100A40000C800A230493059706950795C023089305
:100A500009960A9419941F942A9402A803F0DAF8CC
:100A60004CB0BDE8F08100BF0048025800040058B7
:100A7000004402580210080010B5BFF34F8FBFF3B7
:100A80006F8F344B0022C3F85022BFF34F8FBFF358
:100A90006F8F5A6942F400325A61BFF34F8FBFF330
:100AA0006F8F00F047FCFFF769FFFFF7A3FEFFF72A
:100AB00085FEFFF7E5FD00F053F800F021FB00F0A4
:100AC000BFF900F009FA00F09FFB234807F02CFC67
:100AD00007F0B0F907F0E0F934E0A0B207F0B2FA9D
:100AE000012000F067FC1434B4F57A7FF5DB0024B4
:100AF00008E0C4F57A7080B207F0A4FA012000F093
:100B000059FC1434B4F57A7FF3DB012007F07EFA48
:100B1000002406E0A0B207F095FA012000F04AFC9C
:100B20001434B4F57A7FF5DB002408E0C4F57A705C
:100B300080B207F087FA012000F03CFC1434B4F5D1
:100B40007A7FF3DB002007F061FA002007F06CFAEF
:100B50000024C9E700ED00E0309100087047000074
:100B600008B51548154B03604FF4800343604FF4FC
:100B7000802383601823C3604FF000730361002358
:100B800043614FF0806282614FF0C042C2610362F4
:100B900043628362C36243638363C36303644364E6
:100BA0008364C36403654365836504F057FA00B941
:100BB00008BDFFF7D3FFFBE7B40100200030014080
:100BC00010B588B00023039304930593069307930D
:100BD00002682A4B9A4201D008B010BD0446284B47
:100BE000D3F8F02042F48052C3F8F020D3F8F0207C
:100BF00002F480520192019AD3F8E02042F00102FF
:100C0000C3F8E020D3F8E03003F001030293029B25
:100C1000602303930223049303230693052307937E
:100C200003A9184802F078F81748184B03602523E9
:100C3000436000238360C3604FF4806202614FF41D
:100C4000805242614FF4804282614FF48072C261EF
:100C50004FF440320262436201F06EFA58B90A4B17
:100C6000E3679C6300221146232001F0D3F8232080
:100C700001F002F9B0E7FFF771FFF0E70030014043
:100C800000440258000002583C02002010000240BC
:100C900082B0074BD3F8F42042F00202C3F8F420EC
:100CA000D3F8F43003F002030193019B02B07047C4
:100CB000004402587047FEE7FEE7FEE7FEE7704794
:100CC0007047704708B500F063FB08BD08B50248DF
:100CD00001F086FC08BD00BF3C02002008B50248B8
:100CE00004F032FE08BD00BFF402002008B502483F
:100CF00004F02AFE08BD00BFF402002008B5024837
:100D000004F022FE08BD00BF3403002008B50248ED
:100D100004F052FB08BD00BFB401002008B54FF439
:100D2000005002F0F3F808BD08B5024804F00CFECC
:100D300008BD00BFB402002070B50D461646002461
:100D400004E0AFF30080287001340135B442F8DBD1
:100D5000304670BD70B51646002405E04D1C08787D
:100D6000AFF3008001342946B442F7DB304670BD52
:100D700008B503460B4A126842B10A4A1068034498
:100D80006A46934206D8074A136008BD054A0649D9
:100D90001160F2E707F096FA0C2303604FF0FF3082
:100DA000F3E700BFFC000020880400204FF0FF3074
:100DB00070474FF400534B6000207047012070478C
:100DC00000207047184AD2F8883043F47003C2F804
:100DD0008830164B1A6842F001021A6000221A612C
:100DE00018681349014019609A61DA611A629A62BF
:100DF000DA621A635A639A63DA631A645A64196886
:100E000021F4802119601A660A4B1A680A4B1340B4
:100E1000B3F1005F02D2094B01221A60024B4FF07E
:100E200000629A60704700BF00ED00E00044025885
:100E30007FEDF6EA0010005C0000FFFF0881005122
:100E400000B58DB00023089309930A930B93049384
:100E50000593069307930193029303931D484FF064
:100E6000804202607E22426083604FF6FE72C26062
:100E70000361836104F0B6FE00BB0CA94FF48053FC
:100E800041F8103D134805F053F8D0B900230493FE
:100E900005930F2306930123079304A90D4805F03A
:100EA0004FF988B9502301930023039301A90948FE
:100EB00005F0ECF958B90DB05DF804FBFFF74EFEF4
:100EC000DBE7FFF74BFEE1E7FFF748FEEAE7FFF756
:100ED00045FEF0E73403002000B585B00023019300
:100EE000029303930E480F4A02604FF6FF7242606E
:100EF0008360C260836104F075FE50B900230193E2
:100F0000039301A9064805F0C1F928B905B05DF8B9
:100F100004FBFFF723FEF1E7FFF720FEF6E700BF33
:100F2000B4020020001000400268134B9A4200D027
:100F3000704700B583B0114BD3F8F02042F00102A6
:100F4000C3F8F020D3F8F03003F001030193019BC4
:100F500000221146182000F05DFF182000F08CFFE1
:100F6000002211461A2000F055FF1A2000F084FFDD
:100F700003B05DF804FB00BF0000014000440258CC
:100F800070B58AB0002305930693079308930993DD
:100F90000368B3F1804F04D0304A934248D00AB07E
:100FA00070BD2F4BD3F8E82042F00102C3F8E820CF
:100FB000D3F8E82002F001020192019AD3F8E02070
:100FC00042F00202C3F8E020D3F8E02002F002026F
:100FD0000292029AD3F8E02042F00102C3F8E02026
:100FE000D3F8E03003F001030393039B4FF48163D4
:100FF000059302240694032608960125099505A960
:10100000184801F089FE4FF400430593069400242C
:1010100007940896099505A9134801F07DFE22461C
:1010200021461C2000F0F6FE1C2000F025FFB6E74C
:101030000B4BD3F8E82042F01002C3F8E820D3F8B5
:10104000E83003F010030493049B0022114636207D
:1010500000F0E0FE362000F00FFFA0E70010004097
:1010600000440258000402580000025870B588B0CD
:1010700000230393049305930693079302681C4B84
:101080009A4201D008B070BD1A4BD3F8E02042F06C
:101090000202C3F8E020D3F8E02002F0020201923D
:1010A000019AD3F8E02042F00102C3F8E020D3F81F
:1010B000E03003F001030293029B46F20203039324
:1010C00002260496032506950124079403A90A48DD
:1010D00001F022FE4FF4E06303930496002305938E
:1010E0000695079403A9054801F016FECAE700BF5C
:1010F0000000014000440258000402580000025859
:1011000010B596B000241394149415940C940D9477
:101110000E940F941094119412942C22214601A83D
:1011200007F0FAF83648374B0360012343608460C8
:101130004FF47A73C36004614461846104F06BFD11
:1011400000284BD1002313931493159313A92C4813
:1011500005F09CF8002844D100220C9240F2E733BD
:101160000D930E920F9210924FF4807311934FF4DF
:10117000007312930CA9224804F0B0FD002833D16B
:1011800004220CA91E4804F0A9FD00282FD1082232
:101190000CA91B4804F0A2FD60BB4FF4006301934F
:1011A0004FF4806302930023039312220492059369
:1011B0004FF400520692079308934FF00072099281
:1011C0000A934FF480430B9301A90D4805F090F862
:1011D00098B90B48FFF74AFF16B010BDFFF7BEFCE9
:1011E000B0E7FFF7BBFCB7E7FFF7B8FCC8E7FFF7CE
:1011F000B5FCCCE7FFF7B2FCCFE7FFF7AFFCE8E7C1
:10120000F40200200000014008B51748174B0360A6
:10121000174B436000238360C36003610C2242616B
:101220008361C36103624362836206F0F3FC70B9B9
:1012300000210D4806F07BFD60B900210A4806F048
:101240009BFD50B9084806F053FD48B908BDFFF7AB
:1012500085FCEDE7FFF782FCEFE7FFF77FFCF1E7A6
:10126000FFF77CFCF2E700BF740300200048004059
:1012700080841E0000B589B0002303930493059376
:10128000069307930268154B9A4202D009B05DF8A5
:1012900004FB134BD3F8E82042F48022C3F8E82083
:1012A000D3F8E82002F480220192019AD3F8E020DA
:1012B00042F00802C3F8E020D3F8E03003F008035E
:1012C0000293029B4FF4407303930223049307237A
:1012D000079303A9034801F01FFDD7E7004800402A
:1012E00000440258000C0258104B1B780BB9012027
:1012F000704710B504464FF47A70B0FBF3F30C4A14
:101300001068B0FBF3F000F0C5FD68B90F2C01D9EF
:1013100001200AE0002221464FF0FF3000F07AFD64
:10132000024B5C60002000E0012010BD080000209E
:101330000000002010B5032000F05AFD02F0F4F880
:101340000F498B69C3F303230E4AD35C03F01F03D9
:10135000D8400D4B18608B6903F00F03D35C03F08A
:101360001F03D840094B18600020FFF7BDFF10B1E4
:101370000124204610BD0446FFF78AFCF9E700BFB0
:1013800000440258089100080000002004000020DA
:10139000034B1B78034A11680B441360704700BF6E
:1013A0000800002004010020014B1868704700BFAE
:1013B0000401002038B50446FFF7F6FF0546B4F1F6
:1013C000FF3F02D0044B1B781C44FFF7EDFF401B8E
:1013D000A042FAD338BD00BF08000020014B1868B6
:1013E000000C70470010005C034A536823EA0000B9
:1013F00008435060704700BF00040058F0B482B04A
:101400000022019290F85020012A00F03782034612
:10141000012280F850200468A26812F004020AD069
:10142000426D42F0200242650120002283F85020E4
:1014300002B0F0BC70470868C0F31305002D50D10E
:10144000C0F3846001258540E0692843E0611F689E
:101450004E680D683037300A800000F00C003C58B0
:1014600006F01F064FF01F0C0CFA06FC24EA0C04D1
:10147000C5F38465B5402C433C501868846814F06B
:10148000040F37D00124856815F0080F34D00125EA
:101490002C4357D10F688C6800F11405780E80003A
:1014A00000F004002E58C7F304574FF0070C0CFA55
:1014B00007FC26EA0C06BC4034432C50B7480068B1
:1014C00000F07040B0F1805F18D01C68E06810F048
:1014D000100F59D14869E468C4F382046400A04045
:1014E00013E090FAA0F0B0FA80F000F01F000125A0
:1014F0008540A9E70024C6E70025C9E748691C68BC
:10150000E468C4F382046400A0400D69042D46D051
:101510001F680E68603757F8254004F0004406F055
:10152000F8463043204347F8250018680D694C7E83
:10153000012C31D0603050F8254024F00044224383
:1015400040F825201868826812F0010F40F092815F
:101550000A68CD68D0F8C040C2F3130624EA060436
:1015600005F018068E4DF5402A40C2F313022243BF
:10157000C0F8C020C8688B4A904244D00A68002A4C
:10158000C0F2DF80002050E74869E468A40804F056
:1015900004046400A040B8E74FF00042CAE71868AE
:1015A000026E02F0F8420C68B2EB846F1CD018682F
:1015B000426E02F0F8420C68B2EB846F19D01868E2
:1015C000826E02F0F8420C68B2EB846F16D0186895
:1015D000C26E02F0F8420C68B2EB846FB2D1C26EF8
:1015E00022F00042C266ADE7026E22F000420266BF
:1015F000DDE7426E22F000424266E0E7826E22F0B2
:1016000000428266E3E71D680A68C2F3130696BBD0
:10161000900E013000F01F0009288CBF002001202F
:10162000002852D09EBB940E0134A40604F0F84466
:10163000B6BB900E013000F01F070120B8400443F4
:10164000C6BB920E013202F01F0202EB42021205EB
:1016500022438C681435500E800000F004002E5890
:10166000C2F304520727974026EA070604FA02F25B
:1016700032432A5082E792FAA2F0B0FA80F00130A9
:1016800000F01F0009288CBF00200120C8E792FA53
:10169000A2F4B4FA84F40134A40604F0F844C7E7D1
:1016A00092FAA2F0B0FA80F0013000F01F0701209A
:1016B000B840C4E792FAA2F2B2FA82F2013202F022
:1016C0001F0202EB42021205C2E7CEB9940E0134AA
:1016D000A40604F0F844E6B9900E013000F01F07AC
:1016E0000120B8400443F6B9900E013000F01F000D
:1016F00000EB40021E3A120542F000722243A8E7B6
:1017000092FAA2F4B4FA84F40134A40604F0F84482
:10171000E1E792FAA2F0B0FA80F0013000F01F0782
:101720000120B840DEE792FAA2F0B0FA80F0013072
:1017300000F01F0000EB40021E3A120542F000725A
:10174000DCE719681848194CA14218BF81420CBF48
:101750000120002034D1164DAC6804F0E07600285A
:1017600034D01148806810F0010F2BD001200F4FAA
:10177000BF6817F0010F27D0012738430CBF0120A5
:101780000020002870D00B4882422AD00A488242AA
:1017900048D00A48824256D0002046E60010005C3D
:1017A000FFFF0F000000FF47002002400021024021
:1017B00000230240000084CB000052C70000B8CFD5
:1017C0002F4DC9E70020D2E70027D6E72D488068D3
:1017D00010F0010F03D0012080F00100D1E70020BC
:1017E000FAE714F4000FD1D1264A914201D000202B
:1017F0001BE646F40002A96821F0E0710A43AA60E2
:10180000214A126892092149A1FB02129209520051
:10181000019202E0019A013A0192019A002AF9D15B
:10182000002002E614F0807FB3D1164A914201D025
:101830000020FAE546F08072A96821F0E0710A43C1
:10184000AA600020F1E514F4800F15D10D4A9142F1
:1018500001D00020E9E546F48002A96821F0E0719A
:101860000A43AA600020E0E55A6D42F020025A6562
:101870000120DAE50020D8E50020D6E50220D7E5F2
:10188000006302580060025800000020632D3E05EE
:1018900038B5044603685049504A934218BF8B42FA
:1018A00023D14F4B9B6813F4403F14BF0123002307
:1018B0004BB302F069F805466368B3F5003F1CD0EE
:1018C000B3F5403F1DD0B3F5803F16D0FFF786FD3E
:1018D00041F20303984256D8424B9D424DD92268AB
:1018E000936843F48073936038BD3F4B9B6813F457
:1018F000403F14BF01230023DAE71B0CB5FBF3F5CF
:10190000E4E78508E2E74FF4002003F027F90546F5
:101910006368B3F5C01F16D00BD9B3F5101F28D0DC
:101920001DD8B3F5E01F22D0B3F5001FCED1450975
:10193000CCE7B3F5402F06D00AD8B3F5802F02D0FC
:10194000B3F5002FC2D19B0C5B00B5FBF3F5BDE7EF
:10195000B3F5801FF7D0B3F5A01FB7D1F3E7B3F508
:10196000201F08D0B3F5301FB0D1050AAEE7050936
:10197000ACE78509AAE7C509A8E72268936823F4BC
:1019800080739360B0E7194B9D420FD9184B2B44DD
:10199000184A934210D9184B2B44184A934213D932
:1019A0002268936843F4407393609DE722689368CC
:1019B00023F44073936097E72268936823F440739D
:1019C00043F4807393608FE72268936823F4407335
:1019D00043F40073936087E7002002400021024037
:1019E00000230240002D310100630258105E5F00A9
:1019F000EFA1A0FF0F5E5F00DF4341FF1FBCBE00F1
:101A000030B583B000230193002800F01B81044609
:101A1000436DE3B123689A6812F0005F03D09968C0
:101A2000894A0A409A6023689A6812F0805F1BD145
:101A30009968864A0A4042F080529A60844B1B683B
:101A40009B09844AA2FB03239B09019309E0FEF74B
:101A500067FE0023A36584F85030DBE7019B013B60
:101A60000193019B002BF9D123689A6812F0805FE3
:101A700040F09D80626D42F010026265A26D42F0FE
:101A80000102A26501259A6812F0040F00F091800E
:101A90000121626D12F0100F40F0CC80002940F05F
:101AA000C980626D22F4817242F0020262659A6816
:101AB00012F0010F21D16849684A934218BF8B4246
:101AC0000CBF012300237AD18A6812F0010F72D073
:101AD00001226249896811F0010F6ED001210A4389
:101AE0000CBF0122002242B1002B73D05C49636815
:101AF0008A6822F47C1213438B60FFF76FFC41F27B
:101B00000303984202D9A368102B65D0627D236B32
:101B100043EA4233A2681343227F43EA0243227F0F
:101B2000012A64D0626A22B102F47872A16A0A437F
:101B300013432168C8684B4A02401343CB602368B3
:101B40009A6812F0040F57D001219A6812F0080F1A
:101B500054D001220A431BD1217DE26A42EA81313D
:101B6000D868414A02400A43DA6094F83830012BC1
:101B700046D02268136923F00103136122681369B8
:101B800023F07043616B0B4313612046FFF780FE27
:101B9000E368012B45D02268136B23F00F03136316
:101BA000636D23F0030343F00103636547E0002501
:101BB00069E700216DE700228BE700218FE72B4AC0
:101BC000926812F0010F03D0012282F001028AE72D
:101BD0000022FAE726498AE7617D226B42EA413218
:101BE0001343227F43EA024343F00C0397E7226A40
:101BF000013A43EA424395E70021A6E70022A9E71C
:101C000021680A691B4B1340E06B226C42EA0042D8
:101C1000606C0243A06C0243134343F001030B6169
:101C2000ACE721680B6B23F00F03A269013A134361
:101C30000B63B5E7636D43F0100363650125284628
:101C400003B030BD0125FAE7C0FFFF5FC0FFFF6FA3
:101C500000000020632D3E050020024000210240CC
:101C60000023024003C0F0FFFCBFFFFF00600258EA
:101C7000006302581EF800FC90F85020012A00F082
:101C8000AA8030B49AB00346012280F8502002683E
:101C90005248824243D0002001900198002842D04F
:101CA000806810F0040F47D00124906810F0040FF2
:101CB00040F08280002C7FD1484C4948824218BFB6
:101CC000A2423BD100F500700A68002A47D0826822
:101CD00022F440424C68224382601A683F4D404CD7
:101CE000A24218BFAA422FD1AA6812F0010F27D032
:101CF00001243B4A926812F0010F23D001222243B3
:101D00000CBF01220022002A61D08468354A22409B
:101D10000C68896821430A438260002051E000F585
:101D200080700190B9E75A6D42F020025A65002296
:101D300083F85020012047E00024B6E72A48C3E793
:101D40000024D6E70022DAE7284A926812F0010F51
:101D500003D0012282F00102D5E70022FAE7816870
:101D600021F44041816019681C4D1D4CA14218BFEF
:101D7000A94217D1A96811F0010F11D00124184907
:101D8000896811F0010F00D0012222430CBF01220B
:101D90000022F2B18168134A0A408260002010E0FC
:101DA0001446ECE71149896811F0010F00D00122B7
:101DB000B2FA82F25209ECE75A6D42F020025A65FB
:101DC0000120002283F850201AB030BC7047002058
:101DD000F7E70020F5E70220704700BF002002402F
:101DE00000210240E0F0FFFF00630258006002584B
:101DF0000649CB6823F4E0631B041B0C000200F4CB
:101E0000E0600343024A1A43CA60704700ED00E0F5
:101E10000000FA0530B4154BDB68C3F30223C3F1AD
:101E20000704042C28BF04241D1D062D14D9033BD0
:101E30004FF0FF3505FA04F421EA0401994005FA50
:101E400003F322EA03031943002807DB0901C9B29F
:101E5000074B195430BC70470023E9E700F00F002E
:101E60000901C9B2034B1954F4E700BF00ED00E0CB
:101E700000E400E014ED00E0002807DB00F01F02A2
:101E8000400901239340024A42F82030704700BFC6
:101E900000E100E00138B0F1807F0AD2064B5860C3
:101EA000064AF02182F823100020986007221A6069
:101EB00070470120704700BF10E000E000ED00E037
:101EC00002682849284B9A4218BF8A422FD01833FB
:101ED0009A422CD018339A4229D018339A4226D0ED
:101EE00018339A4223D018339A4220D018339A429A
:101EF0001DD003F556739A4219D018339A4216D062
:101F000018339A4213D018339A4210D018339A4299
:101F10000DD018339A420AD018339A4207D018339A
:101F20009A4204D022F0FF028265806D704710B49F
:101F3000D3B2103B0D49A1FB03131B0903F00701AA
:101F40000B4C615CC165032B06D80A4B13408365BB
:101F5000806D5DF8044B7047064B13400433836576
:101F6000F6E700BF1000024028000240ABAAAAAA70
:101F70001891000800FCFFFF83699BB9836A012B5D
:101F80000AD01BB1022B01D000207047C36A13F0A6
:101F9000807F2ED100207047C36AB3F1C07F2AD062
:101FA00000207047B3F5005F06D0836A022B2AD960
:101FB000032B16D000207047836A032B03D8DFE879
:101FC00003F01C041C0A00207047C36A13F0807FD2
:101FD00015D100207047C36AB3F1C07F11D0002033
:101FE0007047C36A13F0807F01D001207047002042
:101FF0007047012070470120704701207047012081
:102000007047012070470120704700000368224993
:10201000224A934218BF8B4228D01432934225D0D3
:102020001432934222D0143293421FD0143293427E
:102030001CD01432934219D01432934216D0DAB223
:10204000103A1749A1FB0212120916491944A8298E
:102050001FD9154B13449B000366144B436602F0D3
:102060001F02012303FA02F282667047DBB2083BCB
:102070000F4AA2FB03231B090E4A1A449200026670
:102080000D4A426603F01F03012202FA03F383663E
:1020900070470832DDE700BF085402581C5402584C
:1020A000ABAAAAAAF0FBFDBF008200108008024084
:1020B000CDCCCCCC009600168058025801794A1E2F
:1020C000072A2CD830B40368154D164CA34218BF0C
:1020D000AB4218D01434A34215D01434A34212D00A
:1020E0001434A3420FD01434A3420CD01434A342AE
:1020F00009D01434A34206D00B4B0B449B00C3669B
:102100000A4B036705E00A4B0B449B00C366094B6F
:102110000367012303FA02F2426730BC704770473D
:10212000085402581C5402583F82001040090240D3
:102130003F9600164059025870B50446FFF734F92F
:10214000002C00F0448105462368A249A24A93422C
:1021500018BF8B420CBF0122002250D030318B427D
:102160004DD018318B424AD018318B4247D01831AC
:102170008B4244D018318B4241D018318B423ED033
:1021800001F556718B423AD018318B4237D0183155
:102190008B4234D018318B4231D018318B422ED043
:1021A00018318B422BD018318B4228D018318B42FA
:1021B00025D08A498A4A934218BF8B4200F0BF80DB
:1021C000884A934200F0BB801432934200F0B780FB
:1021D0001432934200F0B3801432934200F0AF8087
:1021E0001432934200F0AB801432934200F0A78087
:1021F00040236365032384F8353001204AE0002141
:1022000084F83410022184F835107ABB764A934260
:102210002CD01832934229D01832934226D018324B
:10222000934223D01832934220D0183293421DD0CB
:1022300002F55672934219D01832934216D01832D2
:10224000934213D01832934210D0183293420DD0DB
:10225000183293420AD01832934207D01832934270
:1022600004D01A6822F001021A6003E01A6822F012
:1022700001021A6023681A6812F0010F0BD0FFF7F1
:1022800093F8401B0528F5D920236365032384F8C0
:102290003530012070BD1A6854481040A168E268CA
:1022A0000A4321690A4361690A43A1690A43E16952
:1022B0000A43216A0A430243616A042934D01A603E
:1022C0002668756925F00705636A1D43042B07D14D
:1022D000A36A1D43E36A1BB12046FFF74DFE40BBD6
:1022E00075612046FFF7ECFDE36D03F01F023F230D
:1022F000934083602046FFF789FEA368802B59D066
:10230000236E22791A60636EA26E5A606368013B85
:10231000072B52D90023E3662367636700206065BB
:10232000012384F83530B5E7E16A206B01430A43A5
:10233000C5E740236365012084F83500AAE7002241
:1023400084F83420022284F835201A682849114084
:10235000A268402A06D0802A01D0002203E04FF470
:10236000804200E01022E06842EAD002206942EA9E
:10237000D002606942EAD002A06942EAD002E06974
:1023800042EAD002206A42EA10120A431A60226826
:10239000184B1344184AA2FB03231B099B00E36557
:1023A0002046FFF78DFDE36D03F01F0201239340EC
:1023B00043609FE700236360A2E72046FFF77EFEAD
:1023C000E36E00221A60236F626F5A60A6E7012055
:1023D00060E700BF10000240280002400854025885
:1023E0001C54025830540258400002403F8010FEF6
:1023F0000F00FEFFF8ABFDA7CDCCCCCC002800F041
:10240000E48008B5024690F83530DBB2022B03D0E9
:1024100080234365012008BD03686E486E498B42E6
:1024200018BF83420CBF0121002100F08E803030A4
:10243000834200F08A801830834200F08680183092
:10244000834200F08280183083427ED0183083426D
:102450007BD01830834278D000F55670834274D018
:102460001830834271D0183083426ED018308342C6
:102470006BD01830834268D01830834265D0183052
:10248000834262D0183083425FD0196821F00E0178
:1024900019601368A0F595604F498B4218BF8342BD
:1024A0002AD04E498B4227D018318B4224D0183184
:1024B0008B4221D018318B421ED018318B421BD059
:1024C00018318B4218D001F556718B4214D0183157
:1024D0008B4211D018318B420ED018318B420BD069
:1024E00018318B4208D018318B4205D018318B42FD
:1024F00002D018318B4263D1196821F001011960B3
:10250000116E0B6823F480730B60906DD36D03F034
:102510001F0101238B404360536E916E5960D36E4F
:1025200033B1196821F480711960136F516F5960CC
:10253000002382F83430012382F83530136D002BEC
:1025400045D010469847002065E7042082F8350002
:1025500081BB224A93422DD0183293422AD018329E
:10256000934227D01832934224D01832934221D07C
:10257000183293421ED002F5567293421AD0183286
:10258000934217D01832934214D01832934211D08C
:10259000183293420ED0183293420BD01832934225
:1025A00008D01832934205D01A6822F001021A604E
:1025B000002030E71A6822F001021A6000202AE7A2
:1025C000196821F0010119609AE701207047002085
:1025D00021E700BF100002402800024040000240F6
:1025E000F0B583B0044600230193A24B1D68A24BB3
:1025F000A3FB0535AD0A876D3E68D7F800C00368B8
:102600009E499F48834218BF8B420CBF0120002087
:1026100061D09C4A93425ED0183293425BD018320C
:10262000934258D01832934255D01832934252D028
:10263000183293424FD002F5567293424BD0183263
:10264000934248D01832934245D01832934242D038
:10265000183293423FD0183293423CD01832934202
:1026600039D01832934236D08749884A934218BFEE
:102670008B4212D0864A93420FD0143293420CD030
:102680001432934209D01432934206D0143293424A
:1026900003D01432934240F062821A68E16D01F077
:1026A0001F010420884010EA0C0F00F0A88212F0ED
:1026B000040F00F0A482786012F4004F00F05B82F7
:1026C00012F4803F40F05182A36C002B00F047824F
:1026D0002046984743E2E26D02F01F0108228A403B
:1026E000324241D070BB674A93422BD0183293429A
:1026F00028D01832934225D01832934222D0183273
:1027000093421FD0183293421CD002F55672934266
:1027100018D01832934215D01832934212D0183282
:1027200093420FD0183293420CD01832934209D002
:102730001832934206D01832934203D01A68C2F37B
:10274000C00202E01A68C2F380026AB11A6822F07D
:1027500004021A60E36D03F01F0208239340BB607C
:10276000636D43F001036365E26D02F01F0226FA18
:1027700002F313F0010F37D02368404840498B42E1
:1027800018BF83422CD018318B4229D018318B428C
:1027900026D018318B4223D018318B4220D01831EB
:1027A0008B421DD018318B421AD001F556718B42E5
:1027B00016D018318B4213D018318B4210D01831FB
:1027C0008B420DD018318B420AD018318B4207D082
:1027D00018318B4204D018318B4201D01B6803E0C2
:1027E0005B6913F0800F3BD1E36D03F01F030422FC
:1027F00002FA03F3334251D02268204820498A422A
:1028000018BF824246D018318A4243D018318A42DA
:1028100040D018318A423DD018318A423AD018311E
:102820008A4237D018318A4234D001F556718A4233
:1028300030D018318A422DD018318A422AD018312E
:102840008A4227D018318A4224D018318A4221D0B6
:1028500018318A421ED018318A421BD013681DE0FD
:10286000012303FA02F2BA60636D43F00203636569
:10287000BAE700BF00000020B5814E1B10000240E7
:102880002800024040000240085402581C540258DC
:1028900030540258126812F0020F3DD1E36D03F07C
:1028A0001F03102202FA03F333425FD022689B48D1
:1028B0009B498A4218BF824234D018318A4231D0B3
:1028C00018318A422ED018318A422BD018318A42D0
:1028D00028D018318A4225D018318A4222D001F5F9
:1028E00056718A421ED018318A421BD018318A4252
:1028F00018D018318A4215D018318A4212D01831B6
:102900008A420FD018318A420CD018318A4209D03D
:102910001268C2F3800208E0BB60636D43F00403F9
:102920006365BBE71268C2F3C002FAB1BB602368FB
:102930001A6812F4802F0DD01B6813F4002F04D1F5
:10294000236C9BB12046984710E0A36C73B12046DE
:1029500098470BE01A6812F4807F03D11A6822F0BE
:1029600008021A60236C0BB120469847E36D03F010
:102970001F03202202FA03F3334200F08E80226804
:10298000664867498A4218BF82422ED018318A426F
:102990002BD018318A4228D018318A4225D01831DC
:1029A0008A4222D018318A421FD018318A421CD064
:1029B00001F556718A4218D018318A4215D0183163
:1029C0008A4212D018318A420FD018318A420CD074
:1029D00018318A4209D018318A4206D018318A4209
:1029E00003D01268C2F3400202E01268C2F3001280
:1029F000002A52D0BB6094F83530DBB2042B0ED0E5
:102A000023681A6812F4802F35D01B6813F4002F46
:102A10002CD1636C002B40D0204698473DE02268C3
:102A2000136823F0160313602268536923F08003B0
:102A30005361236CB3B12268136823F00803136059
:102A4000E36D03F01F023F239340BB60002384F833
:102A50003430012384F83530236D002B7FD020469D
:102A600098477CE0A36C002BE5D1E9E7E36BA3B1C9
:102A70002046984711E01A6812F4807F09D11A683D
:102A800022F010021A60002384F83430012384F805
:102A90003530E36B0BB120469847636D002B5ED059
:102AA000636D13F0010F56D0042384F8353023688A
:102AB0001A491B4A934218BF8B4233D018329342B3
:102AC00030D0183293422DD0183293422AD0183287
:102AD000934227D01832934224D01832934221D007
:102AE00002F5567293421DD0183293421AD0183212
:102AF000934217D01832934214D01832934211D017
:102B0000183293420ED0183293420BD018329342AF
:102B100008D01A6822F001021A6007E01000024093
:102B2000280002401A6822F001021A60019B01335A
:102B30000193AB4204D823681B6813F0010FF5D151
:102B4000002384F8343023681B6813F0010F08D089
:102B5000032384F83530E36C0BB12046984703B06B
:102B6000F0BD012384F83530F5E7236C002BF6D057
:102B700020469847F3E712F0200F35D123686449C7
:102B8000644A934218BF8B422AD01832934227D00E
:102B90001832934224D01832934221D018329342F3
:102BA0001ED0183293421BD01832934218D002F52F
:102BB0005672934214D01832934211D01832934275
:102BC0000ED0183293420BD01832934208D01832EC
:102BD000934205D01832934202D01832934209D161
:102BE0001A6822F008021A60236C002BB7D0204626
:102BF0009847B4E71A6822F004021A60F4E702204A
:102C0000884010EA0C0F60D012F0020F5DD078609F
:102C100012F4004F0ED012F4803F05D1636C002BEC
:102C20009DD0204698479AE7E36B002B97D020462B
:102C3000984794E712F0200F3BD123683449354A76
:102C4000934218BF8B422AD01832934227D01832B1
:102C5000934224D01832934221D0183293421ED08E
:102C6000183293421BD01832934218D002F5567294
:102C7000934214D01832934211D0183293420ED09E
:102C8000183293420BD01832934208D01832934234
:102C900005D01832934202D01832934210D11A68EC
:102CA00022F014021A60002384F83430012384F8DF
:102CB0003530E36B002B3FF452AF204698474EE788
:102CC0001A6822F00A021A60EDE7082000FA01F102
:102CD00011EA0C0F3FF443AF12F0080F3FF43FAF7F
:102CE0001A6822F00E021A60E36D03F01F0301223E
:102CF00002FA03F37B606265002384F8343084F8C1
:102D00003520E36C002B3FF42AAF2046984726E796
:102D10001000024028000240F0B482B000233AE0E4
:102D2000092400E00024B4403C4302356F4E46F8CD
:102D300025406F4C2568D44304EA05064F6817F414
:102D4000803F01D042EA0506694D2E606E6804EAB4
:102D500006054F6817F4003F01D042EA0605644EAD
:102D600075604FF0B0452D6804EA05064F6817F40A
:102D7000801F01D042EA05064FF0B0452E606D6815
:102D80002C404E6816F4001F01D042EA05044FF0B3
:102D9000B042546001330A6832FA03F400F0A280B2
:102DA00001249C402240F5D04D68122D18BF022D01
:102DB00010D1DE08083650F826C003F00705AF0032
:102DC0000F25BD402CEA050C0D69BD4045EA0C05F8
:102DD00040F8265006685F000325BD40ED4305EA34
:102DE000060C4E6806F00306BE4046EA0C06066076
:102DF0004E6806F1FF3C112E18BFBCF1010F01D93E
:102E0000122E11D1866805EA060CCE68BE4046EA4D
:102E10000C068660466826EA040C4E68C6F3001469
:102E20009C4044EA0C044460C46825408C68BC4063
:102E30002C43C4604C6814F0805FABD02D4CD4F8A8
:102E4000F45045F00205C4F8F450D4F8F44004F00E
:102E500002040194019C9D08AE1C244C54F8267079
:102E600003F00304A6000F24B44027EA0407224C11
:102E7000A0423FF457AF04F58064A04222D004F58D
:102E80008064A04220D004F58064A0421ED004F5E6
:102E90008064A0421CD004F58064A0421AD004F5DE
:102EA0008064A04218D004F58064A04216D004F5D6
:102EB0008064A04214D004F58064A0423FF430AF97
:102EC0000A2430E701242EE702242CE703242AE712
:102ED000042428E7052426E7062424E7072422E71C
:102EE000082420E702B0F0BC704700BF000400587F
:102EF00080000058004402580000025812B909042A
:102F000081617047816170477047000008B5054BCB
:102F10009B68034200D108BD024B9860FFF7F4FFA5
:102F2000F9E700BF80000058124BDB6813F0040F74
:102F300007D1104BDB6803F00703834201D0012067
:102F4000704710B50B4AD36823F007031843D060CD
:102F5000FEF72AFA0446074B5B6813F4005F07D1BB
:102F6000FEF722FA001BB0F57A7FF4D9032000E0C7
:102F7000002010BD00480258002800F0CB8238B570
:102F80000446036813F0010F25D0A94A136903F022
:102F90003803926A102B15D0182B0FD06368B3F545
:102FA000803F3FD0002B53D1A14B1A6822F48032CE
:102FB0001A601A6822F480221A6038E002F00302D4
:102FC000022AEBD19A4B1B6813F4003F03D06368CD
:102FD000002B00F0A182236813F0020F00F08E8016
:102FE000934A1369926A13F038035AD0182B55D0BC
:102FF000E368002B00F0C8808D490A6822F01902AE
:1030000013430B60FEF7D0F90546894B1B6813F09C
:10301000040F40F0A180FEF7C7F9401B0228F4D945
:1030200003207EE2824A136843F4803313606368AE
:103030002BB3FEF7B9F905467D4B1B6813F4003F2F
:10304000C9D1FEF7B1F9401B6428F5D9032068E225
:10305000B3F5A02F09D0764B1A6822F480321A609B
:103060001A6822F480221A60E1E7714B1A6842F470
:1030700080221A601A6842F480321A60D7E7FEF79D
:1030800093F905466A4B1B6813F4003FA3D0FEF783
:103090008BF9401B6428F5D9032042E212F0030F9C
:1030A000A6D1634B1B6813F0040F03D0E368002B19
:1030B00000F034825E4A136823F01903E1680B4381
:1030C0001360FEF771F90546594B1B6813F0040FA6
:1030D00006D1FEF769F9401B0228F5D9032020E24A
:1030E000FEF77CF941F2030398422CD8504A53680A
:1030F00023F47C33216943EA01335360236813F0DE
:10310000100F71D04A4A136903F03803926A082BF2
:1031100052D0182B4CD0E369002B00F0A380444A16
:10312000136843F080031360FEF73EF90546404BF9
:103130001B6813F4807F7DD1FEF736F9401B02280F
:10314000F5D90320EDE13A4A536823F0FE432169A3
:1031500043EA01635360D1E7FEF740F941F203030C
:10316000984208D8324A536823F47C33216943EAF1
:1031700001335360C2E72E4A536823F0FE432169AE
:1031800043EA01635360B9E7294A136823F0010356
:103190001360FEF709F90546254B1B6813F0040F71
:1031A000ACD0FEF701F9401B0228F5D90320B8E1A5
:1031B00002F00302012AAED11D4B1B6813F4807F7D
:1031C00004D0E369802B01D00120AAE1FEF706F9C3
:1031D00041F20303984222D8154A536823F0F8437A
:1031E000216A43EA81635360236813F0080F61D0BA
:1031F0006369002B4AD00E4A536F43F001035367B3
:10320000FEF7D2F805460A4B5B6F13F0020F51D15F
:10321000FEF7CAF8401B0228F5D9032081E1044AD1
:10322000D36823F07C53216A43EA0163D360DBE770
:1032300000440258FEF7D2F841F20303984208D83E
:10324000AE4A536823F0F843216A43EA816353602E
:10325000CAE7AA4AD36823F07C53216A43EA016390
:10326000D360C1E7A54A136823F080031360FEF71B
:103270009BF80546A14B1B6813F4807FB4D0FEF782
:1032800093F8401B0228F5D903204AE19B4A536F6B
:1032900023F001035367FEF787F80546974B5B6FF2
:1032A00013F0020F06D0FEF77FF8401B0228F5D975
:1032B000032036E1236813F0200F29D0A3699BB1C6
:1032C0008E4A136843F480531360FEF76DF8054689
:1032D0008A4B1B6813F4005F1AD1FEF765F8401B98
:1032E0000228F5D903201CE1844A136823F4805393
:1032F0001360FEF759F80546804B1B6813F4005F16
:1033000006D0FEF751F8401B0228F5D9032008E14A
:10331000236813F0040F21D1636A002B00F00081B1
:10332000764A126902F03802182A00F0FB80022B5C
:1033300075D0724A136823F080731360FEF734F877
:1033400004466E4B1B6813F0007F00F0E180FEF72F
:103350002BF8001B0228F4D90320E2E0684A136826
:1033600043F480731360FEF71FF80546644B1B6837
:1033700013F4807F06D1FEF717F8401B6428F5D9B7
:103380000320CEE0A368012B0AD00BBB5B4B1A6F66
:1033900022F001021A671A6F22F004021A6704E091
:1033A000564A136F43F001031367A36833B3FDF765
:1033B000FBFF0546514B1B6F13F0020FACD1FDF71D
:1033C000F3FF401B41F288339842F3D90320A8E071
:1033D000052B09D0494B1A6F22F001021A671A6FA8
:1033E00022F004021A67E0E7444B1A6F42F004022D
:1033F0001A671A6F42F001021A67D6E7FDF7D4FF89
:1034000005463E4B1B6F13F0020F85D0FDF7CCFF36
:10341000401B41F288339842F3D9032081E0374AB8
:10342000136823F080731360FDF7BEFF0546334B2E
:103430001B6813F0007F06D0FDF7B6FF401B022883
:10344000F5D903206DE02D4B996A2E4A0A40A16AF6
:10345000E06A41EA00110A439A62226B013AC2F320
:103460000802616B0139490289B20A43A16B013933
:10347000090401F4FE010A43E16B0139090601F078
:10348000FE410A431A63DA6A22F00102DA62596BDA
:103490001D4A0A40A16C42EAC1025A63DA6A22F06C
:1034A0000C02216C0A43DA62DA6A22F00202616CD1
:1034B0000A43DA62DA6A42F48032DA62DA6A42F4A1
:1034C0000032DA62DA6A42F48022DA62DA6A42F0C0
:1034D0000102DA621A6842F080721A60FDF764FF36
:1034E0000446064B1B6813F0007F0FD1FDF75CFF0D
:1034F000001B0228F5D9032013E000BF0044025846
:10350000004802580CFCFFFF0700FFFF002008E006
:10351000002006E001207047012002E0012000E0C9
:10352000002038BD0120FCE7724B1B6903F0380313
:10353000102B00F0DB80182B10D00BB16E487047B9
:103540006C4B1B6813F0200F00F0D280694B186899
:10355000C0F3C100694B23FA00F07047654A916AD5
:1035600001F00301906AC0F30510D36A03F0010370
:10357000526BC2F3CC0203FB02F307EE903AF8EE73
:10358000677A002800F0B580012966D0F9B10229D8
:1035900000F08F8007EE100AF8EE476A9FED586A38
:1035A00086EE267A534B1B6BC3F3080306EE903A64
:1035B000F8EE666A9FED536A67EE867A76EEA77A32
:1035C000F7EE006A77EEA67A27EE277A61E0494B9C
:1035D0001B6813F0200F23D046490A68C2F3C102CA
:1035E000464BD34007EE103AF8EE476A07EE100A52
:1035F000B8EE476A86EE867A0B6BC3F3080306EED5
:10360000903AF8EE666A9FED3F6A67EE867A76EE4C
:10361000A77AF7EE006A77EEA67A27EE277A38E0E7
:1036200007EE100AF8EE476A9FED376A86EE267AB3
:10363000304B1B6BC3F3080306EE903AF8EE666A54
:103640009FED306A67EE867A76EEA77AF7EE006A2B
:1036500077EEA67A27EE277A1BE007EE100AF8EE3F
:10366000476A9FED276A86EE267A224B1B6BC3F3CF
:10367000080306EE903AF8EE666A9FED226A67EE5E
:10368000867A76EEA77AF7EE006A77EEA67A27EECC
:10369000277A184B1B6BC3F34623013307EE903A8E
:1036A000F8EE677AC7EE276AFCEEE67A17EE900A24
:1036B000704707EE100AF8EE476A9FED146A86EE2F
:1036C000267A0C4B1B6BC3F3080306EE903AF8EE18
:1036D000666A9FED0C6A67EE867A76EEA77AF7EE59
:1036E000006A77EEA67A27EE277AD2E70848704775
:1036F000024870470044025800093D000090D00382
:103700000024744A000000390024744C0024F44A58
:1037100000127A00002800F02B810346964A1268B6
:1037200002F00F028A420CD29348026822F00F0284
:103730000A430260026802F00F028A4201D00120AF
:10374000704770B51A6812F0040F0CD018698B4AD4
:10375000926902F07002904205D9884CA26922F069
:1037600070021043A0611A6812F0080F0CD058695B
:10377000824AD26902F07002904205D97F4CE26918
:1037800022F070021043E0611A6812F0100F0CD0A2
:1037900098697A4AD26902F4E062904205D9774C7E
:1037A000E26922F4E0621043E0611A6812F0200F2F
:1037B0000CD0D869714A126A02F07002904205D9A1
:1037C0006E4C226A22F07002104320621A6812F0D6
:1037D000020F0CD0D868694A926902F00F02904239
:1037E00005D9664CA26922F00F021043A0611C4665
:1037F0000D461B6813F0010F41D0604A936923F412
:103800007063A1680B4393616368022B0AD0032B9A
:1038100027D0012B2CD0594A126812F0040F06D180
:103820000120A4E0126812F4003F00F0A380534985
:103830000A6922F0070213430B61FDF7B5FD064646
:103840004E4B1B6903F038036268B3EBC20F16D00E
:10385000FDF7AAFD801B41F288339842F0D903207E
:1038600085E0464A126812F0007FE0D101207EE038
:10387000424A126812F4807FD9D1012077E0236890
:1038800013F0020F0CD0E2683C4B9B6903F00F036E
:103890009A4205D239498B6923F00F031A438A6192
:1038A000354B1B6803F00F03AB420CD9324A136847
:1038B00023F00F032B431360136803F00F03AB4295
:1038C00001D0012053E0236813F0040F0CD02269CB
:1038D0002A4B9B6903F070039A4205D227498B69F2
:1038E00023F070031A438A61236813F0080F0CD089
:1038F0006269224BDB6903F070039A4205D21F49CB
:10390000CB6923F070031A43CA61236813F0100FC8
:103910000CD0A269194BDB6903F4E0639A4205D22B
:103920001649CB6923F4E0631A43CA61236813F094
:10393000200F0CD0E269114B1B6A03F070039A420E
:1039400005D20E490B6A23F070031A430A62FFF78F
:10395000EBFD0A4B9B69C3F30323094AD35C03F0D5
:103960001F03D840074B18600020FDF7BDFC70BD59
:10397000012070470120FAE700200052004402585D
:10398000089100080000002008B501F055FA064B28
:103990009B6903F00F03054AD35C03F01F03D84073
:1039A000034B186008BD00BF00440258089100088E
:1039B0000400002008B5FFF7E7FF054BDB69C3F300
:1039C0000213044AD35C03F01F03D84008BD00BFB4
:1039D000004402580891000808B5FFF7D5FF054BD1
:1039E000DB69C3F30223044AD35C03F01F03D8400E
:1039F00008BD00BF0044025808910008404B9B6A74
:103A000003F00303032B79D070B50E4604463C4AFD
:103A1000136823F080631360FDF7C6FC0546384B3E
:103A20001B6813F0006F06D0FDF7BEFC401B022898
:103A3000F5D9032070BD324B9A6A22F47C3221689A
:103A400042EA01329A626268013AC2F30802A1684E
:103A50000139490289B20A43E1680139090401F4D4
:103A6000FE010A4321690139090601F0FE410A43BA
:103A70009A63DA6A22F0C00261690A43DA62DA6A9A
:103A800022F02002A1690A43DA62DA6A22F0100207
:103A9000DA62D96B1B4A0A40E16942EAC102DA6381
:103AA000DA6A42F01002DA62C6B91A46DB6A43F4F7
:103AB0000023D362124A136843F080631360FDF75A
:103AC00073FC04460E4B1B6813F0006F14D1FDF716
:103AD0006BFC001B0228F5D90320ABE7012E05D0B3
:103AE000074AD36A43F40013D362E3E7044AD36A74
:103AF00043F48013D362DDE700209BE70120704789
:103B0000004402580700FFFF404B9B6A03F0030389
:103B1000032B79D070B50E4604463C4A136823F057
:103B200080531360FDF740FC0546384B1B6813F0CB
:103B3000005F06D0FDF738FC401B0228F5D90320B2
:103B400070BD324B9A6A22F07C72216842EA0152BF
:103B50009A626268013AC2F30802A1680139490217
:103B600089B20A43E1680139090401F4FE010A43FC
:103B700021690139090601F0FE410A431A64DA6A33
:103B800022F4406261690A43DA62DA6A22F400725E
:103B9000A1690A43DA62DA6A22F48072DA62596C45
:103BA0001B4A0A40E16942EAC1025A64DA6A42F4F5
:103BB0008072DA62C6B91A46DB6A43F48003D362C4
:103BC000124A136843F080531360FDF7EDFB04467F
:103BD0000E4B1B6813F0005F14D1FDF7E5FB001BD3
:103BE0000228F5D90320ABE7012E05D0074AD36A96
:103BF00043F08073D362E3E7044AD36A43F40003DB
:103C0000D362DDE700209BE70120704700440258A3
:103C10000700FFFFF8B50446036813F0006F2BD0D0
:103C2000436EB3F5801F18D007D9B3F5001F1DD020
:103C3000B3F5401F2ED1002506E05BBB934AD36A43
:103C400043F40033D3620025904A136D23F44013EC
:103C5000616E0B431365002610E002210430FFF76C
:103C6000CDFE0546002DEFD02E4607E00221243080
:103C7000FFF74AFF0546F5E700263546236813F4AB
:103C8000807F17D0636D042B32D8DFE803F0062461
:103C90002A0B0B0001263546F0E77C4AD36A43F431
:103CA0000033D3623DBB794A136D23F00703616D86
:103CB0000B431365236813F4007F33D0A36D802B6F
:103CC00044D01AD80BB3402B1CD10021201DFFF784
:103CD00095FE05461EE00021201DFFF78FFE0546DC
:103CE000E0E7002104F12400FFF70EFF0546D9E7C5
:103CF00001263546DEE72E46DCE7C02B0AD0B3F5B9
:103D0000807F07D0012635460CE0604AD36A43F431
:103D10000033D3620DBB5D4A136D23F4E073A16DD4
:103D20000B431365236813F4806F2FD0D4F8A430AD
:103D3000B3F5800F3ED012D8D3B1B3F5001F14D124
:103D40000021201DFFF75AFE054616E0002104F170
:103D50002400FFF7D9FE0546DCE72E46E2E7B3F57F
:103D6000C00F0AD0B3F5000F07D0012635460DE08D
:103D7000464AD36A43F40033D36215BB434A936D7A
:103D800023F46003D4F8A4100B439365236813F461
:103D9000006F2FD0D4F8A830B3F1007F37D012D8FD
:103DA000D3B1B3F1807F14D10021201DFFF726FE8F
:103DB000054616E0002104F12400FFF7A5FE0546A4
:103DC000DBE72E46E2E7B3F1407F0AD0B3F1806F24
:103DD00007D0012635460DE02C4AD36A43F4003360
:103DE000D362DDB9294A936D23F0E063D4F8A810BB
:103DF0000B439365236813F0007F2AD0A36C102B2C
:103E000012D00DD9202B1DD0302B12D009E000216B
:103E100004F12400FFF778FE0546E2E72E46E9E7C5
:103E20003BB10126354614E0184AD36A43F4003307
:103E3000D3626DB9154AD36C23F03003A16C0B43E8
:103E4000D36406E00221201DFFF7D8FD0546F0E708
:103E50002E46236813F4805F27D0E36DB3F5005F2F
:103E60003ED009D8A3B1B3F5805F0BD10021201D4E
:103E7000FFF7C4FD054610E0B3F5405F0DD0B3F584
:103E8000804F0AD0012635460FE000BF004402589B
:103E9000934AD36A43F40033D36245BB904A136D0F
:103EA00023F4E043E16D0B431365236813F4005FD3
:103EB00033D0236EB3F5003F27D01AD83BB1B3F50A
:103EC000803F1FD10121201DFFF798FD05461DBB36
:103ED000834A136D23F4E023216E0B4313651CE02A
:103EE000002104F12400FFF70FFE0546D5E72E461A
:103EF000DBE7B3F5802FEAD0B3F5A02FE7D0B3F519
:103F0000403FE4D00126354607E0012104F12400BA
:103F1000FFF7FAFD0546DAE72E46236813F4804FD3
:103F20002CD0D4F8AC30B3F1005F1FD012D83BB125
:103F3000B3F1805F17D10121201DFFF75FFD05461A
:103F4000DDB9674A936D23F0E043D4F8AC100B431E
:103F5000936513E0B3F1804FF2D0B3F1A04FEFD0EF
:103F6000B3F1405FECD00126354607E0012104F1B2
:103F70002400FFF7C9FD0546E2E72E46236813F447
:103F8000004F1FD0E36EB3F1805F06D0B3F1005F46
:103F900011D03BB10126354614E0514AD36A43F4AF
:103FA0000033D3626DB94E4A136D23F04053E16E76
:103FB0000B43136506E00121201DFFF71FFD054699
:103FC000F0E72E46236813F0807F1ED0636C032B2E
:103FD00017D8DFE803F007021007414AD36A43F419
:103FE0000033D36285B93E4AD36C23F00303616C7E
:103FF0000B43D36409E00221201DFFF7FFFC0546B7
:10400000F0E70126354600E02E46236813F4800FC2
:104010001FD1236813F0010F00F09E80A36F282B9F
:1040200000F29680DFE803F084949494949494943E
:104030007F949494949494948D949494949494945C
:104040008494949494949494849494949494949450
:104050008400244A136843F480731360FDF7A4F9C5
:104060000746204B1B6813F4807F05D1FDF79CF9B0
:10407000C01B6428F5D90325002D50D1184B1B6FA8
:10408000D4F8B020534013F4407F0CD0144B1A6F77
:1040900022F44072196F41F480311967196F21F4CD
:1040A000803119671A67D4F8B030B3F5807F1BD020
:1040B000002D36D1D4F8B03003F44072B2F5407F11
:1040C00023D0074A136923F47C53136104490B6F0F
:1040D000D4F8B020C2F30B0213430B6799E700BF7B
:1040E0000044025800480258FDF75EF90746AA4B03
:1040F0001B6F13F0020FDBD1FDF756F9C01B41F225
:1041000088339842F3D90325D2E7A348026922F401
:104110007C52A24901EA131313430361D6E72E46EA
:1041200077E72E4675E70121201DFFF767FC05465E
:104130008DB9994A536D23F03803A16F0B43536532
:104140000AE0012104F12400FFF7DEFC0546EFE759
:104150000126354600E02E46236813F0020F20D0DA
:10416000636F052B19D8DFE803F00803110808086E
:104170000121201DFFF742FC05468DB9864A536D8B
:1041800023F00703616F0B4353650AE0012104F13B
:104190002400FFF7B9FC0546EFE70126354600E0AD
:1041A0002E46236813F0040F22D0D4F89030052B4C
:1041B0001AD8DFE803F00803120808080121201DBF
:1041C000FFF71CFC054695B9734A936D23F007036E
:1041D000D4F890100B4393650AE0012104F1240008
:1041E000FFF792FC0546EEE70126354600E02E4635
:1041F000236813F0200F2CD0D4F88C30B3F1005F7B
:104200001FD012D83BB1B3F1805F17D10021201D20
:10421000FFF7F4FB0546DDB95F4A536D23F0E04339
:10422000D4F88C100B43536513E0B3F1804FF2D0F8
:10423000B3F1A04FEFD0B3F1405FECD0012635468B
:1042400007E0022104F12400FFF75EFC0546E2E7E7
:104250002E46236813F0400F2CD0D4F89830B3F5D5
:10426000006F1FD012D83BB1B3F5806F17D100217A
:10427000201DFFF7C3FB0546DDB9474A936D23F4C4
:10428000E053D4F898100B43936513E0B3F5805FC7
:10429000F2D0B3F5A05FEFD0B3F5406FECD00126BC
:1042A000354607E0022104F12400FFF72DFC054606
:1042B000E2E72E46236813F0800F2CD0D4F89C3010
:1042C000B3F5804F1FD012D83BB1B3F5005F17D1C3
:1042D0000021201DFFF792FB0546DDB92E4A936DA4
:1042E00023F46043D4F89C100B43936513E0B3F5BB
:1042F000004FF2D0B3F5204FEFD0B3F5C04FECD064
:104300000126354607E0022104F12400FFF7FCFBFB
:104310000546E2E72E46236813F0080F0AD0D4F8CA
:104320008030B3F5805F24D01B494A6D22F440529F
:1043300013434B65236813F0100F0AD0D4F8943060
:10434000B3F5807F1ED014498A6D22F44072134366
:104350008B65236813F4002F39D0D4F8A030B3F55F
:10436000803F2CD0B3F5003F1FD0CBB1012635469E
:104370002DE0022104F12400FFF7C6FB0028D9D06C
:104380000126D7E7022104F12400FFF7BDFB002836
:10439000DFD00126DDE700BF00440258CFFFFF0059
:1043A0000021201DFFF72AFB05467DB9644A936D65
:1043B00023F44033D4F8A0100B43936507E00221A7
:1043C00004F12400FFF7A0FB0546EEE72E46236824
:1043D00013F4802F24D0D4F88430B3F5001F17D005
:1043E000B3F5401F0AD0B3F5801F02D00126354631
:1043F00016E0534AD36A43F40033D3627DB9504A7E
:10440000536D23F44013D4F884100B43536507E035
:10441000012104F12400FFF777FB0546EEE72E4665
:10442000236813F4803F14D0E36C2BB1B3F5803FC5
:1044300023D0012635460CE0414AD36A43F40033C9
:10444000D36205BB3E4AD36C23F48033E16C0B434B
:10445000D364236813F0005F17D1236813F4003F7F
:104460002DD0E36FB3F5807F1BD017D9B3F5007F54
:104470001CD0B3F5407F12D118E00221201DFFF7B8
:10448000BDFA0546DDE72E46E3E7022104F12400EC
:10449000FFF73AFB0028E0D00126DEE733B1012622
:1044A0000DE0274AD36A43F40033D362002D3DD197
:1044B000234A536D23F44073E16F0B435365236824
:1044C00013F4801F06D01E4A136D23F00043216FA2
:1044D0000B431365236813F0805F07D0184A1369F4
:1044E00023F48043D4F8B4100B431361236813F40E
:1044F000001F06D0124A136D23F08073A16E0B4388
:104500001365236813F0804F09D00D4B1A6922F40C
:1045100000421A611A69D4F8B8100A431A61236874
:10452000002B05DB06B101263046F8BD2E46C6E756
:10453000034AD36C23F04053216D0B43D364F1E75E
:104540000044025808B5FFF71FFA054B1B6AC3F376
:104550000213044AD35C03F01F03D84008BD00BF18
:10456000004402580891000810B478498C6A8A6A9D
:10457000C2F30532CB6A03F01003C96BC1F3CC015F
:1045800003FB01F3002A00F0DB8004F0030407EED4
:10459000903AF8EE677A012C66D0FCB1022C00F05C
:1045A000B28007EE102AB8EE477A9FED696AC6EE30
:1045B000076A664B9B6BC3F3080307EE103AB8EE2D
:1045C000477A9FED646A67EE867A77EE277AB7EED0
:1045D000007A77EE877A66EEA76A61E05B4B1B682C
:1045E00013F0200F23D0594C2168C1F3C1015A4B5D
:1045F000CB4007EE103AB8EE477A06EE902AB8EEB6
:10460000666AC7EE066AA36BC3F3080307EE103AA7
:10461000B8EE477A9FED4F6A67EE867A77EE277A93
:10462000B7EE007A77EE877A66EEA76A38E007EE93
:10463000102AB8EE477A9FED496AC6EE076A434BE7
:104640009B6BC3F3080307EE103AB8EE477A9FED71
:10465000416A67EE867A77EE277AB7EE007A77EED0
:10466000877A66EEA76A1BE007EE102AB8EE477A53
:104670009FED376AC6EE076A344B9B6BC3F30803A2
:1046800007EE103AB8EE477A9FED326A67EE867A07
:1046900077EE277AB7EE007A77EE877A66EEA76A2A
:1046A0002A4A936BC3F3462307EE103AB8EE477AD3
:1046B000B7EE006A37EE067AC6EE877AFCEEE77A46
:1046C000C0ED007A936BC3F3064307EE103AB8EEE1
:1046D000477A37EE067AC6EE877AFCEEE77AC0EDC7
:1046E000017A936BC3F3066307EE903AF8EE677AAC
:1046F00077EE867A86EEA77ABCEEC77A80ED027AEC
:104700005DF8044B704707EE102AB8EE477A9FED2C
:10471000146AC6EE076A0D4B9B6BC3F3080307EEE2
:10472000103AB8EE477A9FED0B6A67EE867A77EE1D
:10473000277AB7EE007A77EE877A66EEA76AAFE758
:104740000023036043608360DAE700BF004402583F
:104750000024744A000000390090D0030024744CF7
:104760000024F44A10B478498C6A8A6AC2F305526C
:10477000CB6A03F48073496CC1F3CC0103FB01F3F2
:10478000002A00F0DB8004F0030407EE903AF8EE14
:10479000677A012C66D0FCB1022C00F0B28007EEE3
:1047A000102AB8EE477A9FED696AC6EE076A664B33
:1047B0001B6CC3F3080307EE103AB8EE477A9FED7F
:1047C000646A67EE867A77EE277AB7EE007A77EE3C
:1047D000877A66EEA76A61E05B4B1B6813F0200FD7
:1047E00023D0594C2168C1F3C1015A4BCB4007EE8D
:1047F000103AB8EE477A06EE902AB8EE666AC7EE2F
:10480000066A236CC3F3080307EE103AB8EE477A42
:104810009FED4F6A67EE867A77EE277AB7EE007AD9
:1048200077EE877A66EEA76A38E007EE102AB8EED0
:10483000477A9FED496AC6EE076A434B1B6CC3F388
:10484000080307EE103AB8EE477A9FED416A67EE2B
:10485000867A77EE277AB7EE007A77EE877A66EE79
:10486000A76A1BE007EE102AB8EE477A9FED376A79
:10487000C6EE076A344B1B6CC3F3080307EE103A0D
:10488000B8EE477A9FED326A67EE867A77EE277A3E
:10489000B7EE007A77EE877A66EEA76A2A4A136C3B
:1048A000C3F3462307EE103AB8EE477AB7EE006A34
:1048B00037EE067AC6EE877AFCEEE77AC0ED007A2C
:1048C000136CC3F3064307EE103AB8EE477A37EE9F
:1048D000067AC6EE877AFCEEE77AC0ED017A136CB1
:1048E000C3F3066307EE903AF8EE677A77EE867ABE
:1048F00086EEA77ABCEEC77A80ED027A5DF8044BAB
:10490000704707EE102AB8EE477A9FED146AC6EE9C
:10491000076A0D4B1B6CC3F3080307EE103AB8EEA1
:10492000477A9FED0B6A67EE867A77EE277AB7EEC5
:10493000007A77EE877A66EEA76AAFE70023036016
:1049400043608360DAE700BF004402580024744AE1
:10495000000000390090D0030024744C0024F44A75
:1049600010B478498C6A8A6AC2F30512CB6A03F0E4
:104970000103496BC1F3CC0103FB01F3002A00F0F2
:10498000DB8004F0030407EE903AF8EE677A012C1E
:1049900066D0FCB1022C00F0B28007EE102AB8EE0F
:1049A000477A9FED696AC6EE076A664B1B6BC3F3D5
:1049B000080307EE103AB8EE477A9FED646A67EE97
:1049C000867A77EE277AB7EE007A77EE877A66EE08
:1049D000A76A61E05B4B1B6813F0200F23D0594C92
:1049E0002168C1F3C1015A4BCB4007EE103AB8EE33
:1049F000477A06EE902AB8EE666AC7EE066A236B1F
:104A0000C3F3080307EE103AB8EE477A9FED4F6AFA
:104A100067EE867A77EE277AB7EE007A77EE877AB6
:104A200066EEA76A38E007EE102AB8EE477A9FEDE7
:104A3000496AC6EE076A434B1B6BC3F3080307EED4
:104A4000103AB8EE477A9FED416A67EE867A77EEC4
:104A5000277AB7EE007A77EE877A66EEA76A1BE0D0
:104A600007EE102AB8EE477A9FED376AC6EE076A5E
:104A7000344B1B6BC3F3080307EE103AB8EE477ACA
:104A80009FED326A67EE867A77EE277AB7EE007A84
:104A900077EE877A66EEA76A2A4A136BC3F346233A
:104AA00007EE103AB8EE477AB7EE006A37EE067AAC
:104AB000C6EE877AFCEEE77AC0ED007A136BC3F39B
:104AC000064307EE103AB8EE477A37EE067AC6EE9E
:104AD000877AFCEEE77AC0ED017A136BC3F30663C5
:104AE00007EE903AF8EE677A77EE867A86EEA77A46
:104AF000BCEEC77A80ED027A5DF8044B704707EE92
:104B0000102AB8EE477A9FED146AC6EE076A0D4B7D
:104B10001B6BC3F3080307EE103AB8EE477A9FED1C
:104B20000B6A67EE867A77EE277AB7EE007A77EE31
:104B3000877A66EEA76AAFE700230360436083606D
:104B4000DAE700BF004402580024744A000000392C
:104B50000090D0030024744C0024F44A00B58BB0BC
:104B6000B0F5807F15D0B0F5007F40D0B0F5806FF4
:104B700070D0B0F5006F00F0A380B0F5805F00F05A
:104B8000D580B0F5002F00F0038100200BB05DF858
:104B900004FBA24B1B6D03F00703042B00F21E81E4
:104BA000DFE803F0050A0F0314009D48EEE707A8AD
:104BB000FFF7D6FE0898E9E704A8FFF7D5FC0498AC
:104BC000E4E701A8FFF7CEFD0198DFE7934BDB6C2C
:104BD00013F0405300F00481B3F1805F00F00281D4
:104BE000B3F1005F01D00020D0E78E48CEE78B4BB9
:104BF0001B6D03F4E073802B25D008D8F3B1402B54
:104C000040F0F28004A8FFF7AFFC0498BEE7C02B89
:104C100012D0B3F5807F40F0E780804BDB6C13F05F
:104C2000405300F0E380B3F1805F00F0E180B3F126
:104C3000005F0DD00020A9E77948A7E707A8FFF794
:104C40008FFE0898A2E701A8FFF78CFD01989DE769
:104C500074489BE7714B9B6D03F46003B3F5800FC1
:104C600027D009D803B3B3F5001F40F0C38004A8D0
:104C7000FFF77AFC049889E7B3F5C00F12D0B3F5BB
:104C8000000F40F0B780654BDB6C13F0405300F031
:104C9000B380B3F1805F00F0B180B3F1005F0DD05D
:104CA000002073E75E4871E707A8FFF759FE0898F0
:104CB0006CE701A8FFF756FD019867E7594865E7DB
:104CC000564B9B6D03F0E063B3F1007F27D009D80A
:104CD00003B3B3F1807F40F0938004A8FFF744FC56
:104CE000049853E7B3F1407F12D0B3F1806F40F0E6
:104CF00087804A4BDB6C13F0405300F08380B3F1A4
:104D0000805F00F08180B3F1005F0DD000203DE7AF
:104D100043483BE707A8FFF723FE089836E701A8BA
:104D2000FFF720FD019831E73E482FE73B4B1B6D15
:104D300003F4E043B3F5005F23D008D8E3B1B3F543
:104D4000805F63D104A8FFF70FFC04981EE7B3F55A
:104D5000405F0FD0B3F5804F58D1304BDB6C13F070
:104D6000405355D0B3F1805F54D0B3F1005F0DD004
:104D700000200BE72A4809E707A8FFF7F1FD08988C
:104D800004E701A8FFF7EEFC0198FFE62548FDE6E1
:104D9000224B9B6D03F44033B3F5803F0AD0B3F54B
:104DA000003F0CD00BB10020F0E604A8FFF7DCFBBD
:104DB0000498EBE601A8FFF7D5FC0398E6E6174B4D
:104DC000DB6C13F0405327D0B3F1805F30D0B3F1E8
:104DD000005F01D00020D9E61248D7E60020D5E6D2
:104DE0001148D3E61148D1E60020CFE60E48CDE6C3
:104DF0000E48CBE60020C9E60B48C7E60B48C5E6DF
:104E00000020C3E60848C1E60848BFE60020BDE62A
:104E10000548BBE60548B9E60348B7E60044025832
:104E20000080BB0000127A000090D00300093D0012
:104E30000048ABE600093D0008B5FEF775FB064BE0
:104E40009B69C3F30323054AD35C03F01F03D840D7
:104E5000034B186008BD00BF0044025808910008C9
:104E6000000000200268436E92F830201A70436EF2
:104E700001334366B0F86A30013B9BB2A0F86A3058
:104E8000B0F86A309BB223B90268136923F00103BA
:104E9000136170470268436E128E1A80436E0233AC
:104EA0004366B0F86A30013B9BB2A0F86A30B0F8B4
:104EB0006A309BB223B90268136923F001031361BE
:104EC00070470268436E126B1A60436E0433436688
:104ED000B0F86A30013B9BB2A0F86A30B0F86A3093
:104EE0009BB223B90268136923F001031361704771
:104EF000C26D0368127883F82020C36D0133C36547
:104F0000B0F86230013B9BB2A0F86230B0F862307A
:104F10009BB223B90268136923F00203136170473F
:104F2000C26D036812881A84C36D0233C365B0F87A
:104F30006230013B9BB2A0F86230B0F862309BB2A5
:104F400023B90268136923F0020313617047C26D2D
:104F5000036812681A62C36D0433C365B0F8623027
:104F6000013B9BB2A0F86230B0F862309BB223B92B
:104F70000268136923F002031361704710B40268DA
:104F80005369916941F00801916101688A6942F0B1
:104F900010028A6101680A6822F001020A60016851
:104FA0000C69294A22400A6101688A6822F4404259
:104FB0008A6090F88120D2B2042A0DD013F0200F1D
:104FC0000AD0D0F8842042F08002C0F88420016822
:104FD0008A6942F020028A6190F88120D2B2032AC5
:104FE0000DD013F0400F0AD0D0F8842042F0040214
:104FF000C0F8842001688A6942F040028A6113F493
:10500000007F0AD0D0F8842042F00102C0F884204A
:1050100001688A6942F400728A6113F4807F0AD0C1
:10502000D0F8843043F00803C0F8843002689369F4
:1050300043F4807393610023A0F86230A0F86A30D3
:105040005DF8044B704700BF90FCFFFFC36B5B092A
:10505000C0680830C00803FB00007047002800F05B
:10506000978070B504460023836205684C4B4D4E13
:105070009D4218BFB54214BF0126002607D0A3F5F4
:1050800074439D4203D0C3680F2B00F283802046F7
:10509000FFF7DCFF26B1444B9D4201D008287BD8A6
:1050A0003F4A404B9D4218BF954203D003F58063B1
:1050B0009D4201D1102871D894F88130002B54D032
:1050C000022384F881302268136823F001031360FF
:1050D000A369B3F1806F4ED0E369A26A1343E26B18
:1050E0001343E16822680B439360636B626A134366
:1050F000A26B1343A26913432269134362691343EA
:10510000226A134362681343E26C1343A268134399
:10511000A26C1343A16D22680B43D36063686BB923
:105120002268936823F4C05343F4006393602268B9
:10513000936823F4C06343F4806393602268136D23
:1051400023F001031365636813F4800F06D022680F
:10515000D36823F00043616D0B43D3600020C4F893
:105160008400012384F8813070BD84F880302046AB
:10517000FBF726FDA4E76368B3F5800FACD1A36B02
:10518000002BA9D12268136843F480531360A3E76E
:10519000012070470120E7E70120E5E70120E3E770
:1051A0000030014000380040003C004030B490F82E
:1051B0008040012C6DD0012480F8804090F881401F
:1051C000E4B24568012C07D0B5F5800F44D185685D
:1051D000002D41D1042C3FD1B2FA82F46409002998
:1051E00008BF0124002C3DD1002B3BD090F881401A
:1051F000E4B2042C02D0052480F881400024C0F8D9
:105200008440C165A0F86030A0F862304266A0F822
:105210006830A0F86A30C2680F2A28D91E4A42674F
:105220001E4A026701684C681D4A224013434B60C6
:105230000268136843F0010313600268116940F2C9
:105240006F730B4313614368B3F5800F1BD00023CA
:1052500080F88030184603E0002380F88030022078
:1052600030BC7047002380F880300120F8E7072A1F
:1052700004D90C4A02670C4A4267D3E70B4A02671B
:105280000B4A4267CEE70268136843F40073136069
:10529000DDE70220E4E700BF4F4F0008C34E0008DF
:1052A0000000FFFF954E0008214F0008654E0008E2
:1052B000F14E000838B585681DB94368B3F5800F15
:1052C00046D090F88030012B68D0012380F88030E0
:1052D00090F88140E4B29C4242D1B2FA82F35B0979
:1052E000002908BF0123002B3FD1042380F881301F
:1052F0000023C0F884304166A0F86820A0F86A2036
:10530000C365A0F86030A0F862304367C3680F2B14
:1053100030D9234B0367B5F5C02F33D001684C68F3
:10532000204B23401A434A600268136843F001038C
:1053300013600268116940F249730B4313614368BB
:10534000B3F5800F24D0002380F8803018460BE09E
:105350001346042280F881200A46FFF727FF03E066
:10536000002380F88030022038BD002380F8803090
:105370000120F9E7072B02D90B4B0367CBE70B4B57
:105380000367C8E701680B6823F400630B60C5E797
:105390000268136843F400731360D4E70220E3E764
:1053A000C34E00080000FFFF954E0008654E000840
:1053B00070477047704700002DE9F84304460368C2
:1053C000D3F810805F6908EA0705D3F8089090F8D1
:1053D0008160F6B205F06403042B16D1436F984741
:1053E000236F20469847012305F04502012A03D187
:1053F000236F20469847012305F02602022A06D192
:10540000636F20469847BDE8F8830023ECE7002B44
:10541000F9D115F0080F6DD02268936943F00803A5
:1054200093612268936943F0100393612268936942
:1054300043F4006393612268136923F00803136146
:1054400019F4404F09D0042E02D0A36FDB6923B1B9
:10545000032E11D0E36FDB6973B923689B6813F4E3
:10546000404F22D02046FFF789FD012384F8813088
:10547000D4F88430002B31D1052E33D0042E35D012
:10548000032EC0D12046FFF793FFBCE7072B1CD9A2
:105490002268636E128E1A80636E02336366B4F8FC
:1054A0006A30013B9BB2A4F86A30B4F86A309BB210
:1054B000002BD7D0E3680F2BE8D92268636E126BFC
:1054C0001A60636E04336366E9E72268636E92F8DC
:1054D00030201A70636E01336366E0E72046FFF701
:1054E00069FF90E72046FFF764FF8CE7204602F053
:1054F000B9FC88E717F4006F02D018F0080F75D1D7
:1055000015F4587F3FF47FAF15F0400F0AD0D4F860
:10551000843043F00403C4F884302268936943F074
:105520004003936115F4007F0AD0D4F8843043F02F
:105530000103C4F884302268936943F400739361D3
:1055400015F4807F0AD0D4F8843043F00803C4F8FF
:1055500084302268936943F48073936115F0200FBF
:105560000AD0D4F8843043F08003C4F88430226831
:10557000936943F020039361D4F88430002B3FF407
:1055800042AF2268136823F0010313602268116997
:105590001D4B0B40136109F44049B9F5404F2BD125
:1055A0002268936823F440439360E36F5BB1174A2A
:1055B0001A65E06FFCF722FF28B1D4F8843043F07D
:1055C0004003C4F88430A36F002B3FF41CAF0F4A94
:1055D0001A65A06FFCF712FF00283FF414AFD4F84F
:1055E000843043F04003C4F884300CE722689369A8
:1055F00043F40063936106E7012384F88130204679
:10560000FFF7D8FEFFE600BF94FCFFFF115600082D
:1056100008B5806B0023A0F86A30A0F8623001233F
:1056200080F88130FFF7C6FE08BD0000F0B4036AC1
:1056300023F001030362036A446885691E4A2A4015
:105640000E68164323F002038D682B431B4A1C4D42
:10565000A84218BF90420CBF012200220CD005F5D1
:105660008045A84214BF00250125164FB84203D03B
:1056700015B9154DA84205D123F00803CD682B4379
:1056800023F004035AB9114A904214BF00220122A8
:105690000C4DA84203D012B90B4A904205D124F414
:1056A00040724C6914438A691443446086614A68B5
:1056B00042630362F0BC70478CFFFEFF00000140B4
:1056C0000004014000400140004801400044014006
:1056D00070B4036A23F480730362036A4468C26986
:1056E00022F073020E68164323F400738A6843EABB
:1056F0000223164A164DA84218BF90420CBF012241
:10570000002206D123F40063CD6843EA052323F485
:1057100080635AB90F4A904214BF002201220E4DF5
:10572000A84203D012B90D4A904207D124F4405444
:105730004A6944EA02148A6944EA02144460C66170
:105740004A68C263036270BC704700BF000001403A
:105750000004014000440140004001400048014075
:1057600070B4036A23F480530362036A4468C26915
:1057700022F4E6420D6842EA052223F400538D68C4
:1057800043EA05330F4E104DA84218BFB0420DD06A
:1057900005F58045A84214BF0025012506F5804681
:1057A000B04203D015B9094DA84204D124F4804475
:1057B0004D6944EA85144460C2614A680264036228
:1057C00070BC7047000001400004014000480140E7
:1057D00070B4036A23F480330362036A4268446D41
:1057E00024F070040D682C4323F400338D6843EAE1
:1057F0000543104E104DA84218BFB0420DD005F51C
:105800008045A84214BF0025012506F58046B04218
:1058100003D015B9094DA84204D122F480324D6954
:1058200042EA0522426044654A688265036270BCB0
:10583000704700BF000001400004014000480140E3
:1058400070B4036A23F480130362036A4468426DF0
:1058500022F4E0420D6842EA052223F400138D6829
:1058600043EA05530F4E104DA84218BFB0420DD069
:1058700005F58045A84214BF0025012506F58046A0
:10588000B04203D015B9094DA84204D124F4003424
:105890004D6944EA8524446042654A68C2650362F2
:1058A00070BC704700000140000401400048014006
:1058B00010B4036A046A24F001040462846924F0C9
:1058C000F00444EA021223F00A030B4382610362EC
:1058D0005DF8044B704710B4036A23F010030362B1
:1058E0008469036A24F4704444EA023223F0A0037A
:1058F00043EA0113826103625DF8044B70470000C4
:105900008268034B1340194341F0070181607047DF
:105910008FFFCFFF0268D36843F00103D3600268B2
:105920009168064B0B40062B18BFB3F5803F03D0A0
:10593000136843F001031360002070470700010063
:10594000704770477047704710B5044603681A697E
:1059500012F0020F11D0DA6812F0020F0DD06FF0C2
:1059600002021A610123037703689B6913F0030F96
:1059700079D0FFF7E6FF0023237723681A6912F036
:10598000040F12D0DA6812F0040F0ED06FF0040288
:105990001A610223237723689B6913F4407F68D040
:1059A0002046FFF7CEFF0023237723681A6912F001
:1059B000080F12D0DA6812F0080F0ED06FF008024C
:1059C0001A61042323772368DB6913F0030F57D090
:1059D0002046FFF7B6FF0023237723681A6912F0E9
:1059E000100F12D0DA6812F0100F0ED06FF0100204
:1059F0001A61082323772368DB6913F4407F46D0BC
:105A00002046FFF79EFF0023237723681A6912F0D0
:105A1000010F03D0DA6812F0010F3FD123681A6931
:105A200012F0800F03D0DA6812F0800F3DD12368A6
:105A30001A6912F4807F03D0DA6812F0800F3BD12C
:105A400023681A6912F0400F03D0DA6812F0400F91
:105A500039D123681A6912F0200F03D0DA6812F0E6
:105A6000200F37D110BDFFF76BFF2046FFF76AFF0D
:105A700081E72046FFF764FF2046FFF763FF92E7C8
:105A80002046FFF75DFF2046FFF75CFFA3E72046B7
:105A9000FFF756FF2046FFF755FFB4E76FF001020E
:105AA0001A61204602F0CCF9B8E76FF080021A6163
:105AB000204600F066FCBAE76FF480721A61204657
:105AC00000F060FCBCE76FF040021A612046FFF76F
:105AD0003AFFBEE76FF020021A61204600F050FC4A
